:10000000001004000000000096110000A81100007C
:10001000000000009E110000B01100000000000070
:1000200000000000000000000000000000000000D0
:10003000000000005411000000000000000000005B
:1000400000000000000000000000000000000000B0
:1000500000000000FE110000C011000000000000C0
:100060000000000000000000000000000000000090
:1000700000000000000000004C1100000000000023
:100080000000000000000000000000000000000070
:100090000000000000000000000000000000000060
:1000A0000000000000000000000000000000000050
:1000B0000000000000000000000000000000000040
:1000C0000000000000000000000000000000000030
:1000D0000000000000000000000000000000000020
:1000E0000000000000000000000000000000000010
:1000F0000000000000000000000000000000000000
:1001000000000000000000000000000000000000EF
:1001100000000000000000000000000000000000DF
:10012000000000000000000000000000301200008D
:1001300000000000000000000000000000000000BF
:1001400000000000000000000000000000000000AF
:10015000000000000000000000000000000000009F
:10016000000000000000000000000000000000008F
:10017000000000000000000000000000000000007F
:10018000000000000000000000000000000000006F
:10019000000000000000000000000000000000005F
:1001A000000000000000000000000000000000004F
:1001B000000000000000000000000000000000003F
:1001C000000000000000000000000000000000002F
:1001D000000000000000000000000000000000001F
:1001E000000000000000000000000000000000000F
:1001F00000000000000000000000000000000000FF
:102000002F5122000E7F24000E01880000000000E6
:10201000000020000000E00002003200000120006B
:102020002002880014000700180107000000E000EB
:1020300003003A0020EC22000100200002003700DB
:102040000000200001002000810F7000010032001C
:1020500014000700000020000000E0000200320031
:102060000000020000000000142402000000000034
:102070000040DA000000FE004440A900A006200055
:102080000000E000030032000020200090018800E2
:102090004440A800000006008A1F78008B1F7800CB
:1020A00000000600A1028800800478000000EB0018
:1020B0001F003700E284440054A0B4009905BA0020
:1020C000E284440054A0B4009906BA00E2844400BB
:1020D00054A0B4000006EB00476FDE00FD07B2001D
:1020E000AE018800636CE10003003A00EAFF0700DC
:1020F0000000EB000E003700606CE10008003A00C1
:10210000004DEB000A05E800020039003420EC0025
:102110000AF0A0008B05E900F9FF3E00040037003B
:102120006168E100010032000086EB000B0007004F
:1021300019C7BA001905BA000E04E00003003A00FE
:102140000A00E000DBFF3A0000000600FE07B200D4
:10215000AE0288008A047800F5FF37000CD0A30097
:10216000E20F4D001C00390089027800354DBA009D
:102170000A05E800020039003420EC000AF0A00053
:102180008B05E9000F003200254DBA000A05E80072
:10219000020039003420EC000AF0A0008B05E900B1
:1021A000080032000C00E0000600320015CDBA0035
:1021B0000A05E800020039003420EC000AF0A00013
:1021C0008B05E9008984E80054A0B4000B00E0000E
:1021D000E2FF3A00000006009902BA00055D7800AF
:1021E0008B05E900F7FF3200C82ADE00055D7800A4
:1021F0008B05E900F3FF32000C00E000F1FF320034
:1022000019DDBA00EEFF37002A22040000000000AA
:1022100050220400000000006222040000000000C0
:102220008422040000000000BA2204000000000024
:10223000EE2204000000000046230400000000001D
:10224000AC25040000000000A625040000000000EA
:1022500094250400000000007C250400000000001C
:102260006225040000000000B62504000000000004
:10227000D425040000000000F62504000000000042
:102280001A260400000000003026040000000000B0
:1022900056260400000000000000FA008A80A90011
:1022A0000080FA0000400600809FBE00829FBE00B2
:1022B000849FBE00869FBE000000FA00608120005F
:1022C0003002BE002003BE001000200001002000EC
:1022D0006011B8000000420081804A0002014B00FA
:1022E00083814B0064812000009ABE000292BE00F0
:1022F00010512200104078008040E8001051220068
:10230000014878000051220011C0B3000148780054
:102310008860A9000080FA004F03BE004F02BE0093
:102320004F01BE004F00BE00004006003600F8001E
:102330008020A9000000EB003B0807003600F800F1
:102340003D0807008040A900100020003608070063
:102350003600F8008060A900200020003208070045
:102360003600F8008080A900300020002E08070009
:102370003600F8008600A900700020002A08070037
:102380003600F800809FBE00829FBE00849FBE0082
:10239000869FBE000200FA004015810062006000C6
:1023A0000000E00008003A008E007800201A2200A9
:1023B000430E07000004E00003003A001E407800CE
:1023C0000080FB00E01C8800401581006200600076
:1023D0000000E000010032009980A9008980A90076
:1023E0000080FA004F03BE004F02BE004F01BE0046
:1023F0004F00BE003600F900004006003600F8002D
:10240000809FBE00829FBE00849FBE00869FBE004C
:102410000000FA0005003700F01C80000040780042
:1024200080407800A0092200F50D0700D01C800034
:10243000610060000000E000F7FF3A008960A90039
:102440009A23A9000080FA004F03BE004F02BE008D
:102450004F01BE004F00BE003600F90000400600EC
:10246000801F78000000FA00D01C8000620060002D
:102470000000E000010032009A23A9009020A9008A
:102480000080FA004F0078000040060000000500C0
:102490000900370030427800B1417800834F520084
:1024A0000400320010002000060031000080EB0024
:1024B000000006000201E9000200E000F5FF3A001A
:1024C0000000EB00000006008001780002003700E9
:1024D000B15978000201E9000200E000FCFF3A0077
:1024E000000006000C00FA00200798003107980051
:1024F00042079800530798002E019000BE019000FB
:1025000000802F00F1FF2F00020278008301780085
:102510000001780001007800020162000080610083
:102520008000EB00C000DD0000002000008FBE0036
:102530006110B8001E1F70001E9770000002EB00B3
:10254000DE0190004E0190001E00BE00CD0007008D
:102550001E01BE0022418800334188002C68EF0034
:102560000000EB000080FA00000006001600FA00F0
:1025700070079800010F9800120F9800230F980021
:102580007E0190008E09900000802F00F1FF2F0047
:1025900002027800030178008001780001007800D1
:1025A00003026200000061008000EB00C000DD005B
:1025B000000020000001BE006120B8000001710091
:1025C0008181710022079800330798002E00900047
:1025D000BE009000330107006000B800008FBE000D
:1025E0001B0037001E01BE004918DD00C710DE00C9
:1025F000810070004910DD008101D1000081D3000D
:102600002E009000BE009000020040008380480031
:1026100040079800510798001E007800C900DD00AF
:102620001E08900000804000600798006E00900037
:10263000000178004E009000DE009000B401070019
:1026400012002000030020001E0F41005E97490089
:102650001E01BE007000200001002000800F51000C
:10266000818F5900DFFF36002C68EF000000EB007F
:102670000080FA00000006000A00FA002007980017
:1026800031079800420798002E019000BE0190008B
:1026900000802F00F1FF2F000202780083017800F4
:1026A00000017800010078000201620000806100F2
:1026B0008000EB00C000DD0000002000008FBE00A5
:1026C0006110B8001E1F70001E977000204180002E
:1026D000314180001E01BE00800F5100818F5900E2
:1026E00005003200204180003141800003002100BC
:1026F000428320007BFF070002002100418320006D
:102700004E00900062FF07000080FA000000060003
:102710000210FA000040EB00004F78002CC8BF0008
:10272000E14F50001F003A002241800033418000F9
:102730000080EB008080EB00800F5100818F5900FA
:102740001800320020418000314180000300210048
:102750004283200085FF07002DC8BF000004E00071
:1027600010003200E1004700FF0F09008058EB0025
:1027700020418000314180000E01E800030021006B
:1027800058FF070020418000314180000E01E80021
:10279000B9FF07000000E0000200320010C0B300E3
:1027A000004F78001E00FB000080FA0000000600C9
:1027B0000E00FA00200798003107980042079800A1
:1027C00053079800640798002E019000BE01900006
:1027D00000802F00F1FF2F000202780083017800B3
:1027E00000017800010078000201620000806100B1
:1027F0008000EB00C000DD0000002000008FBE0064
:102800006110B8001E1F70001E97700020418000EC
:10281000314180001E01BE00800F5100818F5900A0
:1028200009003200BAFF07000000E0000200320099
:102830001000200011003700030021004283200017
:102840001E00BE0027FF0700AE009000F07F2000B2
:10285000008060000000400080007800408320007D
:10286000008040005E019000CE00900016FF07003F
:1028700010C0B3002CE8B7000000EB000080FA00A5
:10288000000006001000FA00300798004107980089
:10289000520798006307980074079800DE009000C4
:1028A000010F78007E0090000000E00033003A0045
:1028B0003000200070079800300037000000EB0067
:1028C000100798007E009000EE009000810F5000ED
:1028D000010036000100780020079800AE0190004A
:1028E0001E0178003E009000CE0090008D00070091
:1028F000100798001E0090001E0F40003E0190003F
:10290000CE019000E0FF2F00F1FF2F0002027800BF
:102910000301780080017800010078000302620062
:10292000000061008000EB00C000DD00000020001E
:102930000001BE006120B8000001710081817100BA
:1029400062004100E080490030079800410798008C
:102950009E0090006E009000808F500005003E00A9
:102960001E009000EE00900000805000600798006C
:10297000020037000000EB00600798006E00900036
:102980000000E000CDFF3A000000EB000080FA00FC
:10299000000006001000FA00500798006107980038
:1029A000720798006000B80030079800410798004F
:1029B0000000EB00000F7800340037000000EB004F
:1029C000100798007E009000E40F500001003600D0
:1029D000400020002007980066004700AE019000EC
:1029E000000178005E009000EE0090004D000700AE
:1029F000100798001E0090006101B90066004700B2
:102A00009E00780072010700000F78005E019000C0
:102A1000EE019000E0FF2F00F1FF2F00020278008E
:102A20000301780080017800010078000302620051
:102A3000000061008000EB00C000DD00000020000D
:102A40000001BE006120B8000001710081817100A9
:102A500062004100E080490050079800610798003B
:102A60009E0090007E009000808F500005003E0088
:102A70001E009000FE00900000805000700798003B
:102A8000020037000000EB00700798007E00900005
:102A90000000E000C9FF3A001E0078000080FA0044
:102AA000000006000400FA00008FBE001E00BE00F9
:102AB0004008DE0000007800203B88001E007800FF
:102AC000103B880030002400003B880050052000A7
:102AD000303B8800A00A2000303B88000500FC0045
:102AE00050052000303B8800A00A2000303B8800C1
:102AF00061E7A800000000000000000000000000E6
:102B0000003B80000000E000FDFF3500003B80003E
:102B10008000780000002200008060000080FA0041
:102B2000000006002400FA00600F9800710F980062
:102B300002179800131798006E099000FE09900084
:102B4000E0FF2F00F1FF2F00020278000301780060
:102B5000800178000100780003026200000061003B
:102B60008000EB00C000DD00000020000001BE007E
:102B70006120B80000017100818171002207980076
:102B8000330798006E099000FE0990002E00900017
:102B9000BE0090000000510081805900400798005D
:102BA000510798002E009000BE0090004008DE0003
:102BB00080007800F00F200000806000A0028800F4
:102BC0002E019000BE019000F0FF2F0001002000B8
:102BD000020278000301780080017800010078008B
:102BE00003026200000061008000EB00C000DD0015
:102BF000000020000001BE006120B800000171004B
:102C00008181710062079800730798006E00900040
:102C10001000BA008000EB00000F9800110F980020
:102C20006E0090001080BA008000EB00200F98002A
:102C3000310F98006000B800400F9800510F9800C5
:102C40004E0090000040780041C0B30000CF50001B
:102C50009E80FB001E109000808F50000200340008
:102C60001E109000004F78000E0890000040780081
:102C7000005F98000E0890009E0890004809DD0053
:102C80004800DE0000007100C808DE000040780047
:102C9000105F98002E08900000407800205F980098
:102CA0000040EB00305F98000000EB001007980038
:102CB000100037001E0090008E109000008240002F
:102CC0001E0090006101B9004E009000DE009000EF
:102CD0000200400083804800780147000000410066
:102CE00010407800004A78001E0090000000E800C4
:102CF000100798009E80FB001E009000808F5000FF
:102D0000ECFF3C001E80FB000080FA000000060083
:102D10000800FA0010079800210798003207980071
:102D200020002400003B8800A00F2000A0028800A3
:102D30001E009000AE0090004008DE000000780009
:102D4000203B88001E009000103B88000000EB0034
:102D5000000F78001E0037001E0078004200DD00E2
:102D60000000E800BE0090000080400010407800A5
:102D70000080FB00C800DD001E0078004200DD007E
:102D80003E01900000004100104078000080FB00F0
:102D900001007000800078001E00780000004000F4
:102DA0000108BB001E0078004200DD000080E80042
:102DB000BE00900000804000104078008080FB0042
:102DC0001E007800000040000188BB001E0FE800D4
:102DD000F00720009E007800808F5000DEFF360054
:102DE0000500FC0050052000303B8800A00A2000B0
:102DF000303B880061E7A8000000000000000000F0
:102E000000000000003B80000000E000FDFF3500F6
:102E1000003B8000800078000000220000806000FD
:102E20000080FA00000006001000FA005007980029
:102E3000610798007207980000C0EB0020479800D7
:102E40005E009000EE0090004008DE0030479800E1
:102E50000000EB00000F78003B0037005E009000A0
:102E6000EE0090004008DE0030479800DE00900041
:102E700021079800AE4090003E40900080CF500067
:102E8000050032003E4090000080FB00A002880058
:102E9000BE409000214798002E0090001000BA001C
:102EA000300798002E0090001080BA00400798006C
:102EB0001E0078004200DD00FE009000008040000F
:102EC000BE00900081407800014878001E00780024
:102ED0004200DD000000E800FE009000008040009D
:102EE000BE009000C808DE008140780001487800EC
:102EF0001E0078004200DD000080E800FE00900027
:102F000000804000CE0090008140780001487800A9
:102F10001E0078004200DD0063004000FE009000CB
:102F2000008040008040EB00014878005E00900087
:102F3000EE00900062004000E080480050079800DA
:102F4000610798001E0FE800F00720009E0078003F
:102F5000808F5000C1FF36000000EB000080FA00B7
:102F6000000006000E00FA003007980041079800A4
:102F700052079800630798000000EB0020079800B4
:102F80003E019000CE019000028FBE000700370086
:102F90001E00BE00C3FE07002007980000002100AD
:102FA000010020001E0F40005E9748005E00900068
:102FB000EE0090001E01BE00800F5100818F59006D
:102FC000F3FF39002E0090000080FA000000060098
:102FD0000E00FA0030079800420798005307980047
:102FE00061079800EE009000010F7800BE0090008D
:102FF00011079800260037001E007800CC00DE0084
:103000001E009000104078000080FB004400DE00AD
:10301000004078000080FB000080680020079800D6
:103020002E0090006F0060008000400080F52A00B4
:1030300000804000900078001E0078004400DD0011
:10304000008F68001E007800CC00DE001E0090009B
:10305000104078000080FB00008068002007980086
:103060002E0090006F0060008000400080F52A0074
:1030700000804000900078001E0078004400DD00D1
:10308000008F68001E0090000000E8001007980004
:10309000CE0090005E0090000100700000F0A700DC
:1030A0000000EA000000EA004F00DE000041780066
:1030B0004E009000DE00900061005000E08058005B
:1030C00040079800510798000204E000CAFF3A0048
:1030D0001E0078000080FA00000006000200FA00DE
:1030E0008083210090407800114798000040EB0059
:1030F000004F78001E4090000080FB00E20F50005F
:1031000003003200E30F50000300320013003700C9
:103110002368EF0011003700A0C18000B1C180001A
:103120000040780063405000004178009183210006
:1031300000C2210060020700A0C18000B1C1800070
:1031400063005000E08058000001BE0000C2210072
:103150000C010700004F7800000000001E407800BE
:103160000080FA00000006000C00FA0023C8BF002F
:10317000E14F50003D003A00F38120009341780078
:1031800002822000124178001182200091407800D4
:1031900022C8BF0013479800224798003147980083
:1031A00040479800F18120009140780032C8BF006C
:1031B00080CF50002000320003822000934178002D
:1031C0001282200012417800218220009140780074
:1031D00032C8BF006502470005000900005AEB0035
:1031E000A4C0B30054479800634798007247980002
:1031F000014F9800104F9800510020000040EB0054
:10320000200A0700E50047000102780063C0B30010
:1032100000017800A1CAB30040CB2100FA070700E3
:103220000028EF006000B800A0C18800B1C188008C
:1032300010C0B30008E8B700610020000040EB00B8
:10324000100A07008E00E8000102780043C0B300B6
:1032500000017800A1CAB30040CB2100EA070700B3
:1032600020C0B30023E8B7002400370000408000EE
:103270000000E0002100320098FF0700004F7800B6
:103280001E4078000004E00004003A0042040700F9
:103290000000BE0010408800214088001E407800D9
:1032A000304F9800303380004200DE006140600003
:1032B0000004A200614060000080FB00610060002B
:1032C0004200DD0032338000B1FF2F008100610039
:1032D000010070003033880030408000EB00470070
:1032E0000102780013C0B30000017800A1CAB30046
:1032F00040CB2100C40707000028EF000080FA003F
:10330000000006000600FA00100798002107980048
:103310008F0037002E0090000000E9002007980081
:10332000A2C18000B3C18000703E200001002000D7
:10333000800F5100818F5900030036006000B800F3
:10334000A0C18800B1C188001E0090001040780024
:103350000080FB00E40F500018003200F00F500016
:1033600053003200E10F500064003A0050408000EA
:103370000000E0000D003200A0C18000B1C180005B
:103380001E019000924178008283210002014000DA
:103390000349780061004000E0804800A0C1880037
:1033A000B1C188000A28EF00660037006000B8004D
:1033B000A0C18800B1C18800620037005040800081
:1033C0000000E0000D003200A0C18000B1C180000B
:1033D0001E0190009241780082832100020140008A
:1033E0000349780061004000E0804800A0C18800E7
:1033F000B1C188000A28EF0052003700A2C1800046
:10340000B3C180001000200001002000800F510097
:10341000818F590046003600A0C18000B1C18000F4
:1034200062005000E0805800E4004000408321002A
:103430000080400010407800004F7800A0C180005C
:10344000B1C1800061005000E0805800E4004000FD
:103450004083210000804000104078001047980011
:10346000A0C18000B1C1800062015000E08158001D
:103470008000EB0080832100D5FE07009E007800CD
:10348000810F50002C003A00A2C18000B3C180001F
:103490002000200001002000800F5100818F590082
:1034A000270036001000200000408800250037006B
:1034B000504080000000E0000D003200A0C18000FC
:1034C000B1C180001E0190009241780082832100EA
:1034D000020140000349780061004000E08048009C
:1034E000A0C18800B1C188000A28EF00150037008C
:1034F000100020005040880012003700A0C180005A
:10350000B1C180001E0190009241780082832100A9
:10351000020140000349780061004000E08048005B
:10352000A0C18800B1C188000A28EF00050037005B
:103530000000000003003700000000000100370019
:10354000000000001E0090000000E8001007980036
:103550002E0090000000E0000300340000408000D6
:103560000000E0006BFF32000080FA00000006005F
:103570000000FA0066FC070014C8BF000080FA00D3
:10358000000006001C00FA00300F9800420F98005F
:10359000530F98000040EB00004F78006000B80027
:1035A0003007980041079800EE004700030009002B
:1035B0008018EB00020137003E009000BE0890002A
:1035C00000804000300F98003E0890009040780046
:1035D00000CA2100014878003E08900063004000C6
:1035E0009040780060CA2100014878003E089000B1
:1035F0006400400040E5880000CA210010407800C7
:103600000080FB0065004000CF80DE00300798009E
:10361000410798004E099000DE0990003E0090009E
:10362000CE0090000000510081805900400F9800AA
:10363000510F98000040EB00004F78006000B80088
:1036400010079800210798000B0037001E0090001B
:10365000BE08900000804000104078001E4F4000DF
:103660001E009000AE00900061004000E080480025
:10367000100798002107980000CA21001040780028
:103680000080FB00650040006101B9001E00900051
:10369000AE009000800F5100818F5900EBFF3E007B
:1036A0001E4078000004E0000200320020C0B30099
:1036B000CB00370060CA2100104078000080FB007A
:1036C000E20F500091003200E20F500003003C0076
:1036D0000000E00024003200B2003700E40F500088
:1036E0009D003200A10A2000810F5000AD003A0079
:1036F00041E580006E0047008200200072FB070059
:103700006E4890001FE8B7007E48900020E8B700A0
:103710002E50900021E8B7003E50900022E8B700FC
:1037200010C0B30023E8B700218320009140780047
:103730001FC8BF0080CF50000200320050C0B3004D
:10374000A700370040E580006800400040E58800A1
:1037500000CA210010407800E840500000CA210053
:10376000014878009600370023C8BF00E24F5000A0
:103770000200320050C0B3009900370050CA210047
:103780008040EB000148780040CA21008040EB00F7
:10379000014878003E0890000000E8009040780062
:1037A00030CA2100014878003E0890000080E800FF
:1037B0009040780020CA21000148780012E580007E
:1037C00023E5800080E5800091E580000201400053
:1037D0008381480060E5800071E5800002004000C0
:1037E0008380480010E5880021E5880010E580000E
:1037F00021E580008100D1000080D30050079800AF
:10380000610798003C0037005E019000EE019000D7
:10381000F07F240001002000800F5100818F5900AB
:10382000070036005E019000EE019000F07F290055
:1038300021002000800F5100818F59000E003600BA
:103840005E019000EE019000F07F29002100200031
:10385000800F5100818F5900240036005E019000D6
:10386000EE0190003081290021002000800F5100DE
:10387000818F59001D003E0000CA210010407800D1
:103880008080FB0040E580000002EB0081017800B1
:10389000000178005E009000EE009000C4FB07007D
:1038A00041E5800000CA2100104078000080FB0044
:1038B0000080400040E5880000CA210010407800E8
:1038C0000080FB000000D100004078000080FB0079
:1038D0008000EB005E019000EE01900002004000CD
:1038E00083804800500798006107980000CA2100B3
:1038F0008040EB000148780000CA210010407800A9
:103900000004E000C0FF3A002D003700F0CA21009B
:103910008040EB000148780040E58000904078004E
:10392000E0CA21000148780040E580000000E8007E
:1039300090407800D0CA210001487800C0CA210018
:103940008040EB00014878006000B80080E5880006
:1039500091E588001A00370040E58000904078002B
:1039600030CB21000148780040E580000000E800ED
:103970009040780020CB21000148780010CB210036
:103980008040EB000148780000CB21008040EB0034
:10399000014878006000B80060E5880071E58800A3
:1039A000070037006000B80060E5880071E5880016
:1039B0006000B80080E5880091E588000000000004
:1039C0004E099000DE099000400020000100200018
:1039D000800F5100818F5900F7FE3E000040EB0040
:1039E0000080FA00000006000000FA002E68EF00D8
:1039F0000080FA00000006000200FA002EC8BF0096
:103A00008080FB0082F72A0062CF78000040E80047
:103A10002EE8B7002EC8BF00FC4F50000100360052
:103A20002E68EF001E4078000080FA0000000600BB
:103A30000800FA00889FBE00100798002107980030
:103A4000624798000000EB00000F78000000EB00D8
:103A5000000F78000B0037001E007800AE009000C9
:103A6000008440001E0078009E009000008040000E
:103A700090447800E0FF070000C06C00004C780024
:103A80001E0FE8006E4090000080FB009E0F50006B
:103A9000F1FF3C006E4090000080FB00AE00900003
:103AA000008040008040EB00014878004F04BE00D9
:103AB0000080FA00000006000800FA00889FBE009F
:103AC0001007980021079800624798000000EB005B
:103AD000000F7800C8FF07000000EB00000F78001F
:103AE0000B0037001E0078009E009000008440000C
:103AF0001E007800AE0090000080400090447800E6
:103B0000BDFF070000C06C00004C78001E0FE800ED
:103B10006E4090000080FB009E0F5000F1FF3C00C3
:103B20006E4090000080FB009E00900000804000EE
:103B30008040EB00014878004F04BE000080FA008E
:103B4000000006000600FA00404798004E40900032
:103B50000004E000030032001006200001002000F5
:103B6000010037006000B800008FBE000002EB00CB
:103B7000330020000E01780000002A002100200000
:103B80000BFB0700E2FA07000080FA0000000600C5
:103B90000400FA00F00F200001002000008FBE009A
:103BA0000002EB00330020000E01780000002A0024
:103BB0002100200033FB07001E01BE00100620007C
:103BC00001002000800F5100818F590004003A004D
:103BD0000040EB00DBFF070010C0B300010037001E
:103BE0000040EB000080FA00000006000000FA0030
:103BF0003400200043012000824E22000080290072
:103C0000210020001FFB0700402781005127810071
:103C10000000A2000080700000F0A7000000EA0091
:103C20000000E9004F00DE00004078000080FA004C
:103C3000000006000000FA00ECFF0700804E2200A2
:103C40000080FA00000006001000FA0060079800EB
:103C5000710798006E009000FE009000E00F500089
:103C6000E08F580023003A0040278100512781004F
:103C70001200200003002000820F5000838F5800A4
:103C80001A003A008027810091278100008FBE0032
:103C9000622781007327810080278100912781009E
:103CA0000201400083814800F07F290021002000AC
:103CB000800F5100818F590003003600F0FF24006F
:103CC00021002000008FBE001E01780060278100C7
:103CD000712781002FFB07008000EB002007980070
:103CE000310798002E0090000B0037000000EB0019
:103CF000090037006E009000000178000080240069
:103D00000100200023FB07008000EB004007980023
:103D1000510798004E0090000080FA000000060055
:103D20000200FA00B1FF07000004E00002003A00C0
:103D30000040EB000D0037006000B800C2FF070034
:103D4000000F78001E0078006101B800A0278100F4
:103D5000B1278100800F5100818F5900020032008D
:103D60000040EB000100370010C0B3000080FA00F3
:103D7000000006000000FA000000FE000080FA00CB
:103D8000000006000000FA00402781005127810052
:103D90001200200003002000820F5000838F580083
:103DA00004003A00C0278100D127810000400100B3
:103DB00001003700EFFF07000080FA000000060056
:103DC0000000FA009105800080FF2F000080600055
:103DD0000000A0009005880081058000F0FF280009
:103DE0000080600000C0A0008005880001068000FF
:103DF000F08F2F00008060000080A0000006880087
:103E000001068000F0F82F00008060000040A00054
:103E10000006880041058000F0FF28000080600057
:103E200000C0A0004005880041068000F0F82F0087
:103E3000008060000040A0004006880071058000FE
:103E400080FF2F00008060000000A0007005880047
:103E500061058000F0FF28000080600000C0A00025
:103E6000600588000080FA00000006000000FA00EB
:103E70008300A900B1000700D1FF0700030007007D
:103E8000F90007000080FA00000006000000FA00B8
:103E90000001EB00600420007105200003102000E9
:103EA0008049780081497800824978000002230027
:103EB000100888000621EF006821EF006A21EF005A
:103EC0006C21EF000821EF000070200050088800EE
:103ED0000C21EF000E21EF000080FA000000060028
:103EE0000000FA009823EF009A23EF00A023EF00D0
:103EF000A223EF009021EF009621EF009A21EF001E
:103F00009421EF00A021EF00A221EF000080EB0040
:103F1000900C88000080EB00E00C88000080EB0033
:103F2000F00C88008020EF000000280010048800BA
:103F30008620EF008820EF008A20EF008C20EF0021
:103F40008E20EF009020EF009220EF009420EF00F1
:103F50009620EF009820EF009A20EF009C20EF00C1
:103F60009E20EF00A020EF00A220EF00A420EF0091
:103F7000A620EF004044240040058800404424006F
:103F80005005880040442400600588004044240017
:103F900070058800404424008005880040402400CB
:103FA0009005880040442400A00588004044240077
:103FB000B005880040042000C0058800404424006B
:103FC000D005880040442400E005880040442400D7
:103FD000F0058800404424000006880000442000CA
:103FE0001006880000402400200688004044240079
:103FF00030068800404424004006880040442400E5
:10400000500688004004200060068800000420005C
:104010007006880000442400800688004044240084
:104020009006880040442400A00688000040240038
:10403000B006880040442400C006880000442000E8
:10404000D006880000402000E006880000442400DC
:10405000F006880040442400000788004004200047
:1040600010078800E420EF00F0F32300803C880074
:10407000F0F32300903C8800F0F32300A03C88007C
:10408000F0F32300B03C8800F0F32300D03C88001C
:10409000F0F32300E03C8800F0F32300F03C8800BC
:1040A000F0032000003D8800F0F32300303D88003D
:1040B000F0F32300403D8800F0F32300A03D88008A
:1040C000F0F32300B03D8800F0F32300C03D8800EA
:1040D000F0F32300D03D8800F0F32300E03D88009A
:1040E000F0F32300F03D8800F0F32300103E880039
:1040F000F0F32300403E8800F0F32300503E880098
:10410000D427EF00D627EF00D827EF00DA27EF00FB
:10411000DC27EF00DE27EF00E027EF00E227EF00CB
:10412000E427EF00EC27EF00EE27EF006426EF0016
:104130007826EF000080FA00000006000000FA0078
:10414000100120003033880000012000D0338800A7
:10415000A000200010338800F04D2000B03388000C
:104160007426EF008826EF007226EF008626EF0007
:104170006826EF007C26EF006A26EF007E26EF001F
:1041800001088000F00B2000008160006004200026
:1041900071052000031020008049780081497800D3
:1041A00082497800813C8000F00F2C008080600004
:1041B0000060200001007000803C8800F13E80001B
:1041C000F00F28008080600000C021000100700016
:1041D000F03E8800E13D800000FC2F000080600080
:1041E0007000B300E03D8800713F800000F82F00B0
:1041F000008060003000B300703F8800A13D800067
:1042000000FC2F0000806000B001B300A03D8800DA
:10421000E13E800000F82F0000806000A000B300A5
:10422000E03E8800E13E8000F00F280080806000C2
:1042300000B0200001007000E03E8800000880000F
:10424000000178000260A0006004200071052000D9
:104250000310200080497800814978008249780065
:104260000080FA00000006000000FA009021EF0034
:1042700000E82300900C880000002800A00C8800B3
:104280008860A9009860A800005122008040EB00DF
:10429000014878000080FA00000006000200FA00E1
:1042A000000F78009E007800910C880000512200D9
:1042B0008040EB00014878000080FA000000060012
:1042C0000000FA00900C80000080FA000000060058
:1042D0000200FA00000F78009E007800810C880030
:1042E000005122008040EB00014878000080FA0075
:1042F000000006000000FA00800C80000080FA0038
:10430000000006000000FA00005122008040EB008F
:10431000014878009860A80095E1A8000080FA00A4
:10432000000006000000FA0095E1A9009860A900CD
:104330000080FA00000006000200FA00005122008E
:10434000104F78001E4078000004E00003003200A7
:10435000005122008040EB00014878001E407800A8
:104360000080FA00000006000000FA001051220050
:10437000104078000080FB000080FA00000006007A
:104380000000FA00105122008040EB000148780044
:104390000080FA00000006000000FA0060812000A2
:1043A0005001BE004000BE000080FA000000060080
:1043B0001000FA0040079800510798006207980023
:1043C000730798006000B8006011B800009FBE003D
:1043D0000297BE00F0FF0700009FBE000297BE00DC
:1043E00000000000ECFF07003E025000BE825800B3
:1043F0003E0359009E8359006E00B1004E009000AC
:10440000DE0090006E019000FE0190000020E100AF
:1044100001A8E10002B0E10003B8E100F1FF3900BA
:104420000080FA0000000600000F78009E0078006F
:1044300081418800FFFF37000000FA00A04A2200F7
:1044400080077800204C2200000188000080FA00DC
:10445000000006000800FA00008FBE002207980046
:1044600033079800A00922009F050700201A2200A8
:104470009D05070080002000C01C88009A23EF00E3
:10448000F0002000001D8800A223EF009960A80022
:1044900099E3A8009B43A8000080FA0000000600F2
:1044A0000000FA00000D81006200600000F0A7002B
:1044B0000000EA000000E9004F00DE000080FA0082
:1044C000000006000200FA00000D8100620060009A
:1044D0000000E00009003A008E007800A0092200E8
:1044E000F70507000004E00002003A001E407800D3
:1044F0000300370010C6B3000100370010C6B30038
:104500000080FA00000006000600FA00100798007C
:10451000210798000000EB00000F78000C00370026
:104520002E0090009E007800808F50000D0031001A
:104530001E0090001E00400080007800A0092200AC
:10454000DF0507000004E00001003A001E0FE8004C
:10455000000D8100620060000000E000F0FF32000A
:1045600001003700000000001E0078000080FA0003
:10457000000006000400FA0020479800AE409000BA
:10458000201A22009E050700C104800000002100BF
:10459000008060000000E0000E003A00D11C8000A6
:1045A00000202000008060000000E00008003A00C9
:1045B0008E007800201A2200C10507000004E000E8
:1045C00003003A001E4078000080FB00E01C8800D9
:1045D0009980A8000080FA00000006000600FA009A
:1045E0001007980021079800080037001E0090006F
:1045F000104078009E0090008100E80011079800AC
:1046000080407800201A22007D0507002E009000CF
:1046100000F0A7000000EA000000EA004F00DE0002
:1046200000407800AE0090008100E900210798006A
:104630000004E000EDFF3A00C1048000000021000A
:10464000008060000000E0000E003A00D11C8000F5
:1046500000202000008060000000E00008003A0018
:104660008E007800201A2200950507000004E00063
:1046700003003A001E4078000080FB00E01C880028
:104680009980A8000080FA00000006000000FA00EF
:10469000201A2200360507000080FA0000000600FC
:1046A0000400FA00004F7800110798001E80FB00FC
:1046B00080004000A04C2200008040009E0090003E
:1046C000010878000080FA00000006000200FA00ED
:1046D000889FBE008A9FBE000040EB00004F78001C
:1046E0004A0037001E80FB0080004000A04C2200E2
:1046F00000804000100078000000E000420032001E
:1047000025FF07000205BE000004BE001E80FB005E
:10471000C200DD00404D2200008040001000BE00BD
:104720006011B8000002540081825C0002035D0049
:1047300083835D001E80FB0080004000A04C2200AF
:1047400000804000100078008000EB006011B8008D
:104750000020E10001A8E10002B0E10003B8E1009F
:10476000290036001E80FB00E10F500003003200DC
:10477000E20F50000F0032001C003700D0338000E1
:104780004E00DE00614060000004A2006140600055
:104790000080FB00610060004E00DD00D23380002D
:1047A000F1FF2B008100610001007000D033880010
:1047B0000E003700303380004200DE0061406000B0
:1047C0000004A200614060000080FB006100600006
:1047D0004200DD0032338000B1FF2F008100610014
:1047E0000100700030338800000000001E84FB00D0
:1047F000E9FE07000000BE00C241DD00424D22007C
:10480000028141000089BE001E4FE8001E40780072
:10481000E44F5000B3FF36004F05BE004F04BE000A
:104820000080FA00000006000400FA00889FBE0025
:104830008A9FBE008DFD07007BE6A8007BC6A8000E
:104840006646A800D2FC0700004F780034FD070040
:10485000104798001E4078000004E00003003A0072
:104860001E4090000004E00002003A00100020000A
:10487000010037000000EB00204798002E40900018
:104880000004E0002C0032005B00070056FC07002B
:10489000411F200010C0B30081FF07000700370050
:1048A00040CB2100D102070040CB2100E5020700E8
:1048B0002DFA070085FF07002900070014C8BF0074
:1048C0000004E000F6FF3200B3FE07000000BE0067
:1048D00060408800714088000400370040CB210010
:1048E000C202070040CB2100D6020700AAFE070043
:1048F0000205BE000004BE006040800071408000E0
:104900006011B8000002540081825C0002035D0067
:1049100083835D00703E2000010020006011B8001C
:104920000020E10001A8E10002B0E10003B8E100CD
:10493000EAFF3600050037001E4090000004E0004A
:104940000200320066FD07000EFD07000000EB00CC
:104950004F05BE004F04BE000080FA0000000600B4
:104960000000FA00889FBE008A9FBE008AFE0700F2
:104970000205BE000004BE0080408000914080001F
:104980006011B8000002540081825C0002035D00E7
:1049900083835D0040062000010020006011B80004
:1049A0000020E10001A8E10002B0E10003B8E1004D
:1049B0000D00360078FE07000000BE008040880031
:1049C00091408800E1FF21000040EB002D0407002A
:1049D000A450220053C0B30000017800A1CAB30064
:1049E00040CB2100080207004F05BE004F04BE0067
:1049F0000080FA00000006000000FA000043EB000F
:104A0000C55A2200645A220043592200C25722008C
:104A10002156220040CB210060010700635B220089
:104A200012002000A1CAB30040CB21009201070070
:104A3000635B220022002000A1CAB30040CB21000A
:104A40008D010700435D220032002000A1CAB3009F
:104A500040CB210088010700635F2200A2002000F4
:104A6000B1CAB30040CB210083010700A36122003B
:104A7000820A2000A1CAB30040CB21007E010700BA
:104A80000363220042002000A1CAB30040CB2100F2
:104A9000790107006365220082B52100B1CAB30025
:104AA00040CB2100740107006365220082B521001C
:104AB000A1CAB30040CB21006F0107000080FA00BB
:104AC000000006000600FA00100798004147980011
:104AD000122881004E4090000080FB00800078008A
:104AE0001E00900002000100000F78001E007800F8
:104AF0000080FA00000006000400FA00000F7800B1
:104B000021479800322881002E4090000080FB0051
:104B1000800078001E007800020001000000EB0019
:104B20000080FA00000006000000FA00E42781007F
:104B300002092D003300200000A0250021262000BE
:104B4000040001000080FA00000006000000FA00E6
:104B50000080FA00000006000000FA0040288100F2
:104B6000000001000080FA00000006000A00FA00C0
:104B7000000F7800214798002207980063479800AB
:104B800044079800AE009000314088006E409000CD
:104B90000080FB00800078004E009000D9F90700EB
:104BA0000080FA00000006000C00FA0010079800D0
:104BB0004147980032079800034F98005407980027
:104BC0000040EB00004F780087FB07000E027800E2
:104BD00013C0B3003E019000A1CAB30040CB210036
:104BE000890107000080FA00000006001A00FA00A0
:104BF000000F980021579800220F980063579800E3
:104C0000440F980021FB2A000F000900315F780053
:104C10000E01B1000E02780003C1B3002E0990000E
:104C2000A1CAB30040CB2100770107000080FA0041
:104C3000000006000A00FA00000F780021479800E3
:104C4000220798006347980044079800B0F60700D1
:104C500010C0B30014E8B7000080FA00000006009E
:104C60000C00FA001007980041479800320798009E
:104C7000034F98005407980010C0B300004F78000D
:104C8000A3F607000040EB00004F78000E0278000A
:104C900013C0B3003E019000A1CAB30040CB210075
:104CA000590107000080FA00000006001800FA0011
:104CB0007007980001579800120F9800435798000A
:104CC000340F9800DBFB0700000F78008E50900037
:104CD000A0CAB30080CF500023003A003E089000E5
:104CE000104078000080FB008000EB00C801DD0070
:104CF000020020003E0890000000E800104078000C
:104D00000080FB008000EB00C000DD000000200000
:104D100000017100818171003E0890000080E80070
:104D2000104078000082FB008002EB004828DD0084
:104D3000C820DE00810070004820DD000001710005
:104D4000818171003E0890006300400010407800AF
:104D50000080FB008000EB0000007100818071008A
:104D6000404188005141880040418000514180000D
:104D7000E00F5000E08F580011003A001E0178004B
:104D8000824990008381FB00124A90000482FB005C
:104D90004822DD008481710003007800A249900060
:104DA0008381FB00324990000281FB004811DD0045
:104DB00002817100820078004041880051418800E2
:104DC00040418000514180009FFB07001007980080
:104DD000E4004700040009008018EB004041800017
:104DE000514180004808DE000040780040479800AC
:104DF00040418000514180004008DE0000407800C2
:104E00005047980040418000514180004809DD0032
:104E10004800DE0000007100C808DE000040780095
:104E20006047980040418000514180000040780078
:104E3000704798001E017800824990008381FB0032
:104E4000124A90000482FB004822DD008481710038
:104E500003007800A24990008381FB003249900052
:104E60000281FB004811DD000281710082007800A0
:104E70004808DE0000407800004F98001E017800CE
:104E8000824990008381FB00124A90000482FB005B
:104E90004822DD008481710003007800A24990005F
:104EA0008381FB00324990000281FB004811DD0044
:104EB00002817100820078004008DE000040780026
:104EC000104F98001E017800824990008381FB00FA
:104ED000124A90000482FB004822DD0084817100A8
:104EE00003007800A24990008381FB0032499000C2
:104EF0000281FB004811DD00028171008200780010
:104F00004809DD004800DE0000007100C808DE002E
:104F100000407800204F98001E01780082499000E0
:104F20008381FB00124A90000482FB004822DD00CE
:104F30008481710003007800A24990008381FB0006
:104F4000324990000281FB004811DD0002817100AE
:104F50008200780000407800304F98001E009000DA
:104F60004800DE0000407800404F98001E0090008E
:104F700000407800504F98007E009000E400470009
:104F800001027800A3C0B3001E099000A1CAB300BB
:104F90009D0007000080FA00000006000E00FA00E5
:104FA000000F780011079800220798003307980037
:104FB0004407980055079800464F98001E0090003F
:104FC0000000E000090032002E0090000000E00028
:104FD000060032003E0090000000E00003003200B6
:104FE0004E0090000000E00002003A002000200087
:104FF0001F003700C12D20001E804000BA020700AC
:105000001E0078009E009000210099001E0078008C
:10501000AE009000310099001E007800BE009000A4
:10502000410099001E007800CE00900051009900C8
:105030001E007800DE009000610099001E007800DC
:10504000403EB000CE48900001487800E11C2000AE
:105050001E8040004F0207001E0078006602070015
:105060001E00780040009100000001000000EB00ED
:105070000080FA00000006000A00FA0010079800FD
:105080004147980032079800430798000040EB0022
:10509000004F78000040EB00004F780023003700FD
:1050A0001E80FB001E0190006600B9000000780021
:1050B0000011B000620078000000E0001A003A0021
:1050C0001E80FB001E0190006600B9000000780001
:1050D00000004100E010B000CE4090000148780090
:1050E0001E80FB001E0190006600B90000007800E1
:1050F000000041000011B000BE00900001087800DF
:105100001E80FB001E0190006600B90000007800C0
:10511000000041002011B000CE009000010878008E
:105120000000EB00050037001E4FE8001E4078002D
:10513000FF4F5000DAFF3600200020000080FA0008
:10514000000006000800FA00100798004147980088
:10515000320798000040EB00004F78002400370031
:105160001E80FB001E0190006600B9000000780060
:105170000011B000E20078003E009000808F5000E7
:105180001A003A001E80FB001E0190006600B90064
:105190000000780000004100E010B0008040EB000B
:1051A000014878001E80FB001E0190006600B900D7
:1051B00000007800000041000011B0008000EB000A
:1051C000010878001E80FB001E0190006600B900F7
:1051D00000007800000041002011B0008000EB00CA
:1051E000010878000000EB00050037001E4FE800C2
:1051F0001E407800FF4F5000D9FF360020002000ED
:105200000080FA00000006001200FA004007980033
:10521000214F980062079800634F9800040F980090
:10522000AE489000A0CAB30080CF500004003A00FE
:105230006E4890000080FB006600400001003700CF
:1052400060002000200798004E009000C02DB000A4
:105250004702070030079800AE0090003E00900023
:10526000808F50005E0031000000EB0010079800B6
:105270002E4890000080FB009E00900000804000BF
:10528000100798006E0090004800DE009E0090001D
:105290000080400010079800EE009000F00F200002
:1052A000008060009E009000008040001007980081
:1052B0006E4890000080FB009E009000008040003F
:1052C00010079800AE489000A0CAB30080CF5000ED
:1052D00010003A000040EB00004F78000900370052
:1052E0001E80FB008E089000008040001040780077
:1052F0000080FB009E009000008040001007980096
:105300001E4FE8006E4890009E40780080CF50000D
:10531000F3FF39004E009000C02DB000AE48900061
:10532000370207006E0090004800DE0080407800E1
:105330004E009000C02DB000310207006E009000BA
:10534000804078004E009000C02DB0002C02070075
:105350004E009000C02DB000EE48900028020700DB
:10536000AE489000A0CAB30080CF50000F003A00B2
:105370000040EB00004F7800080037001E80FB0063
:105380008E08900000804000904078004E00900011
:10539000C02DB0001A0207001E4FE8006E489000B2
:1053A0009E40780080CF5000F4FF39001E0090002E
:1053B0004800DE00804078004E009000C02DB00014
:1053C0000F0207001E009000804078004E00900001
:1053D000C02DB0000A0207000000EB0001003700FA
:1053E000200020000080FA00000006000800FA00FB
:1053F000300798003E0090001A0007001007980040
:105400003E00900026010700200798001E00900033
:105410000000E00003003A002E0090000000E000D1
:105420000300320020002000000F78000200370047
:105430000000EB00000F78001E0078000080FA00EA
:10544000000006000200FA00000F78001E0078003D
:1054500050009100000001000000EB000080FA0005
:10546000000006000A00FA00881F78004007980034
:105470004E009000200191004E00900080C0EB0093
:1054800002000100200798000040EB001047980040
:10549000FA0037001E4090000080FB00CE00900014
:1054A00061417800624798004E00900070A0910022
:1054B000E20F50007C003200E20F500005003E0079
:1054C0000000E00008003200E10F50005B003200F5
:1054D000E7003700E30F50007C003200E40F50007B
:1054E00084003200E20037004E00900080409200BD
:1054F0004E00900071F899004E009000904092008C
:105500004E00900001409A004E009000A040920092
:105510004E00900011409A004E009000EE40900026
:1055200021409A004E009000F0F89100A0CAB3000C
:1055300080CF5000050032004E009000F0F891003E
:10554000B0CAB30080CF5000C6003A004E009000B1
:10555000F0F891004E00900011D09B004E0090009A
:10556000004092000080FB00C800DD004E0090006B
:10557000104092000080FB00010070008000780065
:105580004E00900011A899004E009000A04092009B
:105590004E00900041D09B004E0090008000EB0038
:1055A00031A89A000040EB00004F78000C00370053
:1055B0004E009000B0A892001E80FB004E019000AB
:1055C000E00FB00000004100104090000080FB00A0
:1055D000808040004E00900031A89A001E4FE800E5
:1055E0001E407800E34F5000F1FF36004E0090005F
:1055F00040D093000004E000090032004E0090000B
:1056000090D09300B0CAB30080CF500004003200A5
:105610004E0090001100200071A099000300370097
:105620004E0090002100200071A099004E009000D3
:105630008040EB0001D09B008D0037004E009000B1
:1056400000D093008080FB004E019000810041005B
:105650006E419000D2D09B008040E8004E00900048
:1056600001D09B004E009000B0A892006E409000C8
:105670000080FB00808040004E00900031A89A001E
:105680004E00900080D093004E00900040D09300D8
:1056900080CF500075003A004E009000210020009D
:1056A00071A09900720037006E4090000080FB00EE
:1056B000C800DD004E00900021A89A004E00900026
:1056C0003100200071A09900690037004E00900061
:1056D000A0A892006E4090000080FB008100700046
:1056E0004E00900021A89A004E009000410020003A
:1056F00071A099004E009000B0A892004E0090005A
:1057000020A89200808F500052003A000000EB0069
:10571000100798004C0037004E0190001E009000CA
:105720006600B900000078002011B0006200780027
:105730000000E000410032004E0190001E00900089
:105740006600B90000007800E010B000E240780088
:105750004E00900010D0930080CF500037003A00E8
:105760004E0190001E0090006600B9000000780015
:105770000011B00062007800E10F40001A00320012
:105780004E0190001E0090006600B90000007800F5
:105790000011B000E20078004E00900010A89100C7
:1057A000808F5000100032004E009000403EB0004C
:1057B000104078000004E000200032004E0190000C
:1057C0001E0090006600B900000078000011B000D3
:1057D000620478004E00900010A89100BC00070001
:1057E000800F540015003A004E0190001E009000FA
:1057F0006600B900000078002011B000E2027800D5
:105800004E009000531D2000808141004E0090000A
:1058100040D193004E00900090A891004E0090005F
:1058200010D09300030278008241780001017800D3
:10583000804078004E009000050001001E0090009E
:105840000000E800100798001E009000FF0F5000B5
:10585000B1FF34004E009000E01CB0004D00070086
:1058600003003700000000000100370000000000C6
:105870001E4090000040E800104798001E40900035
:105880008080FB002E009000808F500001FF3900C7
:105890000000EB004F0478000080FA0000000600D2
:1058A0000A00FA00400798004E009000C02DB0009A
:1058B000A3000700000F78001E0078000000E00041
:1058C00031003200F01F20009E007800808F5000D1
:1058D0000200360000202000000F78004E009000EB
:1058E0006000910000000100200798002E00900049
:1058F0009E0F500002003100AE009000010F7800B2
:105900001E0078000000E0001D0032000040EB00A7
:10591000204798000C0037002E4090008080FB004C
:10592000A02A2200808040004E009000C02DB000D0
:10593000E30007000004E00003003A002E4090005E
:105940000040E800204798002E4090000080FB00B7
:105950009E0F5000F0FF39004E0090003001910082
:105960001E0078000040780080407800A02A2200C5
:1059700002000100300798003E009000030037004D
:1059800040002000010037000000EB000080FA001A
:10599000000006000200FA00000F78001E007800E8
:1059A0008000EB00010878001E0078008040EB00CA
:1059B000314098001E0078008000EB002100980024
:1059C0001E0078008040EB00614098001E007800C7
:1059D0008000EB00310099001E0078008000EB0091
:1059E000410099001E0078008040EB0021409800A3
:1059F0000080FA00000006000400FA00100798007A
:105A00000040EB00004F7800190037001E80FB00BB
:105A10001E0190006600B9000000780000004100FF
:105A2000E010B0008040EB00014878001E80FB00D1
:105A30001E0190006600B9000000780000004100DF
:105A40000011B0008000EB00010878001E80FB0010
:105A50001E0190006600B9000000780000004100BF
:105A60002011B0008000EB00010878001E4FE80014
:105A70001E407800FF4F5000E4FF36000080FA001F
:105A8000000006000400FA00004F7800110798009B
:105A90001E80FB004D00DD00800078001E0190009C
:105AA000F0FF210000006100010070000080FA009A
:105AB000000006000200FA00000F78001E007800C7
:105AC0004D00DE00004078000080FA000000060073
:105AD0000200FA00000F7800F0FF21001E006000B5
:105AE0000080FA00000006000200FA00000F7800B3
:105AF0001E00780001102000010878009E80E80058
:105B00001E007800210099009E80E8001E007800A9
:105B1000110099001E007800B00091000110A00053
:105B2000310099001E00780030019100E1FF2F0044
:105B300081006100310099000080FA000000060039
:105B40000200FA00881F7800000F78001E0078001D
:105B500010007800000478001E00780004000700A0
:105B6000000054004F0478000080FA000000060096
:105B70000400FA00100798000000EB00000F780006
:105B80001E00900030009100610060000000E00005
:105B900018003A001E009000900091001E00900036
:105BA00020009100808F5000080036001E009000F9
:105BB00010009100800078001E00900020009100ED
:105BC00000805000000F78000A0037001E0090008F
:105BD000900078001E0090001000910000017800F5
:105BE0001E00900020009100000051000080400045
:105BF000000F78001E0078000080FA000000060008
:105C00000400FA00000F7800214798001E00780079
:105C100030009100610060000000E00002003200EE
:105C200010C0B300240037001E007800200091004F
:105C3000AE409000014878001E00780020009100DE
:105C40008000E8001E007800210099001E00780006
:105C5000A00091001E81E8001E007800100078006E
:105C600000004100808F500003003A009E80E80051
:105C70001E007800210099001E007800300191007C
:105C8000D1FF2F0081006100310099001E007800D3
:105C9000A00091001E00780010009100808F50003D
:105CA00004003A001E007800B00091000100A0003E
:105CB000310099000040EB000080FA00000006006F
:105CC0000400FA00000F7800110798001E00780009
:105CD00030009100620060000000E000020032002D
:105CE00010C0B300250037001E007800100091009E
:105CF000904078001E009000014878001E00780057
:105D0000100091008000E8001E007800110099004A
:105D10001E007800900091001E81E8001E007800AF
:105D20001000780000004100808F500003003A000E
:105D30009E80E8001E007800110099001E00780087
:105D400030019100E1FF2F008100610031009900D6
:105D50001E007800A00091001E0078001000910045
:105D6000808F500004003A001E007800B0009100BF
:105D70000110A000310099000040EB000080FA0003
:105D80000000060034080000001000008000000041
:105D90002C08000002000000800000002408000021
:105DA0000400000082000000FFFFFF00FF00000071
:105DB000341800008004000080000000000800008B
:105DC0000C000000800000002E080000020000000F
:105DD00080000000E82400001400000080000000A3
:105DE00010250000020000008000000016080000DE
:105DF0000800000080000000AA240000200000002D
:105E00008000000030080000020000008200000056
:105E1000FFFF0000FC2400000E00000082000000D4
:105E20002A225000226222008422BA0022EE22009E
:105E3000462300009A2000001002000080000000AD
:105E4000320800000200000082000000F0000000A4
:105E50001E0800000600000080000000CA240000A8
:105E60001E000000800000000A250000060000005F
:105E700082000000616C6900766500000C0800007B
:105E80000A00000080000000B41C0000E6030000CF
:105E900080000000280800000400000080000000CE
:105EA000AA220000000200008000000000000000A4
:105EB00000000000211000004220000063300000BC
:105EC00084400000A5500000C6600000E77000009C
:105ED00008810000299100004AA100006BB1000078
:105EE0008CC10000ADD10000CEE10000EFF1000058
:105EF0000402000006040000572D0000200B0000E3
:105F00001701000005080000060300000506000058
:105F1000172B000015220000381600000A0C0000A4
:105F20000122000000020000090600000502000036
:105F30000907000005030000010200000105000040
:105F4000080100001605000007170000041C0000EF
:105F5000042400000C0B0000130D000027010000BA
:105F60000309000000000000000000006E000000B7
:105F7000A0A000004F500000544F00005F420000FE
:045F80004C5200007F
:108000000000000000000000009002000490020048
:10801000089002000C9002001090020014900200E0
:10802000189002001C900200209002002490020090
:10803000289002002C900200309002003490020040
:10804000389002003C9002004090020044900200F0
:10805000489002004C9002005090020054900200A0
:10806000589002005C900200609002006490020050
:10807000689002006C900200709002007490020000
:10808000789002007C9002008090020084900200B0
:10809000889002008C900200909002009490020060
:1080A000989002009C900200A0900200A490020010
:1080B000A8900200AC900200B0900200B4900200C0
:1080C000B8900200BC900200C0900200C490020070
:1080D000C8900200CC900200D0900200D490020020
:1080E000D8900200DC900200E0900200E4900200D0
:1080F000E8900200EC900200F0900200F490020080
:10810000F8900200FC90020000910200049102002D
:10811000089102000C9102001091020014910200DB
:10812000189102001C91020020910200249102008B
:10813000289102002C91020030910200349102003B
:10814000389102003C9102004091020044910200EB
:10815000489102004C91020050910200549102009B
:10816000589102005C91020060910200649102004B
:10817000689102006C9102007091020074910200FB
:10818000789102007C9102008091020084910200AB
:10819000889102008C91020090910200949102005B
:1081A000989102009C910200A0910200A49102000B
:1081B000A8910200AC910200B0910200B4910200BB
:1081C000B8910200BC910200C0910200C49102006B
:1081D000C8910200CC910200D0910200D49102001B
:1081E000D8910200DC910200E0910200E4910200CB
:1081F000E8910200EC910200F0910200F49102007B
:10820000F8910200000000000000000000000000E3
:10821000000000000000000000000000000000005E
:10822000000000000000000000000000000000004E
:10823000000000000000000000000000000000003E
:10824000000000000000000000000000000000002E
:020000040005F5
:045E0000F77F000028
:045E2000F6FFFF008A
:045E300089FFFF00E7
:045E3800A3FFFF00C5
:045E40009FFFFF00C1
:045E4800FFFFFF0059
:045E5000DFFFFF0071
:045E5800FFFFFF0049
:00000001FF
