:1000000000100400000000007C1100008E110000B0
:1000100000000000841100009611000000000000A4
:1000200000000000000000000000000000000000D0
:10003000000000005011000000000000000000005F
:1000400000000000000000000000000000000000B0
:1000500000000000E4110000A611000000000000F4
:100060000000000000000000000000000000000090
:1000700000000000000000004C1100000000000023
:100080000000000000000000000000000000000070
:100090000000000000000000000000000000000060
:1000A0000000000000000000000000000000000050
:1000B0000000000000000000000000000000000040
:1000C0000000000000000000000000000000000030
:1000D0000000000000000000000000000000000020
:1000E0000000000000000000000000000000000010
:1000F0000000000000000000000000000000000000
:1001000000000000000000000000000000000000EF
:1001100000000000000000000000000000000000DF
:1001200000000000000000000000000012120000AB
:1001300000000000000000000000000000000000BF
:1001400000000000000000000000000000000000AF
:10015000000000000000000000000000000000009F
:10016000000000000000000000000000000000008F
:10017000000000000000000000000000000000007F
:10018000000000000000000000000000000000006F
:10019000000000000000000000000000000000005F
:1001A000000000000000000000000000000000004F
:1001B000000000000000000000000000000000003F
:1001C000000000000000000000000000000000002F
:1001D000000000000000000000000000000000001F
:1001E000000000000000000000000000000000000F
:1001F00000000000000000000000000000000000FF
:102000000F4922000E7F24000E018800000000000E
:10201000000020000000E00002003200000120006B
:102020002002880014000700030107000000E00000
:1020300003003A00806E22000100200002003700F9
:102040000000200001002000810F7000010032001C
:1020500014000700000020000000E0000200320031
:102060000000020000000000B21D0200000000009D
:102070000040DA000000FE004440A90000032000F8
:102080000000E000030032000020200090018800E2
:102090004440A800000006008A1F78008B1F7800CB
:1020A00000000600A1028800800478000000EB0018
:1020B0001F003700E284440054A0B4009905BA0020
:1020C000E284440054A0B4009906BA00E2844400BB
:1020D00054A0B4000006EB00476FDE00FD07B2001D
:1020E000AE018800636CE10003003A00EAFF0700DC
:1020F0000000EB000E003700606CE10008003A00C1
:10210000004DEB000A05E800020039003420EC0025
:102110000AF0A0008B05E900F9FF3E00040037003B
:102120006168E100010032000086EB000B0007004F
:1021300019C7BA001905BA000E04E00003003A00FE
:102140000A00E000DBFF3A0000000600FE07B200D4
:10215000AE0288008A047800F5FF37000CD0A30097
:10216000E20F4D001C00390089027800354DBA009D
:102170000A05E800020039003420EC000AF0A00053
:102180008B05E9000F003200254DBA000A05E80072
:10219000020039003420EC000AF0A0008B05E900B1
:1021A000080032000C00E0000600320015CDBA0035
:1021B0000A05E800020039003420EC000AF0A00013
:1021C0008B05E9008984E80054A0B4000B00E0000E
:1021D000E2FF3A00000006009902BA00055D7800AF
:1021E0008B05E900F7FF3200C82ADE00055D7800A4
:1021F0008B05E900F3FF32000C00E000F1FF320034
:1022000019DDBA00EEFF3700D21C04000000000008
:102210000A1C040000000000AC1C040000000000C8
:10222000781C040000000000521C040000000000A4
:10223000161C040000000000CC1C0400000000007C
:102240004E1E0400000000004C1E040000000000B0
:102250003E1E040000000000341E040000000000C8
:102260002C1E040000000000881F04000000000075
:102270004A1F040000000000321F0400000000009C
:10228000801F0400000000005E1F0400000000002A
:10229000541E0400000000008A80A90000400600CF
:1022A000809FBE00849FBE00869FBE00608120008C
:1022B0003002BE002003BE0061024200E0824A00FC
:1022C00060034B00E0834B000498BE000690BE0004
:1022D000F04822001048E80011C0B3000000E900F7
:1022E000014878008860A9004F03BE004F02BE007D
:1022F0004F00BE00004006003600F8008020A90014
:102300000000EB00410507003600F8003A05070021
:102310008040A900100020003C0507003600F800AE
:102320008060A90020002000380507003600F80072
:102330008080A90030002000340507003600F80036
:102340008600A90070002000300507003600F80064
:10235000809FBE00829FBE00849FBE00869FBE00FD
:102360000200FA0060222200100078006200600083
:102370000C003A008F80E90000122200630A070077
:102380000004E00003003A00EFF897000180FB0032
:10239000E01C8800602222001000780062006000CB
:1023A000010032009980A9008980A9000080FA000C
:1023B0004F03BE004F02BE004F01BE004F00BE00E3
:1023C0003600F900004006003600F800809FBE008D
:1023D000829FBE00849FBE00869FBE00881F78003B
:1023E0009A03AB000600320088012200F11C800035
:1023F00008007800150A07009A03AB00FBFF3A00BB
:102400008960A9009A23A9004F0478004F03BE00F9
:102410004F02BE004F01BE004F00BE003600F90063
:10242000004006009A23AB00010032009A23A90065
:102430009020A900004006000000050009003700B8
:1024400030427800B1417800834F520004003200DE
:1024500010002000060031000080EB0000000600A4
:102460000201E9000200E000F5FF3A000000EB0085
:10247000000006008001780002003700B1597800A2
:102480000201E9000200E000FCFF3A000000060043
:10249000889FBE008A9FBE008C1F780002067800CD
:1024A00002802F00000161006108B800C004DD0057
:1024B000080020006110B8000004740081847400DA
:1024C0000800BE00E70007006055B8000A0146009A
:1024D0008B00D1000A80D3000000440081804C00B2
:1024E000260107000A20B0000B80B0000000210088
:1024F00001002000800F5500818F5D00F3FF3A003E
:102500002D68EF000000EB004F0678004F05BE007D
:102510004F04BE0000000600889FBE008A9FBE00D8
:102520008C9FBE000004BE000305780004067800FE
:102530000C00E00001003A003C0020000A00E0002E
:102540001700320082057800EDFF2F008A01780025
:102550008C0F5500010036008C0178000B017800CB
:102560000800BE00D4000700808545008880660012
:102570006149B800C014DD00080020006109B800FE
:10258000020474008384740062044400E0844C00FC
:102590008A0F500002003E0000055500EBFF3A0094
:1025A0000000EB004F06BE004F05BE004F04BE000A
:1025B00000000600889FBE0004802F000002620019
:1025C0006108B800C004DD00080020006120B800E8
:1025D00000047400818474000002EB000800BE0057
:1025E000CDFF070028418800394188002D68EF00A1
:1025F0000000EB004F04BE0000000600881F7800BA
:1026000002047800244180003541800006802F00BC
:10261000000363006109B800C010DD000000200065
:102620006131B8000200700083807000840F500098
:10263000858F58000400320003002100228320000F
:102640000400BE00DBFF0700020021002183200000
:102650000800780079FF07004F04780000000600AA
:102660000010FA000041EB002DC8BF00E14F500000
:102670001E003A002041800031418000E10F4000FF
:10268000E08F48001900320003002100228320005F
:102690007FFF07000041EB002C48E20013003200EE
:1026A00000002F0080804700FF0709008018EB0022
:1026B000030021000081470020418000314180005B
:1026C000BCFF070002002F000F01410020418000E5
:1026D00031418000C9FF07000001780002F0A70027
:1026E0000201EA000201EA004F11DE000200FB00D5
:1026F0000080FA0000000600889FBE008A9FBE008E
:102700008C9FBE000004BE0082067800030678009D
:1027100002802F00000161006148B800C005DD00A3
:102720000A0020006110B800000575008185750061
:102730002041800031418000800F5500818F5D0075
:1027400009003200C6FF070080007800100020005A
:102750000100E0000F003A00030021002283200066
:102760000A00BE0093FF0700F07F20000004640011
:102770000804440021832000010044000C0178007B
:102780008D0078003BFF070010C0B3002DE8B700B4
:102790000000EB004F06BE004F05BE004F04BE0018
:1027A00000000600E6874700889FBE008A9FBE00A3
:1027B0008C9FBE008E1F78000004BE0002057800CA
:1027C0006000B800F0B79F0081BF9F000006EB00DB
:1027D0000A00E0001C0032004E002000EDFF2F0038
:1027E0008A017800E40F5500010036008E01780060
:1027F000728157000800BE002F0007008005780096
:102800006159B9008C00780072805700B50007004C
:1028100000067800088166006148B800C004DD0049
:10282000080020006110B800000474008184740066
:1028300062044400E0844C008A8F550002003E0090
:102840000B055500E6FF3A000C0078004F077800B2
:102850004F06BE004F05BE004F04BE006F00B10022
:1028600000000600213B8800103B88003000240057
:10287000003B880050052000303B8800A00A200063
:10288000303B88000500FC0050052000303B8800EC
:10289000A00A2000303B880061E7A800000000008B
:1028A000000000006007E200FEFF3500000022008B
:1028B0006007B600000006000400FA00889FBE0012
:1028C000000478000800A100610BB800C032DD00F0
:1028D000040020006143B800060272008782720083
:1028E00004045000858458000580FB00A002880085
:1028F0001403BA008003EB001482BA008002EB00DC
:102900006000B800C0BF9F00D1BF9F0041C0B300AE
:1029100088C050000180FB00830F5000010034008C
:102920008340780086FF9F004838DD004833DE0092
:1029300006037000C83BDE0096FF9F00A4FF9F00C7
:102940008181FB004240A900080034000800E90032
:10295000E8805700008040008000EB00505978006C
:102960008100E800838F5000FCFF350003007800F1
:102970004F04BE000080FA0000000600230024007F
:10298000033B8800A30F2000A3028800213B88009E
:10299000103B88000000EB000410200092409000E3
:1029A000C808DD009281FB00818071000108BB0036
:1029B000A24090008180FB000188BB0064014100BF
:1029C0000080E800840F5000F4FF3A000500FC008E
:1029D00050052000303B8800A00A2000303B8800D2
:1029E00061E7A80000000000000000006007E200AE
:1029F000FEFF3500000022006007B6000000060060
:102A0000889FBE008A1F780000C4EB000002EB0024
:102A10000045EB0009082000400BDE000700200005
:102A20008641780080027800834F54000300320012
:102A30000383FB00A6028800034478009501BA00D6
:102A40009582BA0003497800C819DE001341980046
:102A5000254198003A4198000402E80064014100D1
:102A6000890F52000300320062004000E0804800FD
:102A7000E9FF37000000EB004F0578004F04BE006F
:102A800000000600889FBE008A9FBE008C9FBE008B
:102A90000205BE000001EB008A0F50008B8F58002A
:102AA0000B0031000004BE000C0021000D002000CE
:102AB0000800BE006BFF0700000178000804460014
:102AC00089844E00880F5500898F5D00F8FF3E0015
:102AD000020078004F06BE004F05BE004F04BE0046
:102AE00000000600E00F5100E08F59001600320090
:102AF000000378000100780085772A00CC03DE000F
:102B00003682FB00C420DE0081806B0081804000A3
:102B1000E58078004400DD00808068004C08DE001D
:102B2000040268006F0262000402420065007A003D
:102B3000C408DD000100680061015100E081590016
:102B4000EEFF3A00010037000100780000000600A7
:102B5000889FBE008A9FBE008C9FBE0081047800C3
:102B60000900E000630034000408E20061003A005C
:102B700000057800688421007C3E20000D002000C4
:102B80008904E900B80F1600A88F1E000200360065
:102B9000000CEB00381478003A407800E44F500005
:102BA00013003200F04F500037003200E14F500068
:102BB00044003A000608E2000A0032001800BE0095
:102BC00013C0B300A284210003717800120020001A
:102BD00003002000021C4000039448000628EF0078
:102BE00040003700000CEB00381478003D0037003F
:102BF0000608E2000A0032001800BE0043C0B3001D
:102C0000A28421000371780012002000030020003C
:102C1000021C4000039448000628EF0031003700F2
:102C20001800BE00E10F5000E08F58002D00360064
:102C300062015000E081580064024100E8457A00DA
:102C400063004000684078004800DD008B85FB0091
:102C50008B0570008000EB00A0842100A1FF07001D
:102C60008B0F50001F003A002000200001002000C0
:102C7000B80F1000A88F18001A00360010002000AE
:102C800020408800170037000608E2000A003200E2
:102C90001800BE0003C1B300A284210003717800B4
:102CA0001200200003002000021C40000394480092
:102CB0000628EF000B00370010002000304088008D
:102CC000080037001801BE00A1842100807079003F
:102CD0001000200001002000001C41000194490068
:102CE0000628EF000900E000020034000408E200BA
:102CF000A3FF32004F06BE004F05BE004F04BE00CA
:102D00000000060056FE070014C8BF0000000600C1
:102D1000EE874700889FBE008A9FBE008C9FBE0042
:102D20008E1F7800000678000204BE000040EB0011
:102D3000E40F5100E08F59009A0036006055B8004A
:102D40002D832100688746000A0646009C417800D2
:102D5000834E78003C439000808321000648780031
:102D600064014600020F78000385FB0065054500FD
:102D7000CFD5DE00E00F5500E08F5D000B00320084
:102D80008C0278006000B8000042EB00354242003F
:102D900061004000E0804800800F5500818F5D0099
:102DA000FAFF3E000404E00079003A00E24F5300CD
:102DB0004F00320003003E000604E0001D00320018
:102DC00067003700E44F530057003200A0CAB30039
:102DD000804F530062003A00FA8057000700090054
:102DE000B25878008200B1006FE097001FE8B7008A
:102DF000FFE2970004822000054A7800AFEB9700BD
:102E000016822000074B78003FEA970021822000BD
:102E10008448780016C0B30035822000864A7800C6
:102E20003048E3005C003A00680F4100E8CE5100F2
:102E30005000370023C8BF00E24F500058003A004E
:102E40000040EB0071832100804878008100E90098
:102E5000804878000100E9009C4390000748780012
:102E6000AC4090000000E900014878006E0240008C
:102E7000800078001100BE0034034000A4834800A5
:102E8000F6B79F0087BF9F00E40052003102430065
:102E9000A1824B000400BE0045832100808ABE0051
:102EA0000304E000330032008100D1000080D30031
:102EB00006802B00F7FF2F000003430081834B00A7
:102EC0003401250025002000840F5300858F5B000E
:102ED0003A003E000002EB008381FB0006FE070083
:102EE0001D80FB001E0F4000804EEB0021003700CC
:102EF0000040EB0016842100004B78008603E900B7
:102F0000924B78008680E900124190008248780058
:102F10008100E900804878006000B80010C2880095
:102F200021C2880013003700508421001248780025
:102F30000000E90012419000024878000040EB00D8
:102F400031842100804878008100E90080487800C1
:102F50006022B800F4C1880005C28800050037006F
:102F60006033B800F6C1880007C2880016C2880026
:102F700027C288000A0454008B845C00E40F5400CC
:102F8000E08F5C0070FF3E000040EB000500370062
:102F900020C0B3000300370050C0B3000100370069
:102FA00050C0B3004F0778004F06BE004F05BE006B
:102FB0004F04BE00EF00B10000000600804EEB00A1
:102FC000ECFF3700A084210010407800E24F500051
:102FD00003003200E34F50000C003A0003003700BA
:102FE0002368EF000040EB000900370060842100F7
:102FF000D4FF2F00F5FF2F0030014200A0814A00CE
:103000006500400042FF0700010037000040EB0070
:10301000000006000A00FA00881F780023C8BF00DD
:10302000E14F500033003A001FC8BF000482200067
:1030300014427800138220009341780022822000FD
:1030400012417800C0F79F00D4F79F00E3F79F007C
:10305000F2F79F000183200091407800814F5000DB
:103060001800320068805700020009000018EB00C9
:10307000A0C0B30080FF9F0094FF9F00A3FF9F00AC
:10308000B2FF9F00C1FF9F00510020000040EB00F5
:103090008F0607006882570063C0B3000001780004
:1030A000A1CAB30020C321006A0407000428EF006E
:1030B0006000B80030C2880041C2880010C0B30070
:1030C00002E8B700610020000040EB008006070026
:1030D0006C82570043C0B30000017800A1CAB3005E
:1030E00020C321005B04070020C0B30023E8B70021
:1030F0001B0037000408E20019003200B1FF07008E
:10310000004478000804E00003003A009A01070038
:103110004040880051408800C8F79F00303380004D
:103120004200DE000080EA00610060004200DD0035
:10313000B1FF2F0032338000828060008100700078
:10314000313388006C82570013C0B3000240800006
:10315000A1CAB30020C321003E0407000428EF00E9
:103160004F0478000080FA00000006000400FA0016
:103170006011B8000004E0000200320012062000D6
:1031800003002000E2BF9F00F3BF9F000002EB009E
:10319000330020006481570000002A002100200035
:1031A00055FD07002EFD07000080FA000000060014
:1031B0000400FA00F00F200001002000E0BF9F0093
:1031C000F1BF9F000002EB00330020006481570034
:1031D00000002A0021002000CFFC07000040EB0087
:1031E0006FB99700FFB9970011062000810F5100B9
:1031F000E08F590002003A00DCFF070010C0B30066
:103200000080FA0000000600340020004301200086
:10321000624622000080290021002000BEFC070039
:1032200030238100412381000000A2000080700053
:1032300000F0A7000000EA000000E9004F00DE00F7
:1032400000000600F0FF07006046220000000600B4
:10325000E00F5000E08F58000B003A00322381004D
:10326000432381000000EB00E10F5100E08F590083
:1032700009003A00722381005023810061238100FC
:1032800048FD07000400370000017800008024009A
:103290000100200043FD070000000600DAFF0700E0
:1032A000804078000040EB000104E0000C00320098
:1032B0006000B800E6FF07008000EB009223810069
:1032C000A3238100020168008381680002817100EC
:1032D00002F0A7000201EA000201E9004F10DE003F
:1032E000000006000000EB000040010000000600A6
:1032F0003023810041238100E10F5000E08F58000E
:1033000004003A00B0238100C12381000040010085
:1033100001003700F3FF07000000060081FF2F00C7
:1033200092058000028060000000A00090058800E7
:10333000F0FF2800830580000301600002C0A000A8
:1033400082058800F28F2F000406800004016100CE
:103350000280A00002068800F2F82F000406800018
:10336000840161000340A00003068800440580003A
:103370008401600003C0A00043058800430680006C
:10338000030161000240A00042068800740580002D
:10339000848060000100A00071058800AC00B600C8
:1033A00000C0A00060058800000006007105200034
:1033B0000001EB0060042000031020008049780029
:1033C00081497800824978000002230010088800B3
:1033D0000621EF006821EF006A21EF006C21EF0069
:1033E0000821EF0000702000500888000C21EF0039
:1033F0000E21EF00000006008300A9007000070006
:10340000C6FF0700E9FF0700B00007000000060044
:103410009823EF009A23EF00A023EF00A223EF00F0
:103420009021EF009621EF009A21EF009421EF0008
:10343000A021EF00A221EF000080EB00900C88009B
:10344000E00C8800F00C88008020EF0000002800CD
:10345000100488008620EF008820EF008A20EF000B
:103460008C20EF008E20EF009020EF009220EF00E4
:103470009420EF009620EF009820EF009A20EF00B4
:103480009C20EF009E20EF00A020EF00A220EF0084
:10349000A420EF00A620EF0040442400400588004F
:1034A0005005880060058800700588008005880048
:1034B0004140240091058800A0058800B0058800DF
:1034C00041042000C1058800D0058800E00588007F
:1034D000F0058800000688000344200013068800D9
:1034E0000440240024068800300688004006880036
:1034F00050068800610688000204200072068800D9
:10350000024424008206880090068800A0068800F5
:10351000B4068800C0068800D30688000304B10002
:10352000E3068800F206880000078800110788007B
:10353000E420EF00F0F32300803C8800903C8800FA
:10354000A03C8800B03C8800D03C8800E03C88006B
:10355000F03C8800E5805000013D8800303D880047
:10356000403D8800A03D8800B03D8800C03D8800F7
:10357000D03D8800E03D8800F03D8800103E880086
:10358000403E8800503E8800D427EF00D627EF0049
:10359000D827EF00DA27EF00DC27EF00DE27EF0067
:1035A000E027EF00E227EF00E427EF00EC27EF0031
:1035B000EE27EF006426EF007826EF0000000600FB
:1035C000100120003033880000012000D033880033
:1035D000A000200010338800F04D2000B033880098
:1035E0007426EF008826EF007226EF008626EF0093
:1035F0006826EF007C26EF006A26EF007E26EF00AB
:10360000F20B20000008800000016100600420002F
:10361000710520000310200080497800814978005E
:1036200082497800F30F2C00823C80008281610087
:103630000260200003017100823C8800F20F280024
:10364000F33E80000302610003C021008481710009
:10365000F33E880004FC2F00E53D800085016200F8
:103660007300B300E33D880003F82F00763F80002D
:10367000868261003500B300753F8800A53D80005B
:1036800005026200B401B300A43D8800E63E80005C
:1036900086816100A300B300E33E8800E33E800022
:1036A0000301610003B0200082817100E33E8800C5
:1036B000020880000260A00003102000804978000A
:1036C0008149780082497800000006009021EF00CF
:1036D00000E82300900C880000002800A00C88005F
:1036E0008860A9009860A800E04822000048EB002C
:1036F00000000600900C8800E04822000048EB0023
:1037000000000600900C800000000600800C88007D
:10371000E04822000048EB0000000600800C80001A
:1037200000000600E04822000048EB009860A80076
:1037300095E1A8000000060095E1A9009860A900A5
:1037400000000600E0482200104078000004E0007D
:1037500002003200E14822008048EB000000060031
:10376000F04822001080FB0000000600F048220014
:103770000048EB0000000600648120003400BE0019
:103780002401BE00000006000800FA00889FBE0069
:103790008A9FBE0080BF9F0091BF9F00A2BF9F0075
:1037A000B3BF9F00F4FF07000205BE000004BE0087
:1037B000F1FF070008025000898258000A035900EF
:1037C0008B8359000FB897009FB897002FB99700C7
:1037D000BFB997000020E10001A8E10002B0E100BC
:1037E00003B8E100F2FF39004F05BE004F04BE00F0
:1037F0000080FA0000000600804222008007780066
:103800007800400000018800000006007041880038
:10381000FFFF3700E0112200100078006200600016
:103820000000E9004F00DE00000006000200FA0080
:10383000889FBE008A1F7800800478000104780009
:103840000800E000060032000A122200B9407800A9
:103850000A007800FD0407000804E900FBFF3A00B5
:103860009980AB000B003A009B23AB0008003A00A4
:10387000E880570000122200240507000004E00041
:1038800003003A008FF897000180FB00E01C8800DD
:103890009980A8004F0578004F04BE000080FA0010
:1038A000000006000200FA008040780000122200AA
:1038B000E60407009980AB000B003A009B23AB00A5
:1038C00008003A008F80E900001222000F0507006F
:1038D0000004E00003003A00EFF897000180FB00CD
:1038E000E01C88009980A8000080FA000000060013
:1038F000889FBE008A9FBE008C1F780080057800DC
:10390000010578000004EB00E9112200ACEF2F0064
:1039100009064600080037008A0F540009003100EC
:10392000888045000C007800F80407000004E000DF
:1039300001003A000804E800990078006280600005
:10394000F5FF3200080078004F0678004F05BE00F2
:103950004F04BE00000006000200FA00E011220041
:1039600010007800E200600010C6B30008003A00C2
:103970008F80E90080012200E40407008040780085
:1039800010C6B3000104E00001003A006FF8970090
:103990000080FA00000006000012220087040700E1
:1039A00000000600800122006204070000122200CD
:1039B0006004070080002000C01C88009A23EF00EC
:1039C000F0002000001D8800A223EF009960A800ED
:1039D00099E3A8009B43A800000006000080FB00BC
:1039E00000004000824422000131780000000600FF
:1039F000889FBE008A9FBE008C9FBE008E1F7800ED
:103A0000684422002A4522008044EB00FDFF2B0081
:103A1000BEFF2F000884E8001800E0002A003200F2
:103A200055FF07000A0678001A02BE006033B8008E
:103A3000040250008582580006035900878359000C
:103A4000180078008000EB006011B8000020E10051
:103A500001A8E10002B0E10003B8E1001A0036005D
:103A6000E1CF540003003200E2CF540014003A00CA
:103A70000A003700D03380004E00DE000080EA00EC
:103A8000610060004E00DD00D2338000828066005D
:103A900081007000D1338800090037003033800086
:103AA0004200DE000080EA00610060004200DD00AC
:103AB000323380008200670081007000313388005B
:103AC0002DFF0700008EBE008944E8006405450014
:103AD000E5CF5400CFFF3A004F0778004F06BE00F5
:103AE0004F05BE004F04BE000000060022FF070085
:103AF0000203BE000002BE008240800093408000AE
:103B00000202520083825A0060035B00E0835B0084
:103B100040062000010020006011B8000020E100F4
:103B200001A8E10002B0E10003B8E1000C0036009A
:103B300011FF07008040880091408800E1FF2100CC
:103B40000040EB00E20307008448220053C0B300AA
:103B500000017800A1CAB30020C32100BD01070005
:103B600000000600881F780023FE07007BE6A800FF
:103B70007BC6A8006646A8008DFD07000004E00093
:103B800003003A00C5FD07000004E0002A003A00E7
:103B9000E4000700411F200010C0B3008FFF0700A2
:103BA0001448E2000A003A0028C321000800780007
:103BB00021020700080078003502070015FD070004
:103BC0008BFF0700C9FF07001448E200F7FF32002F
:103BD000E9FE0700604088007140880028C321008A
:103BE000040037000800780013020700080078007E
:103BF00027020700E0FE07000203BE000002BE002D
:103C000062408000734080000202520083825A00AA
:103C100060035B00E0835B00703E20000100200039
:103C20006011B8000020E10001A8E10002B0E1004D
:103C300003B8E100EBFF3600F5FD070097FD070034
:103C40000004E00001003200A9FD07000080EB0045
:103C50004F047800000006008180FB0002248100F0
:103C600002000100000006008180FB002224810088
:103C7000020001000000EB000000060002092D0018
:103C80003300200000A0250021262000D42381003D
:103C9000040001000000060000000600302481003E
:103CA00000000100000006000A00FA00889FBE0024
:103CB0008A9FBE008C1F78000006780001457800BE
:103CC00082057800840478005EFD07000004780017
:103CD000A0CAB300804F550019003A003941900046
:103CE0000281FB008001EB001980FB008000EB00EB
:103CF000C800DD000000200000007100818071001C
:103D0000194190008281FB00020020000200700037
:103D100083807000294290000482FB008002EB0047
:103D20004829DD00C821DE00830171004821DD0043
:103D3000020070008380700040418800514188007B
:103D40004041800051418000E00F5000E08F58005A
:103D50000C003A00084990000281FB00984990004D
:103D6000C819DD0003007100284990000281FB00A2
:103D7000B8499000C819DD008300710040418800F7
:103D800051418800404180005141800030FD0700D2
:103D9000F4805700040009008018EB0042418000C5
:103DA00053418000481ADE0005002000C4EF9F0048
:103DB000401ADE0005002000D4EF9F00C81ADE0084
:103DC000C818DD004812DE0004827000E4EF9F0096
:103DD000F2EF9F00884890008180FB00184A900015
:103DE0004822DD0004817000A84890008180FB001B
:103DF000384A90004822DD0084817000481ADE00B5
:103E00000500200084F79F00401ADE000500200016
:103E100094F79F00C81ADE00C818DD004812DE00C3
:103E200004827000A4F79F00B2F79F00C800DE0074
:103E3000C1F79F00D0F79F0074825700A3C0B30062
:103E40000B017800A1CAB3000C0078000101070043
:103E50004F0678004F05BE004F04BE000080FA00F8
:103E6000000006001000FA007080570081792A00D7
:103E70000F000900315878007082570003C1B30069
:103E8000A1CAB30020C32100F20007000080FA009D
:103E9000000006000200FA000040EB00E0FF9F0077
:103EA0000F82E90013C0B300A1CAB30020C32100F0
:103EB000E80007000080FA00000006000200FA0097
:103EC000889FBE008204780018C0B300A8FF9F003E
:103ED000E3F907000040EB00A0FF9F006682570057
:103EE0008841780009017800A1CAB30020C32100ED
:103EF000D80007004F04BE000080FA000000060052
:103F0000D7F9070010C0B30014E8B700000006009E
:103F1000024088008380FB00040078000CFB07004F
:103F2000000006000043EB00E5E42100C4E42100AA
:103F3000E3E3210042E32100C1E2210020C321008C
:103F40002900070083F8210012002000A1CAB30055
:103F500020C321005B00070083F82100220020001D
:103F6000A1CAB30020C3210056000700A3F421001A
:103F700032002000A1CAB30020C321005100070075
:103F800023F32100A2002000B1CAB30020C3210006
:103F90004C00070003F82100820A2000A1CAB300E8
:103FA00020C3210047000700E3F521004200200064
:103FB000A1CAB30020C321004200070043E521004D
:103FC00082B52100B1CAB30020C321003D00070023
:103FD00043E5210082B52100A1CAB30020C321001E
:103FE00038000700000006000E00FA00000F7800FD
:103FF000110798002207980033079800440798009B
:1040000055079800464F98001E0090000000E00001
:10401000090032002E0090000000E000060032008F
:104020003E0090000000E000030032004E009000CF
:104030000000E00002003A00200020001F003700CE
:10404000C12D20001E804000BA0207001E0078002B
:104050009E009000210099001E007800AE009000A4
:10406000310099001E007800BE00900041009900C8
:104070001E007800CE009000510099001E007800CC
:10408000DE009000610099001E007800403EB00004
:10409000CE48900001487800E11C20001E804000BE
:1040A0004F0207001E007800660207001E0078001D
:1040B00040009100000001000000EB000080FA00C9
:1040C000000006000A00FA00100798004147980017
:1040D00032079800430798000040EB00004F78003B
:1040E0000040EB00004F7800230037001E80FB00EB
:1040F0001E0190006600B900000078000011B000B9
:10410000620078000000E0001A003A001E80FB0008
:104110001E0190006600B900000078000000410018
:10412000E010B000CE409000014878001E80FB00F7
:104130001E0190006600B9000000780000004100F8
:104140000011B000BE009000010878001E80FB0046
:104150001E0190006600B9000000780000004100D8
:104160002011B000CE009000010878000000EB00A4
:10417000050037001E4FE8001E407800FF4F50003A
:10418000DAFF3600200020000080FA000000060060
:104190000800FA001007980041479800320798007D
:1041A0000040EB00004F7800240037001E80FB0029
:1041B0001E0190006600B900000078000011B000F8
:1041C000E20078003E009000808F50001A003A0014
:1041D0001E80FB001E0190006600B9000000780000
:1041E00000004100E010B0008040EB000148780082
:1041F0001E80FB001E0190006600B90000007800E0
:10420000000041000011B0008000EB0001087800C0
:104210001E80FB001E0190006600B90000007800BF
:10422000000041002011B0008000EB000108780080
:104230000000EB00050037001E4FE8001E4078002C
:10424000FF4F5000D9FF3600200020000080FA0008
:10425000000006001200FA0040079800214F980065
:1042600062079800634F9800040F9800AE489000D2
:10427000A0CAB30080CF500004003A006E489000FE
:104280000080FB0066004000010037006000200055
:10429000200798004E009000C02DB0004702070094
:1042A00030079800AE0090003E009000808F5000D4
:1042B0005E0031000000EB00100798002E489000CF
:1042C0000080FB009E0090000080400010079800D6
:1042D0006E0090004800DE009E00900000804000CC
:1042E00010079800EE009000F00F200000806000A2
:1042F0009E00900000804000100798006E489000DB
:104300000080FB009E009000008040001007980095
:10431000AE489000A0CAB30080CF500010003A0011
:104320000040EB00004F7800090037001E80FB00C2
:104330008E08900000804000104078000080FB0054
:104340009E00900000804000100798001E4FE8007B
:104350006E4890009E40780080CF5000F3FF3900F7
:104360004E009000C02DB000AE489000370207000C
:104370006E0090004800DE00804078004E00900003
:10438000C02DB000310207006E0090008040780020
:104390004E009000C02DB0002C0207004E0090008F
:1043A000C02DB000EE48900028020700AE489000F3
:1043B000A0CAB30080CF50000F003A000040EB00CD
:1043C000004F7800080037001E80FB008E08900028
:1043D00000804000904078004E009000C02DB0005A
:1043E0001A0207001E4FE8006E4890009E407800B9
:1043F00080CF5000F4FF39001E0090004800DE001E
:10440000804078004E009000C02DB0000F020700E1
:104410001E009000804078004E009000C02DB0003B
:104420000A0207000000EB00010037002000200016
:104430000080FA00000006000800FA00300798002B
:104440003E0090001A000700100798003E00900000
:1044500026010700200798001E0090000000E000E1
:1044600003003A002E0090000000E000030032003C
:1044700020002000000F7800020037000000EB0051
:10448000000F78001E0078000080FA00000006008F
:104490000200FA00000F78001E0078005000910022
:1044A000000001000000EB000080FA0000000600A0
:1044B0000A00FA00881F7800400798004E0090001C
:1044C000200191004E00900080C0EB00020001002E
:1044D000200798000040EB0010479800FA003700D2
:1044E0001E4090000080FB00CE00900061417800EB
:1044F000624798004E00900070A09100E20F5000BB
:104500007C003200E20F500005003E000000E00099
:1045100008003200E10F50005B003200E700370076
:10452000E30F50007C003200E40F500084003200A2
:10453000E20037004E009000804092004E00900054
:1045400071F899004E009000904092004E0090004B
:1045500001409A004E009000A04092004E00900052
:1045600011409A004E009000EE40900021409A00C9
:104570004E009000F0F89100A0CAB30080CF500028
:10458000050032004E009000F0F89100B0CAB30070
:1045900080CF5000C6003A004E009000F0F8910025
:1045A0004E00900011D09B004E0090000040920001
:1045B0000080FB00C800DD004E009000104092001B
:1045C0000080FB0001007000800078004E00900029
:1045D00011A899004E009000A04092004E0090005B
:1045E00041D09B004E0090008000EB0031A89A0063
:1045F0000040EB00004F78000C0037004E009000A8
:10460000B0A892001E80FB004E019000E00FB000A9
:1046100000004100104090000080FB0080804000BE
:104620004E00900031A89A001E4FE8001E4078000E
:10463000E34F5000F1FF36004E00900040D0930051
:104640000004E000090032004E00900090D093007A
:10465000B0CAB30080CF5000040032004E0090007A
:104660001100200071A09900030037004E00900057
:104670002100200071A099004E0090008040EB00C6
:1046800001D09B008D0037004E00900000D09300B9
:104690008080FB004E019000810041006E4190003F
:1046A000D2D09B008040E8004E00900001D09B00DB
:1046B0004E009000B0A892006E4090000080FB0079
:1046C000808040004E00900031A89A004E0090007B
:1046D00080D093004E00900040D0930080CF5000D7
:1046E00075003A004E0090002100200071A0990052
:1046F000720037006E4090000080FB00C800DD00B3
:104700004E00900021A89A004E0090003100200039
:1047100071A09900690037004E009000A0A8920097
:104720006E4090000080FB00810070004E00900001
:1047300021A89A004E0090004100200071A099002D
:104740004E009000B0A892004E00900020A8920069
:10475000808F500052003A000000EB0010079800D4
:104760004C0037004E0190001E0090006600B9001A
:10477000000078002011B000620078000000E00026
:10478000410032004E0190001E0090006600B9000A
:1047900000007800E010B000E24078004E00900089
:1047A00010D0930080CF500037003A004E019000A7
:1047B0001E0090006600B900000078000011B000F3
:1047C00062007800E10F40001A0032004E019000B4
:1047D0001E0090006600B900000078000011B000D3
:1047E000E20078004E00900010A89100808F5000E9
:1047F000100032004E009000403EB00010407800A3
:104800000004E000200032004E0190001E009000E5
:104810006600B900000078000011B0006204780062
:104820004E00900010A89100BC000700800F5400BB
:1048300015003A004E0190001E0090006600B9007D
:10484000000078002011B000E20278004E009000D5
:10485000531D2000808141004E00900040D1930004
:104860004E00900090A891004E00900010D0930050
:1048700003027800824178000101780080407800CE
:104880004E009000050001001E0090000000E800AE
:10489000100798001E009000FF0F5000B1FF340079
:1048A0004E009000E01CB0004D00070003003700F0
:1048B0000000000001003700000000001E409000D2
:1048C0000040E800104798001E4090008080FB00E8
:1048D0002E009000808F500001FF39000000EB0097
:1048E0004F0478000080FA00000006000A00FA0079
:1048F000400798004E009000C02DB000A3000700B4
:10490000000F78001E0078000000E0003100320047
:10491000F01F20009E007800808F500002003600BB
:1049200000202000000F78004E00900060009100F1
:1049300000000100200798002E0090009E0F5000FC
:1049400002003100AE009000010F78001E007800D8
:104950000000E0001D0032000040EB0020479800FE
:104960000C0037002E4090008080FB008022220047
:10497000808040004E009000C02DB000E300070092
:104980000004E00003003A002E4090000040E800E0
:10499000204798002E4090000080FB009E0F5000A2
:1049A000F0FF39004E009000300191001E007800A9
:1049B0000040780080407800802222000200010040
:1049C000300798003E0090000300370040002000B0
:1049D000010037000000EB000080FA000000060034
:1049E0000200FA00000F78001E0078008000EB0043
:1049F000010878001E0078008040EB0031409800EC
:104A00001E0078008000EB00210098001E00780056
:104A10008040EB00614098001E0078008000EB00B1
:104A2000310099001E0078008000EB0041009900E1
:104A30001E0078008040EB00214098000080FA00C2
:104A4000000006000400FA00100798000040EB0088
:104A5000004F7800190037001E80FB001E019000F7
:104A60006600B9000000780000004100E010B000CE
:104A70008040EB00014878001E80FB001E01900082
:104A80006600B90000007800000041000011B0008D
:104A90008000EB00010878001E80FB001E019000E2
:104AA0006600B90000007800000041002011B0004D
:104AB0008000EB00010878001E4FE8001E407800DF
:104AC000FF4F5000E4FF36000080FA0000000600AF
:104AD0000400FA00004F7800110798001E80FB00C8
:104AE0004D00DD00800078001E019000F0FF2100E5
:104AF00000006100010070000080FA000000060064
:104B00000200FA00000F78001E0078004D00DE0061
:104B1000004078000080FA00000006000200FA0061
:104B2000000F7800F0FF21001E0060000080FA00F6
:104B3000000006000200FA00000F78001E00780056
:104B400001102000010878009E80E8001E00780017
:104B5000210099009E80E8001E0078001100990055
:104B60001E007800B00091000110A00031009900F3
:104B70001E00780030019100E1FF2F0081006100EC
:104B8000310099000080FA00000006000200FA00DF
:104B9000881F7800000F78001E0078001000780051
:104BA000000478001E007800040007000000540094
:104BB0004F0478000080FA00000006000400FA00AC
:104BC000100798000000EB00000F78001E00900016
:104BD00030009100610060000000E00018003A0021
:104BE0001E009000900091001E0090002000910097
:104BF000808F5000080036001E00900010009100C9
:104C0000800078001E00900020009100008050007D
:104C1000000F78000A0037001E0090009000780016
:104C20001E00900010009100000178001E0090000E
:104C3000200091000000510000804000000F78002B
:104C40001E0078000080FA00000006000400FA0050
:104C5000000F7800214798001E0078003000910076
:104C6000610060000000E0000200320010C0B300EC
:104C7000240037001E00780020009100AE40900014
:104C8000014878001E007800200091008000E800B4
:104C90001E007800210099001E007800A0009100FD
:104CA0001E81E8001E00780010007800000041001E
:104CB000808F500003003A009E80E8001E007800BC
:104CC000210099001E00780030019100D1FF2F00D3
:104CD00081006100310099001E007800A000910061
:104CE0001E00780010009100808F500004003A00F0
:104CF0001E007800B00091000100A0003100990072
:104D00000040EB000080FA00000006000400FA00FA
:104D1000000F7800110798001E0078003000910005
:104D2000620060000000E0000200320010C0B3002A
:104D3000250037001E007800100091009040780098
:104D40001E009000014878001E00780010009100BD
:104D50008000E8001E007800110099001E00780015
:104D6000900091001E81E8001E007800100078007D
:104D700000004100808F500003003A009E80E80050
:104D80001E007800110099001E007800300191008B
:104D9000E1FF2F0081006100310099001E007800C2
:104DA000A00091001E00780010009100808F50003C
:104DB00004003A001E007800B00091000110A0002D
:104DC000310099000040EB000080FA00000006006E
:104DD0003208000000100000800000002C080000D5
:104DE0000200000080000000240800000400000011
:104DF00082000000FFFFFF00FF00000032180000EB
:104E00000004000080000000000800000C0000000A
:104E100080000000662400001400000080000000F4
:104E20008E24000002000000800000001608000030
:104E3000080000008000000028240000200000007E
:104E4000800000002E080000020000008200000028
:104E5000FFFF00007A2400000E0000008200000026
:104E6000D21C0A001CAC1C00781C52001C161C0032
:104E7000CC1C000018200000100200008000000080
:104E8000300800000200000082000000F000000076
:104E90001E080000060000008000000048240000FA
:104EA0001E000000800000008824000006000000B2
:104EB00082000000616C6900766500000C0800004B
:104EC0000A00000080000000321C0000E603000021
:104ED000800000002808000004000000800000009E
:104EE00028220000000200008000000000000000F6
:104EF000000000002110000042200000633000008C
:104F000084400000A5500000C6600000E77000006B
:104F100008810000299100004AA100006BB1000047
:104F20008CC10000ADD10000CEE10000EFF1000027
:104F300000000000000000006B000000A0A00000C6
:104F40004F500000544F00005F4200004C520000E0
:108000000000000000000000009002000490020048
:10801000089002000C9002001090020014900200E0
:10802000189002001C900200209002002490020090
:10803000289002002C900200309002003490020040
:10804000389002003C9002004090020044900200F0
:10805000489002004C9002005090020054900200A0
:10806000589002005C900200609002006490020050
:10807000689002006C900200709002007490020000
:10808000789002007C9002008090020084900200B0
:10809000889002008C900200909002009490020060
:1080A000989002009C900200A0900200A490020010
:1080B000A8900200AC900200B0900200B4900200C0
:1080C000B8900200BC900200C0900200C490020070
:1080D000C8900200CC900200D0900200D490020020
:1080E000D8900200DC900200E0900200E4900200D0
:1080F000E8900200EC900200F0900200F490020080
:10810000F8900200FC90020000910200049102002D
:10811000089102000C9102001091020014910200DB
:10812000189102001C91020020910200249102008B
:10813000289102002C91020030910200349102003B
:10814000389102003C9102004091020044910200EB
:10815000489102004C91020050910200549102009B
:10816000589102005C91020060910200649102004B
:10817000689102006C9102007091020074910200FB
:10818000789102007C9102008091020084910200AB
:10819000889102008C91020090910200949102005B
:1081A000989102009C910200A0910200A49102000B
:1081B000A8910200AC910200B0910200B4910200BB
:1081C000B8910200BC910200C0910200C49102006B
:1081D000C8910200CC910200D0910200D49102001B
:1081E000D8910200DC910200E0910200E4910200CB
:1081F000E8910200EC910200F0910200F49102007B
:10820000F8910200000000000000000000000000E3
:10821000000000000000000000000000000000005E
:10822000000000000000000000000000000000004E
:10823000000000000000000000000000000000003E
:10824000000000000000000000000000000000002E
:10900000F0CD0000000000006A0000000000000039
:109010000000000000000000000000000000000050
:109020002FAE22000E7F24000E01880000000000F9
:10903000000020000000E0000200320000012000DB
:109040002002880014000700110207000000E00061
:1090500003003A00C00D2B00010020000200370081
:109060000000200001002000810F7000010032008C
:1090700014000700000020000000E00002003200A1
:109080000000020000000000AA5B020000000000D7
:109090000040DA000000FE004440A9000002200069
:1090A0000000E00003003200102020009001880042
:1090B0004440A800000006008A1F78008B1F78003B
:1090C00000000600A1028800800478000000EB0088
:1090D0001F003700E284440054A0B4009905BA0090
:1090E000E284440054A0B4009906BA00E28444002B
:1090F00054A0B4000006EB00476FDE00FD07B2008D
:10910000AE018800636CE10003003A00EAFF07004B
:109110000000EB000E003700606CE10008003A0030
:10912000004DEB000A05E800020039003420EC0095
:109130000AF0A0008B05E900F9FF3E0004003700AB
:109140006168E100010032000086EB000B000700BF
:1091500019C7BA001905BA000E04E00003003A006E
:109160000A00E000DBFF3A0000000600FE07B20044
:10917000AE0288008A047800F5FF37000CD0A30007
:10918000E20F4D001C00390089027800354DBA000D
:109190000A05E800020039003420EC000AF0A000C3
:1091A0008B05E9000F003200254DBA000A05E800E2
:1091B000020039003420EC000AF0A0008B05E90021
:1091C000080032000C00E0000600320015CDBA00A5
:1091D0000A05E800020039003420EC000AF0A00083
:1091E0008B05E9008984E80054A0B4000B00E0007E
:1091F000E2FF3A00000006009902BA00055D78001F
:109200008B05E900F7FF3200C82ADE00055D780013
:109210008B05E900F3FF32000C00E000F1FF3200A3
:1092200019DDBA00EEFF37008C8C0400000000004E
:10923000B88E040000000000164C0400000000007E
:109240003600F800809FBE00829FBE00849FBE0053
:10925000869FBE008E40A900AEE4AB00080032003D
:10926000AEE4A9000000EB00C04F8900D14F81009F
:10927000A100900080087800D04F8900CC00370012
:10928000C04F81008000EB00EB0F5000E08F5800D2
:10929000C2003E00006001000B00370028003700CC
:1092A0005300370075003700B800370095003700CD
:1092B000A1003700B5003700A3003700B700370022
:1092C000230037003600370000A02200100078008D
:1092D00062006000B6003A00E19F220011007800B1
:1092E000D04F890062A02200104978001001900040
:1092F00042508900660040008008780001A12200E9
:10930000810F500002003A0066805000F04F890043
:1093100000A022001000A100F14F81006400500065
:10932000908F500002003A00640040001010A0002E
:10933000AA04A80020002000C04F89009C0037002C
:10934000AA24A80020002000C04F89009800370000
:10935000AE04E20006003D0040A022001048E800F4
:1093600040002000A09C0200000000009000370098
:10937000905081008000D1008180FB003125880061
:109380000008A30003003200B0002000C04F890095
:109390008700370030002000C04F8900840037006C
:1093A000AE04E20006003D0040A022001048E800A4
:1093B00040002000A09C0200000000007C0037005C
:1093C000AA24A800905081004800DE0066006000DA
:1093D000100FB3009050890011C0B30000A122000B
:1093E0000148780020002000C04F8900700037003D
:1093F00000A1220011C0B30090CF1000090032007C
:10940000405081001001780092508900A000900027
:10941000A150890011A122002040900080487800CE
:109420000200370000A122000048EB0090508100AC
:10943000F10F2000810F5000070036004800DE00C9
:1094400066006000000FB30030258800A0002000F7
:10945000C04F890056003700302588000008A3005F
:109460000300320050002000C04F89005000370038
:1094700030002000C04F89004D003700AE04E200EC
:1094800007003D0040A022001048E800AFE4A9001A
:1094900050002000A09C02000000000044003700A3
:1094A00011A12200114078008048E9000004E0008A
:1094B0000F003A0040508100660040004050890093
:1094C00061A022001140E9008048780004003A00C1
:1094D00020002000A09C02000000000034003700A3
:1094E000AA24A80020002000C04F890030003700C7
:1094F000A0508100B080FB0031258800A050890079
:109500002B003700AE04E20007003D0040A022001F
:109510001048E80040002000A09C0200000000006D
:10952000AFE4A90022003700AA64A8008000200050
:10953000C04F89001E00370080002000C04F890006
:10954000AA64A8001A00370021258000A0508100DD
:1095500001587800A050890011A122001140E900B3
:109560008048780004003200AAA4A900600020000E
:10957000C04F890003003700AAA4A800849C020001
:1095800000000000AA84A800090037002000200085
:10959000A09C0200000000000500370040A022004F
:1095A0001048E80060002000A09C020000000000BD
:1095B0004F03BE004F02BE004F01BE004F00BE0071
:1095C0003600F900004006003600F800809FBE001B
:1095D000829FBE00849FBE00869FBE002404A90017
:1095E0009F60A900F05681000000E00002003200F8
:1095F000F0568100000001008F60A9004F03BE00FB
:109600004F02BE004F01BE004F00BE003600F90001
:10961000004006003600F800809FBE00829FBE001A
:10962000849FBE00869FBE0040028100E10F500073
:10963000090032009B23AB0007003A00D13422001E
:109640000004220000A6020000000000D034220026
:109650001080FB00E01C88008980A9004F03BE0039
:109660004F02BE004F01BE004F00BE003600F900A1
:10967000004006003600F800809FBE00829FBE00BA
:10968000849FBE00869FBE00889FBE00C834220013
:10969000490322009A23AB000A003200F11C80002B
:1096A000C0342200014878009A23A9000041EB0051
:1096B000E1C0B30010002000C89F020000000000BD
:1096C0000D0037009A43AB0003003200F01C80000D
:1096D000004C780006003700F01C8000004C780039
:1096E0009840780009007800C2A502000000000040
:1096F0009A03AB00E7FF3A008960A9004F04BE005F
:109700004F03BE004F02BE004F01BE004F00BE001F
:109710003600F900004006003600F800809FBE00C9
:10972000829FBE00849FBE00869FBE009A23AB002E
:10973000060032000041EB00E1C0B3001000200041
:10974000C89F0200000000008820A900D01C8000F3
:109750009020A9004F03BE004F02BE004F01BE0083
:109760004F00BE003600F900004006003600F80049
:10977000809FBE00829FBE00849FBE00869FBE0069
:109780003200F8003400F80010002000A00188002A
:109790001020200090018800A056810000000100E8
:1097A0003400F9003200F9004F03BE004F02BE0042
:1097B0004F01BE004F00BE003600F9000040060019
:1097C0003600F8008020A9000000EB00F2A402009F
:1097D000000000003600F800E8A4020000000000CD
:1097E0008040A90010002000F2A402000000000048
:1097F0003600F8008060A90020002000F2A40200DA
:10980000000000003600F8008080A9003000200031
:10981000F2A40200000000003600F8008600A90053
:1098200070002000F2A4020000000000FFFF3700DB
:10983000801F7800849FBE00869FBE00889FBE0068
:109840008A9FBE00FF3FFC00E08422003004BE007F
:109850002005BE0014002000050020006033B80081
:109860000418440005984C0006184D0007884D0068
:109870008860A9000000FC004F05BE004F04BE0038
:109880004F03BE004F02BE004F00780000400600AC
:10989000000005008F1FD100070607008F87E90031
:1098A0000000E00000000600809FEB0002060700B9
:1098B0008F87E9000000E00000000600839F680039
:1098C0000100E00002003D0060001000E080180090
:1098D0000300E00002003D0060011100E08119007A
:1098E0004F0207004F00E00002003B006000100044
:1098F000E080180000000600140020006906370010
:10990000F4FF2F00670637001400FA00889FBE009E
:109910008A9FBE008C9FBE000004BE000205BE00F0
:10992000680047000A90BE000890BE001D060700B0
:109930000070A7000BF0A100304320009E029000B1
:1099400080825200B0FE2F000028E10011003D008F
:10995000B0FC2F000028E100150034001E09900023
:109960008E0890007E0090000501B0000201D10039
:109970008180D3000080D3008502E800FBFF3A001D
:109980000B00E00042063B0060001000E080180081
:109990003F063700F0FF2F00F1FF27000B00E0002B
:1099A0003B063B000100280000002000380637007D
:1099B0006000B800360637000001BE004200070014
:1099C0000470A70003F0A1006509B1001600320081
:1099D0000D0035006828E10006003500F0FF2F007B
:1099E000F1FF27000300E00013003B000100280006
:1099F0000000050000004000818048008502E90069
:109A0000FCFF3A0008003700F88F420002003C00DB
:109A10008000EB00000005008100D1000080D30031
:109A20008502E800FCFF3A000300E00002003B0072
:109A300060001000E0801800000006000001BE0079
:109A4000210007000470A70003F0A10003F8A300A1
:109A500013003A006509B10010003200090035001A
:109A60006928E1000200350001002800000005001F
:109A700000004000818048008502E900FCFF3A00B8
:109A800000000600F88F4200050035008100D1007B
:109A90000080D3008502E800FCFF3A0000000600C9
:109AA0008000EB00000005004F89DE008201780095
:109AB000170637004F89DE00820178002406370040
:109AC0006011B8005D063700C70ADE00F107B2007A
:109AD000F50FB20008003200E1CF42000200320070
:109AE0000170A00024000500810F70000100320009
:109AF0000408050044000500810F700002003A00D0
:109B0000140005008502E9000000400081C0480003
:109B1000FCFF3B000170A000240005000003BE0014
:109B2000E9FF07006220E100020032000600BE00EB
:109B30000000060085024100E30F20000328E10039
:109B400005003C00A3FE2F000328E10007003D00B4
:109B50000500200001003700F50F20002002200042
:109B6000004088006000B8000800370013002000A3
:109B70008381520005003D008100D1000080D300A8
:109B80008301E800FCFF3A0005002000C72ADD0041
:109B9000F107B2008580700007F0A70001F0A00077
:109BA000000006001400FA00889FBE008A9FBE00D5
:109BB0008C9FBE000005BE000206BE006800470084
:109BC0000C90BE000A90BE00760507006400E1001C
:109BD0001A00320016003E006100E1001A00320057
:109BE0006E049000FE0490000E0B90009E0B9000FF
:109BF0006011B8009E0590000B38B100D50120001F
:109C000082817100610164008703D1000683D30063
:109C10008984D3000884D3008502E900F8FF3A0064
:109C2000350607000DF0A70001F0A00098053700E9
:109C3000F1FF2700F0FF2F009505370001F82700FE
:109C400000002000F7FF37006000B800F5FF370084
:109C500007F82700078361000638E10004003A0096
:109C6000F7072000878361008703710001003A0035
:109C700003F0A200889FBE008A9FBE008C9FBE009A
:109C8000470ADE000480A100C71ADE000580A1009B
:109C9000070028000785600087856100F70F200016
:109CA0000720E1009E0032000728E1009C003200FE
:109CB000010678000400E000B4003200F70720003D
:109CC000878060000170A0000500E000C000320045
:109CD000F7072000878161000370A000050652008D
:109CE0000F003A000B50E1000B0032000308E100C6
:109CF00002003A000200E1007E003200020450003F
:109D000083845800040031000001FD008101FD0042
:109D10008402FD008A05FD006044B8002100370080
:109D20000520E10005003D000001FD008101FD006E
:109D30008402FD008A05FD00050652007A60E100FC
:109D4000050035000170A1004722DD00848070000D
:109D50008A807000630037006044B800EF0266003C
:109D600007FF2F00070666000500E000060034002C
:109D7000F08312008714DD000511DE00071BDD00F3
:109D8000060171008519DE007060E10005003500F4
:109D90000904780082047800030178008001EB0058
:109DA000700656000B50E10003003A00020040002C
:109DB000838048000400370060041400E0841C0025
:109DC00002005800838058000188A300060032007A
:109DD0008100D1000080D3008984D3000884D3009F
:109DE0000402E800270037000178A30025003A00AC
:109DF0000100E000030032008186CF006986560032
:109E00000A0037008C0020000000E00004003A0047
:109E100009007800880478000004EB00700252000A
:109E20008086CF000D0646000C06E9007060E10058
:109E3000060035008000780009007800880478006A
:109E40000004EB0070065600700252000C00E000A7
:109E50000C0034008C08DD00F00316000703DE0060
:109E6000868070000C00DD00074BDE0006007000ED
:109E70008C4CDD000743DE00868474000C44DD005A
:109E80000C0252006120E1002000350061016000F9
:109E90000700280087816400F7FF2700878364009C
:109EA000070374000300E000060032008203730021
:109EB000040032000000E800E08048000188A300B0
:109EC0000E003A00F70F20000720E1004A003D0095
:109ED0000170A1004722DD00810072008A807000BD
:109EE0000000BE004F06BE004F05BE004F04BE007E
:109EF000000006006000B800FAFF37008100D100C2
:109F00000080D3000402E800EEFF3700040178006F
:109F100089017400790207008A807000F1FF370020
:109F2000A3050700070278000001FD008101FD0084
:109F30009F05070087027800850372000778A30059
:109F4000040032000001FD008101FD002F02070026
:109F5000E4FF3700850362000768A30008003200B1
:109F60000B50E10003003200F0FF2F00F1FF27004B
:109F7000DCFF37000001FD008101FD00D9FF370043
:109F80000468A300D7FF3200FAFF3700F8FF27006C
:109F9000888360000B003A000000E00009003A00EE
:109FA0008303640082837300020032000200BE005B
:109FB000CCFF37000B50E100CEFF3A000200BE009C
:109FC000C8FF370014002000810064003EFF370006
:109FD000F8FF27008883610004003A000200E000D7
:109FE00002003A008C007800BEFF37001500200008
:109FF0008301640039FF370001F8270000002000CA
:10A0000081007500B7FF3700038368000700280050
:10A0100007036300470ADE000480A100C71ADE00C0
:10A020000580A100F70F20000720E1004200320068
:10A030000728E10040003200889FBE008A9FBE00D2
:10A040008C1F7800F107B200F307B2000400E000B3
:10A05000640032000170A0000500E00068003200DA
:10A060000370A00085054200EB07B1000204B800B0
:10A070000302B8008484440060854A00020AB800E4
:10A08000848444000A854A00030AB8000405450098
:10A09000040033000804D0008984D2000A85D2006D
:10A0A0008B05E9006158E1003D00350002102000F9
:10A0B000090161000308200089816100F707200081
:10A0C0008783640008867300C84CDE00C853DD0037
:10A0D000878474004855DE000300E000060032006B
:10A0E00082037600040032008904E80060054D0018
:10A0F0000A88A3000C003A00F70F20000758E1007F
:10A1000044003D000A70A100C75DDD000A857500AE
:10A110008A007300090078004F0678004F05BE00E2
:10A120004F04BE00000006000A05D1008984D30058
:10A130008B05E800F0FF3700881F780006047800E0
:10A140001B050700070278000001FD008101FD00EA
:10A150001705070087027800850372000778A300BF
:10A16000050032000001FD008101FD00A70107008C
:10A170004F04780000000600850372000748A30022
:10A1800003003200F0FF2F00F1FF2700F8FF370037
:10A190000000200001F8270088807000F4FF3700DD
:10A1A000880178004848DD00808171004848DE0061
:10A1B000C850DD0001007000C850DE0006047800C1
:10A1C0000B017800CD01070088807000D2FF3700B6
:10A1D0000500E00005003200170020007D000700A8
:10A1E0009DFF370081037000F9FF3A008600780078
:10A1F0004F0678004F05BE004F04BE00000005006A
:10A2000083037100F9FF320027002000710007006E
:10A2100094FF370001F8270086807000F4FF3700B4
:10A22000020250008382580061003900030371006C
:10A230006200320005037200590032000300E000A2
:10A240005500330017003A000100E0004B003200D7
:10A250000208E10006003100110009004288D80020
:10A26000010178008001EB008000EB000000060097
:10A270006110E100550032000002BE00110009002B
:10A280008280D80080027800040078001100090064
:10A290004288D800010178008001EB008500780039
:10A2A00000000600889FBE008A9FBE008C9FBE00F3
:10A2B0000386CF000C06E9008C1F78008C19DD00A6
:10A2C000F00216000512DE00848171000C11DD0021
:10A2D0000003BE008004EB00053CDE008C3BDD008B
:10A2E0000532DE00848373000C33DD000700780044
:10A2F00088007800110009004388D8000202B800E5
:10A300000306B8008C82420060854E008005EB0099
:10A310000402530085825B000A055C008B855C00AB
:10A320000B0033008000EB004F0678000C21DE00AC
:10A33000700516000A2DDD000A0171008C29DE006F
:10A340004F06BE004F05BE004F04BE0000000600D1
:10A350000202420083824A0060054D00E0854D0004
:10A360000000E9000B00E000EEFF3D0002024200A9
:10A3700083824A000000E900EAFF37000000E000A5
:10A3800012003200110009000280D800010178009B
:10A390008000EB00000006000401BE000100370051
:10A3A0006011B800100020008000EB0000000600E3
:10A3B0000001BE006000B800000006000001BE0001
:10A3C000F0FF2F00F1FF2F00000006006011B80021
:10A3D00000000600889FBE000004EB006138E10029
:10A3E00016003A000100E00008003A00C800DE0054
:10A3F0004800DD00880020000100E00003003A0072
:10A40000C800DE004800DD00680444008184CF00FD
:10A41000E9845400060034008908DD00F08314004C
:10A420008703DE00878070000900DD000904440016
:10A43000610214004F04BE00000006000300E000AB
:10A4400008003A00C811DE004811DD008800200035
:10A450000300E00003003A00C811DE004811DD00EF
:10A46000680444008384CF00E9845400060034006B
:10A470008919DD00F08314008713DE0087817100E5
:10A480000911DD0009044400E1021400E9FF37006E
:10A49000889FBE008A9FBE008C9FBE001B002000CC
:10A4A0000202BE0005866800060028000606660057
:10A4B0004709DE00F20FB200820032000243E800DA
:10A4C00080003200C729DE00F30FB2007D003200A9
:10A4D0000343E8007B003200F107B2000170A000E6
:10A4E000F507B2000570A000C708DD004903DE00D3
:10A4F000868070004700DD00C72ADD004923DE00AA
:10A50000868272004722DD000305510004035000DB
:10A51000858358000300310000004000818048001E
:10A520000A05E9008C1F78008A9FBE0004005000D5
:10A53000858058000402420085824A0000004000E5
:10A54000818048000005EB000004BE006033B800C5
:10A550000406BE000D48E10056003100110009005C
:10A560004DCCD8000C01B8000D02B8008481410028
:10A5700060824A008283530003045C0084845C0090
:10A5800060055D000A00E00025003A0080057800C3
:10A590000D40E10049003100880078000700780094
:10A5A000110009004D88D8000C01B8000D02B80058
:10A5B0008481410060824A006003110083835B0054
:10A5C00004045C00E0845C000900E00021003A0023
:10A5D0004F01BE000300E0002B003200E3016000E9
:10A5E000070673008C817100010032006400700066
:10A5F0004200DE004E5EDD000C007000C258DE003E
:10A6000001E0A000E7000700CF0178008180710021
:10A610004F06BE004F05BE004F04BE0000000600FE
:10A620008C8343000D044C00E0844C0060054D0019
:10A630000000E9000A00E000D4FF32008C834300F0
:10A640000D044C00E0844C0060054D000000E90062
:10A65000CEFF37000C0343008D834B0060044C0099
:10A66000E0844C000000E9000900E000D8FF32005F
:10A670000C0343008D834B0060044C00E0844C00CD
:10A680000000E900D2FF37004200DE004E5EDD0030
:10A690000C007000C258DE0001E0A000CF0178007D
:10A6A0000300E000DAFF320060001000E0801800D4
:10A6B000D7FF3700F0FF2F00AAFF3700F0FF2F0071
:10A6C000B9FF37000404BE00B9030700870678000D
:10A6D0000004FD008104FD00B50307000783660048
:10A6E0000678A300030032000960A7000800BE003E
:10A6F0002C0037000D78A300020032000800BE00D5
:10A70000280037000778A30026003A0001F0A100D6
:10A7100009F0A1000668A30003003200F1FF270042
:10A72000F0FF2F00BAFF37000D68A30003003200CE
:10A730000800BE008C807000B5FF37000768A300DA
:10A7400007003A000648A30003003200F1FF27008B
:10A75000F0FF2F00AEFF37000D48A30003003200CA
:10A760006000B8008C807000A9FF37000748A30084
:10A770000400320001F82700000020008C807000E7
:10A78000A3FF37002A0007000004FD008104FD003C
:10A7900002057800260007000802BE008A01780042
:10A7A00059FF37000160A00012022000024088001B
:10A7B00097FF37000100E000120032000500E000C2
:10A7C00010003200889FBE008A9FBE008C9FBE0092
:10A7D0000006EB0001F8A300030032006000100047
:10A7E000E08018000CF0A00005F8A3000300320080
:10A7F00060021200E0821A000CF0A2008005EB005B
:10A8000041FF37006000B800020005000478A30093
:10A81000040032000578A300030032000168A300A1
:10A8200001003A000200BE000160A0000000060026
:10A830004F0ADE004709DE00F107B200F20FB20056
:10A840000B003200F207B1000170A000C708DD0064
:10A85000C901DE00838070004700DD000400A6000F
:10A860000000060060001000E080180000000600F4
:10A87000810F700001003A00000006008182CF00C5
:10A880000500E00010003E008082CF00EE82420012
:10A890007028E1000400390007003E0080007800C5
:10A8A0000000EB000E003700708312008600DE000F
:10A8B0000500DD000A003700708352008600DD00CD
:10A8C0000000EB0006003700E28252008508DD0040
:10A8D000708312000603DE00868070000500DD0034
:10A8E0007507B0000501EA000400A600000006009C
:10A8F00060001000E0801800000006000100E00089
:10A9000026003200610111007810E10023003C00B4
:10A910006022B8007010E100040035008002780069
:10A92000010078008000EB00700151000200E0009F
:10A930000900340070031100062ADD00822ADE00BF
:10A940008603DD00878272000200DE00860BDD00D8
:10A95000070070008208DE0084817100F4FF270088
:10A9600004826200848171000400280084826200F5
:10A970006102600005F0A60000000600048271007C
:10A98000070032000000E800E080480000000600F8
:10A990000002BE006000B800EFFF37006000B800A2
:10A9A0000000060081017000270032008002EB00E9
:10A9B00001F8A3000300320060001000E0801800DE
:10A9C00015002000F407200002024200200034009D
:10A9D000F7032000870360000604200000036300E3
:10A9E00002082000000161004700DE00C909DD0007
:10A9F00000807100C708DE000600E0000800320099
:10AA000087037100060032001000B0000180B00022
:10AA10000188A30002003200C108DE000402E80041
:10AA2000F107B200F30F20000320E10003003D0016
:10AA30004722DD00810072002900370001F827005D
:10AA40000000EB00260037006000B80000000600A0
:10AA5000680212007F20E100020034006000B800AC
:10AA60001F0037006011B8007020E10004003500BD
:10AA700080017800010078008000EB007002520035
:10AA80000400E00009003400F00312000719DD00A3
:10AA90008419DE000703DD00868171000400DE00FA
:10AAA000070BDD00060070008408DE00F7FF2700BA
:10AAB000838363008703710006002800030363009B
:10AAC000070032000700E00003003A006101600067
:10AAD00002817300020032001000B0000180B0005B
:10AAE0000500A6000000060001F0A000000006001E
:10AAF0008C9FBE008A9FBE00889FBE001B0107007E
:10AB00000BF0A200040037008C9FBE008A9FBE009D
:10AB1000889FBE00150107000C48E1000B003A00B9
:10AB20000C40E10002003200DC000700400037006A
:10AB30008B066D003E0032000AF0A100F3012000F8
:10AB4000F2FF2F006110B900390037000C40E1001E
:10AB5000370032000940E10001003600CF00070055
:10AB60008A856D00CF5DDE000B0575000006EB00E9
:10AB70008804FD008904540001003200CE00070063
:10AB80000A04E00011003A000800E000280032004A
:10AB90000400400085804800060149008781490083
:10ABA0000358A300180032008301D1000281D300B2
:10ABB0008180D3000080D3000C86D30001003900CF
:10ABC000610676000804E800180037000400500011
:10ABD0008580580006015900878159000600310020
:10ABE0000AF0A2000C06EA0060001800E0801800DD
:10ABF00060011900E081190003003A000004EB0035
:10AC00000005EB000A0037000348A30007003A00E4
:10AC10000C064600000048008180480002014900FF
:10AC2000838149000804E900F7FF3700000137007D
:10AC30001A0137008C9FBE008A9FBE00889FBE000D
:10AC4000CA0007000B056D008A0578000C40E10082
:10AC500008003A000900E00082003A000AF0A10072
:10AC60000C047800F3012000F2FF2F006110B900FE
:10AC70007C0037000C48E10004003A008700070020
:10AC80000900E00077003A00F4FF37000800E00018
:10AC9000740032000900E00002003A007F00070063
:10ACA00070003700ED3F20008D84540009044400FB
:10ACB0008A1F7800881F7800871F7800861F780019
:10ACC000851F7800841F7800CB19DD00C515DE00D4
:10ACD0008B8571004B11DD00450DDE000A0571000A
:10ACE000CB08DD00C504DE00898470004B04DD0064
:10ACF0000440B8000546B8008C80400060814E00DA
:10AD0000044EB8008C8040000D0149008001EB002A
:10AD10000318AD000456B8000C0141008D814900B4
:10AD20000002EB000420AD000646B8000C01410013
:10AD30008D81490060024A00054EB8000C014100B7
:10AD40008D81490060024A000556B8008C8141009F
:10AD50000D024A008002EB000528AD000746B8004E
:10AD60008C8141000D024A00E0824A00064EB80084
:10AD70008C8141000D024A00E0824A004F067800B3
:10AD80000C5EB8008C8141000D024A00E0824A004E
:10AD90000656B8000C0242008D824A000003EB0008
:10ADA0000630AD00074EB8000C0242008D824A000A
:10ADB00060034B004F0678000C5EB8000C024200A6
:10ADC0008D824A0060034B000756B8008C82420017
:10ADD0000D034B008003EB000738AD004F067800F1
:10ADE0000C5EB8008C8242000D034B00E0834B00E8
:10ADF0004F0678000C5EB8000C0343008D834B00B7
:10AE00004F0478004F0578000748A3000A003A0075
:10AE10000000400081804800020149008381490010
:10AE200004024A0085824A0006034B0087834B00D8
:10AE30000804E900F4FF3700030678008080700002
:10AE40008280700001003200610676008701780080
:10AE500006017800850078000400780088047800F6
:10AE6000780037008D0037008C06460002003A005B
:10AE70000000A6000000060060004800E0804800D6
:10AE800060014900E08149000350A600000006006F
:10AE90008301D1000804E800000006000002FD0064
:10AEA0008102FD000203FD008303FD008804FD0014
:10AEB0008A05FD00000006007048E1001A00390014
:10AEC0007D0320000D48E1000A0039008105700073
:10AED000830671008C8575008D8575000006EB007A
:10AEE0000CD8E700610676006000B8006011B80079
:10AEF000000006007048E1000B0039008C05780066
:10AF000000067800010078008200780003017800D4
:10AF10008001EB0003D8E70061067600F08454005E
:10AF2000F4FF3A00000006006160E1000C48AD004B
:10AF3000F08514008B06DD000966DE000D06760044
:10AF40008B0EDD000900DE000D0070008B16DD00A9
:10AF50008908DE008D8070008B1EDD000911DE0087
:10AF60000D0171008919DE00000006000D002800A7
:10AF7000FC7F20000D856100441CDE00EF81610034
:10AF80000C046400010032000340A0008D856300C2
:10AF9000C43CDE00EF8363008C8464000100320057
:10AFA0000740A0000C40E10006003A00EF86610077
:10AFB00082867600818676008086760001003200E7
:10AFC000180037000C48E10007003A00EF866300E4
:10AFD00086867600858676008486760002003200BA
:10AFE000AEFF07000F0037000348A30005003A003A
:10AFF000810670008286760083867600010032002A
:10B000000804E8000748A30005003A00850672001E
:10B010008686760087867600010032008904E80083
:10B0200000000600CF047800CF0578001B00370031
:10B030000002780081027800020378008303780020
:10B04000880478000CF0A70087FF0700FD7F200030
:10B050000D40E100040035000D0478006000B800E8
:10B060006011B8000D0037000800E0000B003C0044
:10B0700004007800850078000601780087017800D8
:10B08000E18414008CFF07000CF0A70076FF070096
:10B090000004EB000340A7000804E8004444DD007E
:10B0A0006FC56100880175004F04BE004F05BE00EA
:10B0B0004F06BE0000000600889FBE008A9FBE00AB
:10B0C0008C9FBE000404BE000605BE00809FBE002B
:10B0D000829FBE0021000700040678000800BE0021
:10B0E0000A01BE001D000700840678004F03BE0061
:10B0F0004F02BE008D4F76007FB0970013003300E3
:10B10000F0FF2F008B8F6B0006003B000D066600E2
:10B110000C00A7000A00370007F0A600100020006E
:10B120000A003700880F5200898F5A008A0F5B008F
:10B130008B8F5B00030039001000200001003E00EF
:10B140000000200007F0A7000000EA004F06BE0044
:10B150004F05BE004F04BE000000060005FF27009B
:10B1600005826100070032000428E100010032007E
:10B17000240005000600070001003A004400050015
:10B180000408050002000700F9FF3A00140005005A
:10B190006F82610081027000850271008502720079
:10B1A00000000600800078005002BE005003BE0080
:10B1B0004439DE00F700B200F37F20000301610094
:10B1C000090032000218E10016003A008501720001
:10B1D00083017300838173000008200015003A008A
:10B1E00040002000130037008501720083017300C6
:10B1F0008381730005003A0004A8BE0006A8BE00C3
:10B20000100020000B0037000201E9000402420098
:10B2100085824A0006034B0087834B000748A30042
:10B22000F9FF32000740A00004A8BE0006A8BE0037
:10B230002000200080009800920098000000060086
:10B24000680447000294BE000094BE00FC0447005E
:10B250008694BE008494BE0009007800D1FF0700E8
:10B2600008007800CFFF070099007800814F700038
:10B270000B003B000800BE00130107004F00B100A7
:10B2800003003700F3FF2700F2FF2F006110B90021
:10B290004F06BE004F05BE004F04BE000080FA00FE
:10B2A00000000600889FBE008A9FBE00841F7800B1
:10B2B000B70007004F00780011003300F0FF2F00A7
:10B2C000838F6C0006003B00040565000A00A700A0
:10B2D0000800370009F0A600100020000800370021
:10B2E000820F5400838F5C0003003900100020009F
:10B2F00001003E000000200009F0A7000000EA0065
:10B300004F05BE004F04BE000000E0000000060034
:10B31000881F7800030478000300E00007003D0068
:10B3200060001000E080180060011900E081190041
:10B3300002003B0001F02D0003003700140007005D
:10B3400008F0A70003F0A0004F04780000000600FA
:10B35000881F7800030478000300E00007003D0028
:10B3600060001000E080180060011900E081190001
:10B3700002003B0001F02D00030037002F00070002
:10B3800008F0A70001F0A0004F04780000000600BC
:10B39000889FBE0000827000040271000482710068
:10B3A0002400320036432000C50020008383CF00F4
:10B3B0000A0039000541B1008283CF00070039003F
:10B3C0000541B1008183CF00040039000541B1007F
:10B3D0008083CF00010039000541B10085C35300CF
:10B3E0006022B800120032000A003B008482720022
:10B3F000610260008301D1000281D3008180D3000B
:10B400000080D3000603E8008743E800F7FF3A0016
:10B410000700370000004000818048000201490019
:10B42000838149000603E9008743E900F9FF3A00F8
:10B43000790007004F04BE0000000600889FBE0090
:10B440008A9FBE00008270000402710004827100B5
:10B45000260032000004BE000200BE006011B800E9
:10B460006B092000950220000182CF000A003900FC
:10B470000541B1000082CF00070039000541B1004D
:10B480000982CF00040039000541B1000882CF00D5
:10B49000010039000541B10005425200120032009E
:10B4A0000A003B0082817100610164008100D100CB
:10B4B0000080D3008984D3000884D3008B05E80082
:10B4C0000442E800F7FF3A00070037000804440090
:10B4D00089844C0000004800818048008B05E90009
:10B4E0000442E900F9FF3A00030007004F05BE00DF
:10B4F0004F04BE000000060081002000618055005E
:10B500000B003D000B00200061FE2F000100E10058
:10B510001D00340082817100610164008904D10042
:10B520000884D3000000E800FAFF3A007100200010
:10B530006100640003007000020060000900320036
:10B5400061044400E0844C000988A5000500320035
:10B550008B05E8006808E10002003A008904D10088
:10B560000884D300F20F20000258E10005003D00DE
:10B57000C75DDD00F907B20089807500080078001A
:10B58000000006000BF827008B0078000000050083
:10B590000004BE004CF907000003BE000405BE0015
:10B5A0000200BE0048F90700844F75000000060045
:10B5B0002700200001F0A70017002000470BDE0045
:10B5C000F60FB200040032000643E8000A00320021
:10B5D0004702B3000000060001037800F607B2003E
:10B5E0000603700002003A000703B30000000600E3
:10B5F0008702B3000000060001037800F607B200DE
:10B6000006037000020032000770A0000000060070
:10B610000760A0000000060018002000570020006E
:10B62000080453000D003D000600200097FC2F0089
:10B630000740E1001E003400848272006102600055
:10B640008301D1000281D3008180D3000080D30028
:10B650000804E800F8FF3A00470020006104600099
:10B6600005047400040464000D0032006100400011
:10B67000E080480060014900E081490003B8A5006E
:10B68000070032000603E8006538E10004003A00D4
:10B690008301D1000281D3008180D3000080D300D8
:10B6A000F87F20000830E10003003500080378002F
:10B6B0006000B8006011B8004433DD00F300B20050
:10B6C0008301730000000600E48240001078A300AC
:10B6D00007003200640240001178A3003400BE006D
:10B6E0001401BE00040032000330A7000000060071
:10B6F0003500BE001501BE000330A00000000600AA
:10B700000900370030427800B1417800834F520081
:10B710000400320010002000060031000080EB0021
:10B72000000006000201E9000200E000F5FF3A0017
:10B730000000EB00000006008001780002003700E6
:10B74000B15978000201E9000200E000FCFF3A0074
:10B7500000000600889FBE008A1F78006C890200E6
:10B7600000000000A0A9020000000000D87602003E
:10B77000000000000040EB00B8860200000000005E
:10B780004C78020000000000FA7302000000000084
:10B790000041EB00F1C0B30010002000C89F020080
:10B7A0000000000012C0B30021C0B3000000EB0095
:10B7B000C89F02000000000012C0B300E1C0B30047
:10B7C00010002000C89F02000000000080880200D6
:10B7D00000000000810020000000EB00C48802008F
:10B7E00000000000210020000000EB00D0880200D3
:10B7F00000000000810C200010002000C48802001E
:10B80000000000004A00200009F421009EA502006B
:10B810000000000070568100E10F500009003A005E
:10B820001E77020000000000E05689000000E000E2
:10B8300003003A0020002000705689000100370004
:10B840007A568900408C020000000000268F02001A
:10B85000000000000004E000FCFF320010002000A7
:10B860007E8C020000000000828A020000000000BE
:10B8700092780200000000009079020000000000B1
:10B88000067A020000000000567A02000000000064
:10B89000607602000000000070568100E30F500047
:10B8A00013003A00868802000000000060568900FC
:10B8B000E10F500004003A002E7702000000000063
:10B8C000E0568900040037000040EB002E770200AC
:10B8D00000000000E0568900E05681000000E00012
:10B8E00002003A0070568900010037007A5689003C
:10B8F00034880200000000009AA502000000000049
:10B90000008054006A880200000000005488020091
:10B910000000000090568900E10F50003C003A0002
:10B9200012C0B300F1C0B300C89F020000000000C5
:10B930000041EB0021C0B3000000EB00C89F0200F3
:10B940000000000012C0B300E1C0B30010002000EE
:10B95000C89F02000000000011002000100020001D
:10B96000D08802000000000018002000D8860200E5
:10B97000000000005E880200000000008056890080
:10B9800008007800F688020000000000E30F500075
:10B9900005003A000000EB0090568900588802002C
:10B9A0000000000003003700805681000000E00026
:10B9B000EEFF320080568100E20F500006003A0090
:10B9C000705681000000E0000B003A0010002000DB
:10B9D000705689008DFF3700E10F500006003A00D5
:10B9E00070568100E20F500003003A003000200042
:10B9F0007056890085FF370070568100E40F5000B3
:10BA000082FF32000000EB00705689007FFF370094
:10BA100012C0B300F1C0B30010002000C89F0200A4
:10BA20000000000012C0B30021C0B3000000EB0012
:10BA3000C89F0200000000000041EB00E1C0B3001D
:10BA400010002000C89F0200000000000004EB006E
:10BA500008007800F688020000000000E30F5000A4
:10BA6000FBFF3A00705681000000E00003003A003E
:10BA7000100020007056890064FF3700E20F50006C
:10BA800003003A0030002000705689005FFF370045
:10BA9000E40F50005DFF32000000EB00705689009B
:10BAA0005AFF3700E6874700889FBE008A9FBE0086
:10BAB0008C9FBE008E1F78003080200010467800DA
:10BAC00020802000104578000081200080BF9F006A
:10BAD000C13F2100F1B79F00CD4021005B00200055
:10BAE000100020000B00DD00000778000EC0EA0007
:10BAF00000466600004565008FB897005100780049
:10BB000081BF9F00CF80DE005A4D02000000000080
:10BB10000004BE007FB097005001BE00F0B79F0048
:10BB20000800BE00804C0200000000000000E000A1
:10BB3000020034000E467600070037001D01BE00EB
:10BB40000800BE007C4C0200000000000000E00085
:10BB500001003D000E4575008B05E900E4864600B6
:10BB6000E28F5500DEFF3A006181200081BF9F0017
:10BB700040412100F0B79F004E42210011002000FB
:10BB80008B0EDD000DC0EA00004666000045650032
:10BB90008FB897005100780081BF9F00CF80DE00F2
:10BBA0005A4D0200000000000004BE007FB0970064
:10BBB0005001BE00F0B79F000800BE00804C02009C
:10BBC000000000000000E000020034000D46760096
:10BBD000070037001E01BE000800BE007C4C0200BA
:10BBE000000000000000E00001003D000D45750070
:10BBF0008B05E90064074700E18F4500DFFF3A004D
:10BC0000308020000C487800208020000A4878000E
:10BC10000000EB004F0778004F06BE004F05BE0046
:10BC20004F04BE006F00B10000000600889FBE00F8
:10BC3000E0812000367C020000000000F04080001F
:10BC400001418000E00F5000E08F580009003A00E9
:10BC5000208F8000318F800060001000E08018008D
:10BC6000F040880001418800408F8000104188002A
:10BC700055003700228F8000338F8000E00F510085
:10BC8000E08F59005000320015418000448F800041
:10BC9000048352007B04430067032000870F540095
:10BCA0003A003E00848F52000A0034000202BE00B7
:10BCB0000603E900030033008582D1000482D3002B
:10BCC000FBFF3700E3812000841950008591580064
:10BCD0000B003700850252000003BE008502E90018
:10BCE000030033008783D1000683D300FBFF3700B6
:10BCF000E18120008218530083905B00144188008A
:10BD0000F040800001418000E00F5000E08F5800BB
:10BD10000A003200F4FF2F00F57F200000024200ED
:10BD200081824A00E2FF2F00F3FF2000820F5200C1
:10BD3000838F5A0004003600230037002082200041
:10BD40000008EB002000370012418000F8FF2F00B0
:10BD5000F97F2000E6FF2F00F7FF200000004000E1
:10BD6000818048000201E9000002440081824C0009
:10BD7000860F5200878F5A00F8FF3600F040880087
:10BD800001418800124188000F003700848F520063
:10BD90000D003C0060011100E0811900F2408800B4
:10BDA0000341880014418800E00F5100E08F5900E2
:10BDB00005003A006000B800F040880001418800AA
:10BDC000208220000008EB002041800031418000EB
:10BDD000E00F5000E08F580009003A00508F8000BB
:10BDE000618F800060001000E08018002041880012
:10BDF00031418800718F8000414188005500370033
:10BE0000528F8000638F8000E00F5100E08F590057
:10BE10005000320045418000748F8000048352003E
:10BE20007B04430067032000870F54003A003E0064
:10BE3000848F52000A0034000202BE000603E900AB
:10BE4000030033008582D1000482D300FBFF37005A
:10BE50004382200084195000859158000B00370060
:10BE6000850252000003BE008502E9000300330092
:10BE70008783D1000683D300FBFF37004182200077
:10BE80008218530083905B00444188002041800069
:10BE900031418000E00F5000E08F58000A0032006E
:10BEA000F4FF2F00F57F20000002420081824A004B
:10BEB000E2FF2F00F3FF2000820F5200838F5A0011
:10BEC0000400360023003700808220000008EB00C9
:10BED0002000370042418000F8FF2F00F97F20004A
:10BEE000E6FF2F00F7FF200000004000818048009F
:10BEF0000201E9000002440081824C00860F5200DA
:10BF0000878F5A00F8FF36002041880031418800B1
:10BF1000424188000F003700848F52000D003C0022
:10BF200060011100E081190022418800334188003E
:10BF300044418800E00F5100E08F590005003A00AD
:10BF40006000B800204188003141880080822000D4
:10BF50000008EB005041800061418000E00F50007C
:10BF6000E08F580009003A00808F8000918F800098
:10BF700060001000E0801800504188006141880096
:10BF8000A18F80007141880055003700828F8000AA
:10BF9000938F8000E00F5100E08F59005000320075
:10BFA00075418000A48F8000048352007B0443000D
:10BFB00067032000870F54003A003E00848F520030
:10BFC0000A0034000202BE000603E9000300330049
:10BFD0008582D1000482D300FBFF3700A3822000BA
:10BFE00084195000859158000B00370085025200DB
:10BFF0000003BE008502E900030033008783D100FF
:10C000000683D300FBFF3700A18220008218530073
:10C0100083905B0074418800504180006141800042
:10C02000E00F5000E08F58000A003200F4FF2F00AC
:10C03000F57F20000002420081824A00E2FF2F00CB
:10C04000F3FF2000820F5200838F5A000400360055
:10C0500023003700E08220000008EB0020003700BA
:10C0600072418000F8FF2F00F97F2000E6FF2F00CB
:10C07000F7FF200000004000818048000201E90035
:10C080000002440081824C00860F5200878F5A00C4
:10C09000F8FF3600504188006141880072418800F5
:10C0A0000F003700848F52000D003C00600111002A
:10C0B000E081190052418800634188007441880082
:10C0C000E00F5100E08F590005003A006000B80011
:10C0D0005041880061418800E08220000008EB00A8
:10C0E0008041800091418000E00F5000E08F5800B7
:10C0F00009003A00B08F8000C18F800060001000FE
:10C10000E08018008041880091418800D18F800034
:10C11000A141880055003700B28F8000C38F800096
:10C12000E00F5100E08F590050003200A54180001F
:10C13000D48F8000048352007B04430067032000F7
:10C14000870F54003A003E00848F52000A003400EA
:10C150000202BE000603E900030033008582D1001D
:10C160000482D300FBFF37000383200084195000B2
:10C17000859158000B003700850252000003BE0075
:10C180008502E900030033008783D1000683D300D2
:10C19000FBFF3700018320008218530083905B006F
:10C1A000A44188008041800091418000E00F500050
:10C1B000E08F58000A003200F4FF2F00F57F2000C6
:10C1C0000002420081824A00E2FF2F00F3FF2000BC
:10C1D000820F5200838F5A0004003600230037007C
:10C1E000408320000008EB0020003700A2418000BF
:10C1F000F8FF2F00F97F2000E6FF2F00F7FF200057
:10C2000000004000818048000201E9000002440073
:10C2100081824C00860F5200878F5A00F8FF36004B
:10C220008041880091418800A24188000F003700BA
:10C23000848F52000D003C0060011100E081190064
:10C240008241880093418800A4418800E00F51009A
:10C25000E08F590005003A006000B8008041880076
:10C2600091418800408320000008EB00E0418000FD
:10C27000F1418000E00F5000E08F580009003A00C3
:10C28000E08F8000F18F800060001000E0801800D7
:10C29000E0418800F141880001908000014288005F
:10C2A00055003700E28F8000F38F8000E00F5100CF
:10C2B000E08F590050003200054280000490800059
:10C2C000048352007B04430067032000870F54005F
:10C2D0003A003E00848F52000A0034000202BE0081
:10C2E0000603E900030033008582D1000482D300F5
:10C2F000FBFF3700C383200084195000859158004C
:10C300000B003700850252000003BE008502E900E1
:10C31000030033008783D1000683D300FBFF37007F
:10C32000C18320008218530083905B000442880080
:10C33000E0418000F1418000E00F5000E08F5800A4
:10C340000A003200F4FF2F00F57F200000024200B7
:10C3500081824A00E2FF2F00F3FF2000820F52008B
:10C36000838F5A0004003600230037000084200029
:10C370000008EB002000370002428000F8FF2F0089
:10C38000F97F2000E6FF2F00F7FF200000004000AB
:10C39000818048000201E9000002440081824C00D3
:10C3A000860F5200878F5A00F8FF3600E041880060
:10C3B000F1418800024288000F003700848F52004C
:10C3C0000D003C0060011100E0811900E24188008D
:10C3D000F341880004428800E00F5100E08F5900CB
:10C3E00005003A006000B800E0418800F141880093
:10C3F000008420000008EB001042800021428000F1
:10C40000E00F5000E08F580009003A0010908000C3
:10C410002190800060001000E08018001042880029
:10C420002142880031908000314288005500370059
:10C430001290800023908000E00F5100E08F59009F
:10C440005000320035428000349080000483520056
:10C450007B04430067032000870F54003A003E002E
:10C46000848F52000A0034000202BE000603E90075
:10C47000030033008582D1000482D300FBFF370024
:10C480002384200084195000859158000B00370048
:10C49000850252000003BE008502E900030033005C
:10C4A0008783D1000683D300FBFF3700218420005F
:10C4B0008218530083905B00344288001042800051
:10C4C00021428000E00F5000E08F58000A00320047
:10C4D000F4FF2F00F57F20000002420081824A0015
:10C4E000E2FF2F00F3FF2000820F5200838F5A00DB
:10C4F0000400360023003700608420000008EB00B1
:10C500002000370032428000F8FF2F00F97F200022
:10C51000E6FF2F00F7FF2000000040008180480068
:10C520000201E9000002440081824C00860F5200A3
:10C53000878F5A00F8FF3600104288002142880099
:10C54000324288000F003700848F52000D003C00FB
:10C5500060011100E0811900124288002342880026
:10C5600034428800E00F5100E08F590005003A0086
:10C570006000B800104288002142880060842000DA
:10C580000008EB004042800051428000E00F500064
:10C59000E08F580009003A004090800051908000E0
:10C5A00060001000E080180040428800514288007E
:10C5B0006190800061428800550037004290800001
:10C5C00053908000E00F5100E08F5900500032007E
:10C5D0006542800064908000048352007B04430025
:10C5E00067032000870F54003A003E00848F5200FA
:10C5F0000A0034000202BE000603E9000300330013
:10C600008582D1000482D300FBFF370083842000A1
:10C6100084195000859158000B00370085025200A4
:10C620000003BE008502E900030033008783D100C8
:10C630000683D300FBFF370081842000821853005B
:10C6400083905B0064428800404280005142800039
:10C65000E00F5000E08F58000A003200F4FF2F0076
:10C66000F57F20000002420081824A00E2FF2F0095
:10C67000F3FF2000820F5200838F5A00040036001F
:10C6800023003700C08420000008EB0020003700A2
:10C6900062428000F8FF2F00F97F2000E6FF2F00A4
:10C6A000F7FF200000004000818048000201E900FF
:10C6B0000002440081824C00860F5200878F5A008E
:10C6C000F8FF3600404288005142880062428800EC
:10C6D0000F003700848F52000D003C0060011100F4
:10C6E000E081190042428800534288006442880079
:10C6F000E00F5100E08F590005003A006000B800DB
:10C700004042880051428800C08420000008EB00AD
:10C710007042800081428000E00F5000E08F58009E
:10C7200009003A0070908000819080006000100045
:10C73000E08018007042880081428800919080005B
:10C7400091428800550037007290800083908000ED
:10C75000E00F5100E08F59005000320095428000F8
:10C7600094908000048352007B0443006703200000
:10C77000870F54003A003E00848F52000A003400B4
:10C780000202BE000603E900030033008582D100E7
:10C790000482D300FBFF3700E3842000841950009B
:10C7A000859158000B003700850252000003BE003F
:10C7B0008502E900030033008783D1000683D3009C
:10C7C000FBFF3700E18420008218530083905B0058
:10C7D000944288007042800081428000E00F500047
:10C7E000E08F58000A003200F4FF2F00F57F200090
:10C7F0000002420081824A00E2FF2F00F3FF200086
:10C80000820F5200838F5A00040036002300370045
:10C81000208520000008EB002000370092428000B5
:10C82000F8FF2F00F97F2000E6FF2F00F7FF200020
:10C8300000004000818048000201E900000244003D
:10C8400081824C00860F5200878F5A00F8FF360015
:10C850007042880081428800924288000F003700B1
:10C86000848F52000D003C0060011100E08119002E
:10C87000724288008342880094428800E00F510091
:10C88000E08F590005003A006000B800704288004F
:10C8900081428800208520000008EB00D042800003
:10C8A000E1428000E00F5000E08F580009003A009C
:10C8B000A0908000B190800060001000E08018001F
:10C8C000D0428800E1428800C1908000F142880097
:10C8D00055003700A2908000B3908000E00F510017
:10C8E000E08F590050003200F5428000C490800073
:10C8F000048352007B04430067032000870F540029
:10C900003A003E00848F52000A0034000202BE004A
:10C910000603E900030033008582D1000482D300BE
:10C92000FBFF3700A3852000841950008591580033
:10C930000B003700850252000003BE008502E900AB
:10C94000030033008783D1000683D300FBFF370049
:10C95000A18520008218530083905B00F442880078
:10C96000D0428000E1428000E00F5000E08F58008C
:10C970000A003200F4FF2F00F57F20000002420081
:10C9800081824A00E2FF2F00F3FF2000820F520055
:10C99000838F5A000400360023003700E085200012
:10C9A0000008EB0020003700F2428000F8FF2F0063
:10C9B000F97F2000E6FF2F00F7FF20000000400075
:10C9C000818048000201E9000002440081824C009D
:10C9D000860F5200878F5A00F8FF3600D042880039
:10C9E000E1428800F24288000F003700848F520035
:10C9F0000D003C0060011100E0811900D242880066
:10CA0000E3428800F4428800E00F5100E08F5900B3
:10CA100005003A006000B800D0428800E14288007A
:10CA2000E08520000008EB000043800011438000F7
:10CA3000E00F5000E08F580009003A00D0908000CD
:10CA4000E190800060001000E08018000043880042
:10CA500011438800F1908000214388005500370081
:10CA6000D2908000E3908000E00F5100E08F5900E9
:10CA70005000320025438000F4908000048352006F
:10CA80007B04430067032000870F54003A003E00F8
:10CA9000848F52000A0034000202BE000603E9003F
:10CAA000030033008582D1000482D300FBFF3700EE
:10CAB0000386200084195000859158000B00370030
:10CAC000850252000003BE008502E9000300330026
:10CAD0008783D1000683D300FBFF37000186200047
:10CAE0008218530083905B00244388000043800039
:10CAF00011438000E00F5000E08F58000A00320020
:10CB0000F4FF2F00F57F20000002420081824A00DE
:10CB1000E2FF2F00F3FF2000820F5200838F5A00A4
:10CB20000400360023003700408620000008EB0098
:10CB30002000370022438000F8FF2F00F97F2000FB
:10CB4000E6FF2F00F7FF2000000040008180480032
:10CB50000201E9000002440081824C00860F52006D
:10CB6000878F5A00F8FF3600004388001143880081
:10CB7000224388000F003700848F52000D003C00D4
:10CB800060011100E081190002438800134388000E
:10CB900024438800E00F5100E08F590005003A005F
:10CBA0006000B800004388001143880040862000E0
:10CBB0000008EB003043800041438000E00F50004C
:10CBC000E08F580009003A00009180001191800028
:10CBD00060001000E0801800304388004143880066
:10CBE0002191800051438800550037000291800058
:10CBF00013918000E00F5100E08F59005000320087
:10CC00005543800024918000048352007B0443003C
:10CC100067032000870F54003A003E00848F5200C3
:10CC20000A0034000202BE000603E90003003300DC
:10CC30008582D1000482D300FBFF37006386200089
:10CC400084195000859158000B003700850252006E
:10CC50000003BE008502E900030033008783D10092
:10CC60000683D300FBFF3700618620008218530043
:10CC700083905B0054438800304380004143800030
:10CC8000E00F5000E08F58000A003200F4FF2F0040
:10CC9000F57F20000002420081824A00E2FF2F005F
:10CCA000F3FF2000820F5200838F5A0004003600E9
:10CCB00023003700A08620000008EB00200037008A
:10CCC00052438000F8FF2F00F97F2000E6FF2F007D
:10CCD000F7FF200000004000818048000201E900C9
:10CCE0000002440081824C00860F5200878F5A0058
:10CCF000F8FF3600304388004143880052438800E3
:10CD00000F003700848F52000D003C0060011100BD
:10CD1000E08119003243880043438800544388006F
:10CD2000E00F5100E08F590005003A006000B800A4
:10CD30003043880041438800A08620000008EB00B3
:10CD40006043800071438000E00F5000E08F580086
:10CD500009003A003091800041918000600010008D
:10CD6000E080180060438800714388005191800082
:10CD70008143880055003700329180004391800044
:10CD8000E00F5100E08F59005000320085438000D1
:10CD900054918000048352007B0443006703200009
:10CDA000870F54003A003E00848F52000A0034007E
:10CDB0000202BE000603E900030033008582D100B1
:10CDC0000482D300FBFF3700C38620008419500083
:10CDD000859158000B003700850252000003BE0009
:10CDE0008502E900030033008783D1000683D30066
:10CDF000FBFF3700C18620008218530083905B0040
:10CE0000844388006043800071438000E00F50003D
:10CE1000E08F58000A003200F4FF2F00F57F200059
:10CE20000002420081824A00E2FF2F00F3FF20004F
:10CE3000820F5200838F5A0004003600230037000F
:10CE4000008720000008EB002000370082438000AC
:10CE5000F8FF2F00F97F2000E6FF2F00F7FF2000EA
:10CE600000004000818048000201E9000002440007
:10CE700081824C00860F5200878F5A00F8FF3600DF
:10CE80006043880071438800824388000F003700A8
:10CE9000848F52000D003C0060011100E0811900F8
:10CEA000624388007343880084438800E00F510088
:10CEB000E08F590005003A006000B8006043880028
:10CEC00071438800008720000008EB000000EB00A1
:10CED0004F04BE00000006002F03B000889FBE0074
:10CEE0008A9FBE008C9FBE008E1F7800F04080009D
:10CEF0000141800060918800719188001E4180008E
:10CF00008E918800284180003941800098918800E6
:10CF1000A991880042418000B29188005C41800064
:10CF20006D418000CC918800DD91880073418000C4
:10CF3000E39188008A4180009B418000FA9188003B
:10CF40000B928800AB4180001B9288004309DD00F2
:10CF50004D05DE000A057100CD8DDE000AD8B9004E
:10CF6000000040000A51B80082B79F0093B79F00AD
:10CF70008301400093B79F000FB197009FB19700C6
:10CF80004E1ADD004210DE0000007200C298DE0082
:10CF900020928800319288000E004700B0A79F00C1
:10CFA00080242100BFA097007C884000434ADD0018
:10CFB000CD41DE0083017200B3B79F004DC8DE0093
:10CFC000C0B79F00000178000390B9000000400046
:10CFD0000319B800E2AF9F00F3AF9F008301400048
:10CFE000F3AF9F006FA99700FFA997004E1ADD00CD
:10CFF0004210DE0000007200C298DE0050928800ED
:10D00000619288004841800008044400C8A79F003E
:10D01000E02421007C0844004368DD004D64DE000C
:10D0200008047000CDECDE0008C8B9000000400024
:10D030000841B80082AF9F0093AF9F00830140007A
:10D0400093AF9F000FAE97009FAE97004E69DD0033
:10D050004260DE0000007100C2E8DE0080928800BD
:10D06000919288007341800083814100A3A79F00B3
:10D07000402521007C8841008C4180009D4180003A
:10D080004369DD004D60DE0000007100CDE8DE0088
:10D09000008EB9000C0646000001B800A2AF9F0048
:10D0A000B3AF9F0083014600B3AF9F002FA9970045
:10D0B000BFA997004E1ADD004216DE000C06720072
:10D0C000C29EDE00BC928800CD928800AC418000F8
:10D0D0000C0646009CA79F00AC2521009FA6970048
:10D0E0007C8E46000FB697009FB697004169DD0021
:10D0F000CF66DE008D0671009FB19700CF99DE00EC
:10D10000030678000AE2B9000D01780002DEB900DA
:10D1100004064600820178000A19B80082B79F0011
:10D1200093B79F008301460093B79F000FB197000C
:10D130009FB197004E1ADD004216DE000C06720009
:10D14000C29EDE00EC928800FD9288008D032000D4
:10D150008E8646000C2621003FA19700028E4600D5
:10D160006FA99700FFA99700411ADD00CF11DE00DB
:10D170008301720083B79F007FAE97004FE6DE0009
:10D180008C0678003FB1970002EAB900CFB1970052
:10D190000FB19700029EB900040646008201780094
:10D1A0003FB197000219B80082B79F0093B79F0064
:10D1B0008301460093B79F000FB197009FB197007E
:10D1C0004E1ADD004216DE000C067200C29EDE0022
:10D1D0001C9388002D9388004D4180008D03B00082
:10D1E0006C2621004FA19700028E46000FA99700E0
:10D1F0009FA99700411ADD00CF11DE008301720064
:10D200001FAE97004FE6DE008C06780008EAB900F2
:10D210000301780002CEB9000406460082017800BE
:10D220000819B80082B79F0093B79F00830146009A
:10D2300093B79F000FB197009FB197004E1ADD0082
:10D240004216DE000C067200C29EDE004C9388007F
:10D250005D9388007C4180008C03B000ECA79F00A8
:10D26000CC262100EFA697002FA19700028E460042
:10D270002FA99700BFA99700411ADD00CF11DE004A
:10D28000830172003FAE97004FE6DE008C06780007
:10D2900000EAB90003017800028EB90004064600D6
:10D2A000820178000019B80082B79F0093B79F00F1
:10D2B0008301460093B79F000FB197009FB197007D
:10D2C0004E1ADD004216DE000C067200C29EDE0021
:10D2D0007C9388008D938800AC4180008C03B00063
:10D2E0008CAF9F002C2721008FAE97001FA19700C5
:10D2F000028E4600CFB197000A9AB9003FB197005D
:10D3000002DEB90004064600820178000A19B8005E
:10D3100082B79F0093B79F008301460093B79F0099
:10D320000FB197009FB197004E1ADD004216DE0044
:10D330000C067200C29EDE00AC938800BD9388008C
:10D340004C4180000E064600ACAF9F008C272100A8
:10D35000AFAE97007C8E46000ACAB90008DEB9005D
:10D36000040646000A41B800E2AF9F00F3AF9F00F9
:10D3700083014600F3AF9F006FA99700FFA99700B4
:10D380004E1ADD004216DE000C067200C29EDE0060
:10D39000DC938800ED9388007C4180000E064600F7
:10D3A000BCA79F00EC272100BFA697007C8E4600FB
:10D3B0000A8AB90000DEB900040246000A06B80075
:10D3C0008D0642004E69DD004265DE000A057100EF
:10D3D000C2EDDE000A9488001B948800A3418000FF
:10D3E000030747004A2821007C0D47003FB2970001
:10D3F00004CEB9004FB7970008F5B9000C054500F9
:10D40000040178000246B8008D064500CE69DD00B3
:10D410004265DE000A857100C2EDDE003A948800A4
:10D420004B948800744180004A4180000A07420002
:10D43000AA2821007C0D4700820578000B8AB900DC
:10D440004FB197000095B90004054500BFB19700A2
:10D450000301B800B2B79F00C3B79F008301450026
:10D46000C3B79F003FB19700CFB197004E1ADD00C0
:10D470004215DE000A057200C29DDE006A94880033
:10D480007B9488004A418000A241800082054500CB
:10D490000A2921007C8D4500088AB90000CDB90019
:10D4A000040545000801B800B2B79F00C3B79F004C
:10D4B00083014500C3B79F003FB19700CFB19700EC
:10D4C0004E1ADD004215DE000A057200C29DDE0024
:10D4D0009A948800AB9488007A418000A241800031
:10D4E000820545006A2921007C8D4500C169DD0067
:10D4F0004F65DE000A857100CFEDDE0000DAB9006D
:10D500000A8EB900040646000055B8008B05460097
:10D510004E5ADD004256DE000C067200C2DEDE000E
:10D52000CC948800DD948800CA2921008FAD970033
:10D530000B0D47006FAE9700FFAE9700416FDD0007
:10D540004F65DE000A057700CFEDDE0000DAB90096
:10D550000A8EB900040646000055B8008B05460047
:10D560004E59DD004256DE000C067100C2DEDE00C0
:10D57000FC9488000D9588002A2A2100BFA19700FD
:10D580000FAA9700048D41000FB697009FB6970031
:10D59000416FDD004F65DE000A057700CFEDDE004C
:10D5A00000DAB9000A8EB900040646000050B8003F
:10D5B000810046004E09DD004206DE000C067100C7
:10D5C000C28EDE002C9588003D958800802A2100BF
:10D5D000AFA997000FAA97000488410008DEB900A0
:10D5E0000AC8B9000C0040000854B8008904400083
:10D5F0004E4DDD004240DE0000007500C2C8DE0076
:10D600005095880061958800E02A2100EFA59700D9
:10D610000B884100E0418000F14180008095880046
:10D62000919588000E428000AE95880018428000D7
:10D6300029428000B8958800C99588003C42800046
:10D64000DC9588004C4280005D428000EC958800AB
:10D65000FD95880062428000029688007A42800030
:10D660008B4280001A9688002B9688009B4280008F
:10D670003B9688004309DD004D05DE000A05710078
:10D68000CD8DDE000AD8B900000040000A51B80074
:10D6900082B79F0093B79F008301400093B79F001C
:10D6A0000FB197009FB197004E1ADD004210DE00C7
:10D6B00000007200C298DE004096880051968800F3
:10D6C0000E004700B0A79F00C02C2100BFA097000C
:10D6D0007C884000434ADD00CD41DE0083017200BA
:10D6E000B3B79F004DC8DE00C0B79F0000017800AF
:10D6F0000390B900000040000319B800E2AF9F009A
:10D70000F3AF9F0083014000F3AF9F006FA9970024
:10D71000FFA997004E1ADD004210DE0000007200E3
:10D72000C298DE007096880081968800384280009A
:10D7300008044400C8A79F00202D21007C08440055
:10D740004368DD004D64DE0008047000CDECDE00AF
:10D7500008C8B900000040000841B80082AF9F002F
:10D7600093AF9F008301400093AF9F000FAE9700DF
:10D770009FAE97004E69DD004260DE000000710040
:10D78000C2E8DE00A0968800B1968800634280005F
:10D7900083814100A3A79F00802D21007C88410048
:10D7A0007C4280008D4280004369DD004D60DE00D8
:10D7B00000007100CDE8DE00008EB9000C064600C6
:10D7C0000001B800A2AF9F00B3AF9F0083014600E5
:10D7D000B3AF9F002FA99700BFA997004E1ADD0095
:10D7E0004216DE000C067200C29EDE00DC96880047
:10D7F000ED9688009C4280000C0646009CA79F0086
:10D80000EC2D21009FA697007C8E46000FB6970056
:10D810009FB697004169DD00CF66DE008D0671007E
:10D820009FB19700CF99DE00030678000AE2B900A5
:10D830000D01780002DEB90004064600820178007E
:10D840000A19B80082B79F0093B79F008301460072
:10D8500093B79F000FB197009FB197004E1ADD005C
:10D860004216DE000C067200C29EDE000C97880095
:10D870001D9788008D0320008E8646004C2E2100C7
:10D880003FA19700028E46006FA99700FFA997005D
:10D89000411ADD00CF11DE008301720083B79F00C3
:10D8A0007FAE97004FE6DE008C0678003FB1970010
:10D8B00002EAB900CFB197000FB19700029EB900FC
:10D8C00004064600820178003FB197000219B800B3
:10D8D00082B79F0093B79F008301460093B79F00D4
:10D8E0000FB197009FB197004E1ADD004216DE007F
:10D8F0000C067200C29EDE003C9788004D9788009F
:10D900003D4280008D03B000AC2E21004FA1970056
:10D91000028E46000FA997009FA99700411ADD00CB
:10D92000CF11DE00830172001FAE97004FE6DE00CC
:10D930008C06780008EAB9000301780002CEB9002D
:10D9400004064600820178000819B80082B79F00DB
:10D9500093B79F008301460093B79F000FB19700D4
:10D960009FB197004E1ADD004216DE000C067200D1
:10D97000C29EDE006C9788007D9788006C42800014
:10D980008C03B000ECA79F000C2F2100EFA697009E
:10D990002FA19700028E46002FA99700BFA99700DC
:10D9A000411ADD00CF11DE00830172003FAE970007
:10D9B0004FE6DE008C06780000EAB900030178002B
:10D9C000028EB90004064600820178000019B800F2
:10D9D00082B79F0093B79F008301460093B79F00D3
:10D9E0000FB197009FB197004E1ADD004216DE007E
:10D9F0000C067200C29EDE009C978800AD978800DE
:10DA00009C4280008C03B0008CAF9F006C2F2100E3
:10DA10008FAE97001FA19700028E4600CFB19700EE
:10DA20000A9AB9003FB1970002DEB9000406460029
:10DA3000820178000A19B80082B79F0093B79F004F
:10DA40008301460093B79F000FB197009FB19700E5
:10DA50004E1ADD004216DE000C067200C29EDE0089
:10DA6000CC978800DD9788003C4280000E06460077
:10DA7000ACAF9F00CC2F2100AFAE97007C8E46004C
:10DA80000ACAB90008DEB900040646000A41B80017
:10DA9000E2AF9F00F3AF9F0083014600F3AF9F000A
:10DAA0006FA99700FFA997004E1ADD004216DE000D
:10DAB0000C067200C29EDE00FC9788000D9888005C
:10DAC0006C4280000E064600BCA79F002C3021004F
:10DAD000BFA697007C8E46000A8AB90000DEB90016
:10DAE000040246000A06B8008D0642004E69DD00B9
:10DAF0004265DE000A057100C2EDDE002A9888004A
:10DB00003B98880093428000030747008A30210039
:10DB10007C0D47003FB2970004CEB9004FB7970085
:10DB200008F5B9000C054500040178000246B8006C
:10DB30008D064500CE69DD004265DE000A85710074
:10DB4000C2EDDE005A9888006B988800644280001D
:10DB50003A4280000A074200EA3021007C0D47006B
:10DB6000820578000B8AB9004FB197000095B90083
:10DB700004054500BFB197000301B800B2B79F008C
:10DB8000C3B79F0083014500C3B79F003FB1970013
:10DB9000CFB197004E1ADD004215DE000A05720073
:10DBA000C29DDE008A9888009B9888003A428000D7
:10DBB00092428000820545004A3121007C8D45005B
:10DBC000088AB90000CDB900040545000801B80075
:10DBD000B2B79F00C3B79F0083014500C3B79F0042
:10DBE0003FB19700CFB197004E1ADD004215DE001D
:10DBF0000A057200C29DDE00BA988800CB988800A2
:10DC00006A4280009242800082054500AA312100CC
:10DC10007C8D4500C169DD004F65DE000A8571001D
:10DC2000CFEDDE0000DAB9000A8EB9000406460026
:10DC30000055B8008B0546004E5ADD004256DE0006
:10DC40000C067200C2DEDE00EC988800FD988800A9
:10DC50000A3221008FAD97000B0D47006FAE970081
:10DC6000FFAE9700416FDD004F65DE000A057700CB
:10DC7000CFEDDE0000DAB9000A8EB90004064600D6
:10DC80000055B8008B0546004E59DD004256DE00B7
:10DC90000C067100C2DEDE001C9988002D998800F8
:10DCA0006A322100BFA197000FAA9700048D41009E
:10DCB0000FB697009FB69700416FDD004F65DE00FD
:10DCC0000A057700CFEDDE0000DAB9000A8EB90050
:10DCD000040646000050B800810046004E09DD00F1
:10DCE0004206DE000C067100C28EDE004C998800F0
:10DCF0005D998800C0322100AFA997000FAA970054
:10DD00000488410008DEB9000AC8B9000C004000D0
:10DD10000854B800890440004E4DDD004240DE004A
:10DD200000007500C2C8DE007099880081998800E3
:10DD300020332100EFA597000B884100D0428000DE
:10DD4000E1428000A0998800B1998800FE428000DD
:10DD5000CE9988000843800019438000D899880034
:10DD6000E99988002C438000FC9988003C4380009E
:10DD70004D4380000C9A88001D9A88005243800011
:10DD8000229A88006A4380007B4380003A9A880088
:10DD90004B9A88008B4380005B9A88004309DD0022
:10DDA0004D05DE000A057100CD8DDE000AD8B900F0
:10DDB000000040000A51B80082B79F0093B79F004F
:10DDC0008301400093B79F000FB197009FB1970068
:10DDD0004E1ADD004210DE0000007200C298DE0024
:10DDE000609A8800719A88000E004700B0A79F00D3
:10DDF00000352100BFA097007C884000434ADD0029
:10DE0000CD41DE0083017200B3B79F004DC8DE0034
:10DE1000C0B79F00000178000390B90000004000E7
:10DE20000319B800E2AF9F00F3AF9F0083014000E9
:10DE3000F3AF9F006FA99700FFA997004E1ADD006E
:10DE40004210DE0000007200C298DE00909A880046
:10DE5000A19A88002843800008044400C8A79F00B6
:10DE6000603521007C0844004368DD004D64DE001D
:10DE700008047000CDECDE0008C8B90000004000C6
:10DE80000841B80082AF9F0093AF9F00830140001C
:10DE900093AF9F000FAE97009FAE97004E69DD00D5
:10DEA0004260DE0000007100C2E8DE00C09A880017
:10DEB000D19A88005343800083814100A3A79F002B
:10DEC000C03521007C8841006C4380007D43800088
:10DED0004369DD004D60DE0000007100CDE8DE002A
:10DEE000008EB9000C0646000001B800A2AF9F00EA
:10DEF000B3AF9F0083014600B3AF9F002FA99700E7
:10DF0000BFA997004E1ADD004216DE000C06720013
:10DF1000C29EDE00FC9A88000D9B88008C43800026
:10DF20000C0646009CA79F002C3621009FA6970058
:10DF30007C8E46000FB697009FB697004169DD00C2
:10DF4000CF66DE008D0671009FB19700CF99DE008D
:10DF5000F3A79F00030678000AE2B9000D017800DC
:10DF600002DEB90004064600820178000A19B800F2
:10DF700082B79F0093B79F008301460093B79F002D
:10DF80000FB197009FB197004E1ADD004216DE00D8
:10DF90000C067200C29EDE002C9B88003D9B880010
:10DFA0008D0320008E8646008C3621003FA197000D
:10DFB000028E46006FA99700FFA99700411ADD0065
:10DFC000CF11DE008301720083B79F007FAE970000
:10DFD0004FE6DE008C0678003FB1970002EAB900F8
:10DFE000CFB197000FB19700029EB900040646001A
:10DFF000820178003FB197000219B80082B79F00F4
:10E0000093B79F008301460093B79F000FB197001D
:10E010009FB197004E1ADD004216DE000C0672001A
:10E02000C29EDE005C9B88006D9B88002D438000B3
:10E030008D03B000EC3621004FA19700028E460000
:10E040000FA997009FA99700411ADD00CF11DE00AC
:10E05000830172001FAE97004FE6DE008C06780049
:10E0600008EAB9000301780002CEB90004064600B0
:10E07000820178000819B80082B79F0093B79F000B
:10E080008301460093B79F000FB197009FB197009F
:10E090004E1ADD004216DE000C067200C29EDE0043
:10E0A0008C9B88009D9B88005C4380008C03B000A3
:10E0B000ECA79F004C372100EFA697002FA19700F7
:10E0C000028E46002FA99700BFA99700411ADD00D4
:10E0D000CF11DE00830172003FAE97004FE6DE00F5
:10E0E0008C06780000EAB90003017800028EB900BE
:10E0F00004064600820178000019B80082B79F002C
:10E1000093B79F008301460093B79F000FB197001C
:10E110009FB197004E1ADD004216DE000C06720019
:10E12000C29EDE00BC9B8800CD9B88008C43800093
:10E130008C03B0008CAF9F00AC3721008FAE9700EE
:10E140001FA19700028E4600CFB197000A9AB9002E
:10E150003FB1970002DEB900040646008201780054
:10E160000A19B80082B79F0093B79F008301460049
:10E1700093B79F000FB197009FB197004E1ADD0033
:10E180004216DE000C067200C29EDE00EC9B880088
:10E19000FD9B88002C4380000E064600ACAF9F001C
:10E1A0000C382100AFAE97007C8E46000ACAB90039
:10E1B00008DEB900040646000A41B800E2AF9F003D
:10E1C000F3AF9F0083014600F3AF9F006FA9970054
:10E1D000FFA997004E1ADD004216DE000C06720001
:10E1E000C29EDE001C9C88002D9C88005C43800041
:10E1F0000E064600BCA79F006C382100BFA6970002
:10E200007C8E46000A8AB90000DEB900040246008E
:10E210000A06B8008D0642004E69DD004265DE0048
:10E220000A057100C2EDDE004A9C88005B9C8800F4
:10E230008343800003074700CA3821007C0D470054
:10E240003FB2970004CEB9004FB7970008F5B90068
:10E250000C054500040178000246B8008D06450013
:10E26000CE69DD004265DE000A857100C2EDDE0088
:10E270007A9C88008B9C8800544380002A4380004D
:10E280000A0742002A3921007C0D470082057800E8
:10E290000B8AB9004FB197000095B90004054500FD
:10E2A000BFB197000301B800B2B79F00C3B79F008A
:10E2B00083014500C3B79F003FB19700CFB19700DE
:10E2C0004E1ADD004215DE000A057200C29DDE0016
:10E2D000AA9C8800BB9C88002A438000824380005F
:10E2E000820545008A3921007C8D4500088AB900E5
:10E2F00000CDB900040545000801B800B2B79F0081
:10E30000C3B79F0083014500C3B79F003FB197008B
:10E31000CFB197004E1ADD004215DE000A057200EB
:10E32000C29DDE00DA9C8800EB9C88005A43800086
:10E330008243800082054500EA3921007C8D45003A
:10E34000C169DD004F65DE000A857100CFEDDE009A
:10E3500000DAB9000A8EB900040646000055B8007C
:10E360008B0546004E5ADD004256DE000C06720058
:10E37000C2DEDE000C9D88001D9D88004A3A210007
:10E380008FAD97000B0D47006FAE9700FFAE970063
:10E39000416FDD004F65DE000A057700CFEDDE003E
:10E3A00000DAB9000A8EB900040646000055B8002C
:10E3B0008B0546004E59DD004256DE000C0671000A
:10E3C000C2DEDE003C9D88004D9D8800AA3A2100F7
:10E3D000BFA197000FAA9700048D41000FB69700C8
:10E3E0009FB69700416FDD004F65DE000A0577009C
:10E3F000CFEDDE0000DAB9000A8EB900040646004F
:10E400000050B800810046004E09DD004206DE00E3
:10E410000C067100C28EDE006C9D88007D9D880018
:10E42000003B2100AFA997000FAA97000488410084
:10E4300008DEB9000AC8B9000C0040000854B80052
:10E44000890440004E4DDD004240DE0000007500B2
:10E45000C2C8DE00909D8800A19D8800603B21001D
:10E46000EFA597000B8841000000200001802000EC
:10E47000C09D8800D19D880050FE2F00E09D88003F
:10E48000EC3B2100DCAF9F00E4064600CDAF9F00CF
:10E490000007EB008EB79F00DFAC97006000B8006C
:10E4A000808CBE004FAE97008005EB000B0E78000D
:10E4B000C02221008FB69700666DB9008E872000BC
:10E4C0008A004700ACAF9F001105BE00435ADD0033
:10E4D0004D51DE0002017200CDD9DE001005BE00F4
:10E4E000435BDD004D52DE0004027300CDDADE0036
:10E4F000049DB90002AEB9000A0446000415B80034
:10E500008B0544004E5CDD004253DE0006037400C0
:10E51000C2DBDE00200590002104900008044500C5
:10E520007C0444001905BE00E00F5500E08F5D003B
:10E5300004003A00868CBE002FAD9700080D7800CD
:10E540003E003700E00F5300E08F5B003B003200DD
:10E550002FAE97009C06780008875600AEB79F0044
:10E560007B0647006E0320008E0F56002E003E00F3
:10E570008D0F54000C003D000606BE002FB797001B
:10E580000E07E900030033008D86D1000C86D3000E
:10E59000FBFF3700BCB79F00CDB79F008A1C460029
:10E5A0008B944E000A0037000D0754000E07E90057
:10E5B000030033008B85D1000A85D300FBFF3700B1
:10E5C000861C450087944D002FAD9700080D7800FC
:10E5D0001906BE00BCB79F00CDB79F000A002000FF
:10E5E0000B0021000C0545008D854D00EAAF9F0012
:10E5F000FBAF9F00FCFF2F00FDFF21008C0F55009B
:10E600008D8F5D000D0036003FB69700CFB69700A6
:10E610008D85D1000C85D3008A8CBE00AFAE9700EB
:10E620009D0EE800050037008D0F540003003500F3
:10E63000868CBE002FAF9700080F78006600400060
:10E640004102B000EA3B21008A0F50009EFF3A00D1
:10E650008FB597008B05E8008BB79F005FAE9700E2
:10E6600066064600DCAF9F00CFAE9700E686460008
:10E67000CDAF9F00E68F550087FF3A00169F8800B8
:10E68000279F8800389F8800F09D8000019E8000B1
:10E690005A4D020000000000129E80008E4D0200C4
:10E6A00000000000429F8000539F80000450020041
:10E6B00000000000DC4C02000000000090408800D8
:10E6C000209E8000319E80005A4D02000000000014
:10E6D000429E80008E4D020000000000629F80007C
:10E6E000739F80000450020000000000DC4C020018
:10E6F00000000000A0408800509E8000619E8000C5
:10E700005A4D020000000000729E80008E4D0200F3
:10E7100000000000829F8000939F80000450020050
:10E7200000000000DC4C020000000000B040880047
:10E73000809E8000919E80005A4D020000000000E3
:10E74000A29E80008E4D020000000000A29F80006B
:10E75000B39F80000450020000000000DC4C020067
:10E7600000000000C0408800B09E8000C19E800074
:10E770005A4D020000000000D29E80008E4D020023
:10E7800000000000C29F8000D39F80000450020060
:10E7900000000000DC4C020000000000D0408800B7
:10E7A000E09E8000F19E80005A4D020000000000B3
:10E7B000029F80008E4D020000000000E29F80005A
:10E7C000F39F80000450020000000000DC4C0200B7
:10E7D00000000000E04088000000EB004F077800D8
:10E7E0004F06BE004F05BE004F04BE002F03B10010
:10E7F00000000600889FBE008A9FBE008C1F780024
:10E8000080872000D0A80200000000000005EB0077
:10E810003A4088004A4088005A4088006A40880090
:10E820007A4088008A4088000046EB004080200043
:10E830000A4878000C407800A8A6020000000000FA
:10E84000CF80DE005A4D020000000000D2CC2C0028
:10E85000C3F82300045002000000000000A088005C
:10E8600011A0880010C0B300A8A60200000000009C
:10E87000CF80DE005A4D020000000000D2CC2C00F8
:10E88000C3F82300045002000000000020A088000C
:10E8900031A0880020C0B300A8A60200000000003C
:10E8A000CF80DE005A4D020000000000D2CC2C00C8
:10E8B000C3F82300045002000000000040A08800BC
:10E8C00051A088000C407800B8A6020000000000AB
:10E8D000CF80DE005A4D020000000000D2CC2C0098
:10E8E000C3F82300045002000000000060A088006C
:10E8F00071A0880010C0B300B8A60200000000009C
:10E90000CF80DE005A4D020000000000D2CC2C0067
:10E91000C3F82300045002000000000080A088001B
:10E9200091A0880020C0B300B8A60200000000003B
:10E93000CF80DE005A4D020000000000D2CC2C0037
:10E94000C3F823000450020000000000A0A08800CB
:10E95000B1A0880030C0B300A8A6020000000000EB
:10E96000CF80DE005A4D020000000000D2CC2C0007
:10E97000C3F823000450020000000000C0A088007B
:10E98000D1A0880040C0B300A8A60200000000008B
:10E99000CF80DE005A4D020000000000D2CC2C00D7
:10E9A000C3F823000450020000000000E0A088002B
:10E9B000F1A0880050C0B300A8A60200000000002B
:10E9C000CF80DE005A4D020000000000D2CC2C00A7
:10E9D000C3F82300045002000000000000A18800DA
:10E9E00011A1880030C0B300B8A6020000000000EA
:10E9F000CF80DE005A4D020000000000D2CC2C0077
:10EA0000C3F82300045002000000000020A1880089
:10EA100031A1880040C0B300B8A602000000000089
:10EA2000CF80DE005A4D020000000000D2CC2C0046
:10EA3000C3F82300045002000000000040A1880039
:10EA400051A1880050C0B300B8A602000000000029
:10EA5000CF80DE005A4D020000000000D2CC2C0016
:10EA6000C3F82300045002000000000060A18800E9
:10EA700071A188000C407800A8A6020000000000E8
:10EA8000000478000C407800CAA6020000000000D4
:10EA9000800578006140B9005A4D02000000000076
:10EAA0000004BE006158B9005A4D02000000000089
:10EAB0000001BE000800BE00485202000000000035
:10EAC000409F8800519F880010C0B300A8A6020094
:10EAD000000000000004780010C0B300CAA60200C5
:10EAE00000000000800578006140B9005A4D020026
:10EAF000000000000004BE006158B9005A4D020039
:10EB0000000000000001BE000800BE0048520200E4
:10EB100000000000609F8800719F880020C0B30043
:10EB2000A8A60200000000000004780020C0B30086
:10EB3000CAA6020000000000800578006140B9000C
:10EB40005A4D0200000000000004BE006158B900E8
:10EB50005A4D0200000000000001BE000800BE0087
:10EB60004852020000000000809F8800919F8800AA
:10EB700030C0B300A8A60200000000000004780026
:10EB800030C0B300CAA60200000000008005780073
:10EB90006140B9005A4D0200000000000200200050
:10EBA000A347240004500200000000000004BE003F
:10EBB0006158B9005A4D0200000000000001BE007B
:10EBC0000800BE004852020000000000A09F88001C
:10EBD000B19F880040C0B300A8A60200000000005A
:10EBE0000004780040C0B300CAA602000000000084
:10EBF000800578006140B9005A4D02000000000015
:10EC000002002000A347240004500200000000007E
:10EC10000004BE006158B9005A4D02000000000017
:10EC20000001BE000800BE004852020000000000C3
:10EC3000C09F8800D19F880050C0B300A8A60200E2
:10EC4000000000000004780050C0B300CAA6020013
:10EC500000000000800578006140B9005A4D0200B4
:10EC60000000000002002000A3472400045002001E
:10EC7000000000000004BE006158B9005A4D0200B7
:10EC8000000000000001BE000800BE004852020063
:10EC900000000000E09F8800F19F88003080200085
:10ECA0000C487800208020000C4878000A0078008A
:10ECB0004F0678004F05BE004F04BE00000006005E
:10ECC000DAF3070084F8070076F307000000EB0092
:10ECD000000006000000EB0000000600218120007B
:10ECE000628020006C83400081017800020278007D
:10ECF000B1037800B2825300C82ADE0005487800CC
:10ED00009301780094C15100134098000080E800FE
:10ED1000868F5000F4FF3A000000EB000000060070
:10ED20009040800030408800A04080004040880033
:10ED3000B040800050408800C040800060408800A3
:10ED4000D040800070408800E04080008040880013
:10ED500011C0B30040802000014878000000EB00A3
:10ED6000000006000000EB003040880040408800B2
:10ED700050408800604088007040880080408800D3
:10ED8000418020008048780000000600408020007C
:10ED9000104078000000060030802000104078000D
:10EDA00000000600208020001040780000000600CF
:10EDB000889FBE000040EB00FE90020000000000B3
:10EDC000000478000040EB00C6990200000000003B
:10EDD000080440000040EB001E9802000000000004
:10EDE000000444008040EB000140780004930200DE
:10EDF000000000008004440081C0B3000040EB002C
:10EE0000309602000000000000047800020120009B
:10EE1000419A220080992200A2A502000000000071
:10EE20000884440008F0A7000804EA000800EA008B
:10EE30004F00DE004F04BE00000006000040EB0063
:10EE4000189402000000000000F0A7000000EA0093
:10EE50000000EA004F00DE0000000600889FBE00B0
:10EE60008A9FBE0000447800629B22002106200099
:10EE70000040EB00B29B020000000000000578009B
:10EE8000E14F540042003A00609B2200904078001D
:10EE900080992200C2A5020000000000D04C810031
:10EEA000419A2200614178000281FB000000E800E5
:10EEB0006F006000C44C810011C0B300800F52008D
:10EEC0000B003200459A2200E54178008381FB0067
:10EED000030141000000E8006F0060008140E8008D
:10EEE000840F500002003200F0CF5000F6FF3A00CD
:10EEF0008180FB0081017800110009000381D800A6
:10EF0000000178008001EB00C24B8900D34B8900DF
:10EF1000429B2200610620000040EB00789B02002B
:10EF20000000000000054500CB9722001B00BE003A
:10EF30005A4D0200000000003233230033F7230053
:10EF400004500200000000000004BE00A04D81003B
:10EF50008000EB00604D020000000000D2CC2C00CD
:10EF6000C3D4230004500200000000000001BE00D2
:10EF70000800BE003A4E0200000000001E4D0200D4
:10EF8000000000008000EB00808DBE00050037000F
:10EF9000609B22001080FB008000EB00C04B8900CA
:10EFA000D14B8900629B2200D10420000040EB007D
:10EFB000B29B020000000000619B22001181FB0057
:10EFC0008001EB00024C8900134C89000A004000CC
:10EFD00000F0A7000000EA000000EA004F00DE0099
:10EFE0004F05BE004F04BE0000000600C14B81006B
:10EFF000014878000000EB0000000600014C810091
:10F00000014878000000EB0000000600E14B8100A1
:10F01000010878000000EB00000006000040EB0053
:10F0200036910200000000000001BE004718DD001C
:10F03000C910DE00810070004710DD00823E200014
:10F040000300200010510200000000000000060034
:10F050000040EB00229102000000000000000600CA
:10F06000800078000040EB004A9802000000000099
:10F0700000000600804078000040EB00289102006C
:10F080000000000000000600619722008048780020
:10F090000000EB0000000600605E2200A23E21009E
:10F0A00093EF23000288BE00B260270033F02300F4
:10F0B00022009800330098006084220092C225004C
:10F0C000F3F723000288BE00A2702D0033B22300A4
:10F0D0002200980033009800206A2200EEA6020069
:10F0E00000000000E10F50000C003A00206A2200EE
:10F0F0007CA6020000000000206A220084A6020014
:10F1000000000000206A22008CA60200000000001F
:10F11000206A220094A60200000000000000EB001C
:10F1200000000600F4874700889FBE008A9FBE004B
:10F130008C9FBE008E1F7800A0632200A0B79F00A6
:10F140000183220091B79F00C27F220082B79F00F7
:10F150000000EB00D0B79F00DFB097006A0CB90049
:10F1600082822200820044002FE89700E08B020098
:10F1700000000000605E22001006BE00502F8100DB
:10F18000612F8100B0B79F00C1B79F000884E900DC
:10F190008182220001044400F8B79F005FB197000C
:10F1A0007410B9000007780064005700C17E220087
:10F1B00001004000E0B79F00A26222000207470062
:10F1C0000000EB0080BF9F00FFB097005100780067
:10F1D000F1B79F008000EB00604D020000000000CE
:10F1E0000004BE006FB1970000A9BE00E2B79F0007
:10F1F0001E01BE000C00BE00045002000000000012
:10F200000005BE003FB19700CFB197000800BE00D7
:10F2100004500200000000000001BE000A00BE0011
:10F220003A4E020000000000009FBE000FB8970099
:10F230000000E80080BF9F00E40F5000E2FF3A00AA
:10F240009FB09700110078008000EB00604D020035
:10F25000000000000005BE000FB197000089BE004D
:10F260002FB697001C04BE006011B8000800BE0055
:10F270007C4C0200000000000000E00002003A00A8
:10F280000A8EBE0010003700618422001101BE000A
:10F290000800BE0004500200000000000004BE0090
:10F2A00052428100634281000A00BE000450020005
:10F2B000000000000001BE000800BE003A4E02003F
:10F2C00000000000008EBE005FB197000201E80060
:10F2D000D2B79F002FB0970074004000A0B79F00E6
:10F2E0009FB09700EA80400091B79F000FB1970050
:10F2F0007401410082B79F005FB09700E30F500098
:10F3000095FF3A000000EB004F0778004F06BE0063
:10F310004F05BE004F04BE004F01B10000000600C3
:10F32000E4874700889FBE008A9FBE008C9FBE0076
:10F330008E1F7800AE632200AD6A22006067220053
:10F3400080BF9F000006EB001D0037005A007800C8
:10F35000CF80DE005A4D0200000000000001BE0018
:10F360005900BE00284E02000000000080ADBE0023
:10F370000804E800E40F5400F4FF3A001D00780090
:10F38000CF80DE005A4D0200000000000001BE00E8
:10F390001E00BE00284E0200000000000FB99700BA
:10F3A0000089BE000C06E80074074700EA864600A4
:10F3B0007401410082BF9F00E30F56000C00320031
:10F3C0007460B900E4055000A0622200808445000A
:10F3D0006A60B9000085E900226A22000205450042
:10F3E00060662200808545000004EB00D7FF3700EF
:10F3F0000000EB004F0778004F06BE004F05BE002F
:10F400004F04BE004F00B10000000600889FBE0000
:10F410008A9FBE008C9FBE008E1F78000007EB0005
:10F4200008002600A96E24000E0037005C01BE0013
:10F430005B00BE0004500200000000000801BE0096
:10F440003A4E02000000000080AEBE000A05E8004F
:10F45000E40F5500F5FF3A000E07E800E30F5700F0
:10F460000C0032007470B900E4065000606622009F
:10F47000808546004476DD007A064600206A220038
:10F4800000064600007B2200808646000005EB0057
:10F49000E6FF37000000EB004F0778004F06BE0084
:10F4A0004F05BE004F04BE0000000600F087470075
:10F4B000889FBE008A9FBE008C9FBE008E1F780072
:10F4C00060672200B0B79F0001722200D1B79F0091
:10F4D0000001EB00C2B79F000C002600AD6E2400B7
:10F4E0003FB29700A4B79F00040178001200BE004D
:10F4F0000001BE0004500200000000000005BE0034
:10F50000000320004FB2970000A0B900EE042000D5
:10F5100000074700206A2200000747007420B90056
:10F52000017B220081004000F1B79F00E25E2200D3
:10F530000201400082BF9F00C47E22000400400000
:10F54000E0B79F00FCA90200000000000004E000FA
:10F550001F0032001E01BE000A00BE00045002005F
:10F56000000000000004BE002FB097001001BE0094
:10F570002E009000BE009000045002000000000029
:10F580000001BE000800BE003A4E0200000000006C
:10F590004E019000DE0190003A4E02000000000093
:10F5A0000001BE000C00BE00485202000000000036
:10F5B0000001BE007FB297001400BE00045002009C
:10F5C000000000000FB997000089BE00040037005A
:10F5D0000FBA97006FB09700301A780020127800A9
:10F5E0006C074700FFB09700E4804000F1B79F0030
:10F5F0000FB997006401410082BF9F006FB297006E
:10F6000064024200E4B79F005FB097008E0F500085
:10F61000CCFF3A00CFB097008100E800C1B79F004F
:10F620003FB1970074014100B2B79F000003B000E2
:10F63000D0B79F00E38F5000A9FF3A000000EB0015
:10F640004F0778004F06BE004F05BE004F04BE00B6
:10F650000F01B10000000600889FBE008A9FBE0017
:10F660008C9FBE008E1F7800AD632200800578005D
:10F670000006EB00708756001B0037005900BE00E3
:10F680001E4D0200000000004800DE00004C780023
:10F690001900BE001E4D020000000000104498003A
:10F6A0000A05E8000884E800E40F5500F3FF3A007B
:10F6B0001D00BE001E4D0200000000004800DE00DC
:10F6C000804D98001D00BE001E4D0200000000008D
:10F6D000904D98000C06E800F4864600EA85450047
:10F6E000E30F5600060032007460B900E4045000D5
:10F6F0008E8444000B0478000005EB00DFFF370028
:10F700000000EB004F0778004F06BE004F05BE001B
:10F710004F04BE0000000600889FBE008A9FBE0006
:10F720008C9FBE008E1F7800AD632200800578009C
:10F730000006EB0070875600100037005900BE002D
:10F740001E4D020000000000001D78000804E800C3
:10F75000E40F5400F9FF3A001D00BE001E4D0200E8
:10F7600000000000C00598000C06E800F486460082
:10F77000EA854500E30F5600060032007460B900C8
:10F78000E40450008E8444000B0578000004EB0074
:10F79000EAFF37000000EB004F0778004F06BE007D
:10F7A0004F05BE004F04BE0000000600889FBE004B
:10F7B0008A9FBE008C9FBE008E1F7800AD63220022
:10F7C000800578000006EB00708756001B003700AC
:10F7D0005900BE001E4D0200000000004800DE007F
:10F7E000004C78001900BE001E4D02000000000011
:10F7F000104498000A05E8000884E800E40F55006A
:10F80000F3FF3A001D00BE001E4D02000000000084
:10F810004800DE00804D98001D00BE001E4D020015
:10F8200000000000904D98000C06E800F4864600A9
:10F83000EA854500E30F5600060032007460B90007
:10F84000E40450008E8444000B0478000005EB00B3
:10F85000DFFF37000000EB004F0778004F06BE00C7
:10F860004F05BE004F04BE0000000600E6874700BB
:10F87000889FBE008A9FBE008C9FBE008E1F7800AE
:10F88000A1632200F1B79F00800678000001EB0021
:10F8900082BF9F0008002000096024003EFF2F0067
:10F8A0001F0037000801BE005C00BE0004500200CB
:10F8B00000000000DC4C020000000000008DBE00D3
:10F8C0002E0598008B05E80066054500E48F55007D
:10F8D000F4FF3A000801BE007FB297001400BE009A
:10F8E0000450020000000000DC4C02000000000098
:10F8F000C00E9800D10E9800EE0E98000FB8970039
:10F900000000E80080BF9F00FFB09700F480400037
:10F91000F1B79F00FE864600E30F5000080032005A
:10F920000FB997007410B90064065000E45E22001D
:10F93000040646000D0578008005EB00D9FF37006E
:10F940000000EB004F0778004F06BE004F05BE00D9
:10F950004F04BE006F00B10000000600889FBE008B
:10F960008A9FBE008C9FBE008E1F7800AD63220070
:10F97000800578000006EB00EE5E22001B003700D9
:10F980005900BE001E4D0200000000004800DE00CD
:10F99000004C78001900BE001E4D0200000000005F
:10F9A000104498000A05E8000884E800E40F5500B8
:10F9B000F3FF3A001D00BE001E4D020000000000D3
:10F9C0004800DE00804D98001D00BE001E4D020064
:10F9D00000000000904D98000C06E800F4864600F8
:10F9E000EA854500E30F5600060032007460B90056
:10F9F000E40450008E8444000B0478000005EB0002
:10FA0000DFFF37000000EB004F0778004F06BE0015
:10FA10004F05BE004F04BE0000000600722F81009B
:10FA2000832F81000288BE00922F8100A32F8100C6
:10FA30002200980033009800B22F8100C32F81006C
:10FA40004200980053009800D22F8100E32F8100DC
:10FA50006200980073009800D2318100E331810088
:10FA60000208980013089800F4004000123081004A
:10FA7000233081008288BE00323081004330810013
:10FA8000420898005308980052308100633081008A
:10FA900062089800730898007230810083308100FA
:10FAA0000210980013109800723281008332810096
:10FAB00022109800331098008002B000B23081000C
:10FAC000C33081000288BE00D2308100E330810063
:10FAD0002200980033009800F23081000331810049
:10FAE00042009800530098001231810023318100B8
:10FAF0006200980073009800123381002333810064
:10FB000002089800130898000000EB0000000600AF
:10FB1000889FBE008A9FBE008C9FBE008E1F78000B
:10FB2000ED5F2200800578000006EB00708756002C
:10FB30001B0037005900BE001E4D020000000000EF
:10FB40004800DE00004C78001900BE001E4D020087
:10FB500000000000104498000A05E8000884E8004E
:10FB6000E40F5500F3FF3A001D00BE001E4D0200D9
:10FB7000000000004800DE00804D98001D00BE001F
:10FB80001E4D020000000000904D98000C06E80099
:10FB9000F4864600EA854500E30F56000600320071
:10FBA0007460B900E40450008E8444000B047800B3
:10FBB0000005EB00DFFF37000000EB004F07780087
:10FBC0004F06BE004F05BE004F04BE0000000600F9
:10FBD000202F8900E40F50002500320005003E0070
:10FBE0000000E00008003200E30F500031003A004E
:10FBF00028003700E50F500014003200E60F5000D7
:10FC00002C003A0008003700605E22006011B80046
:10FC10000288BE000200200003F8230022009800A2
:10FC20003300980023003700605E2200F2A826000F
:10FC3000D3F623000288BE0072B82A0043D92300FD
:10FC400022009800330098001A003700605E2200FE
:10FC5000C2EB250073F423000288BE002251280065
:10FC600023E623002200980033009800110037009B
:10FC7000605E2200A23E210093EF23000288BE00B6
:10FC8000B260270033F02300220098003300980070
:10FC900008003700605E220002162700C3E323003D
:10FCA0000288BE00823A2E0003F52300220098004D
:10FCB000330098000000EB0000000600202F8100B8
:10FCC000000006000000EB0000000600889FBE0058
:10FCD0008A9FBE008C9FBE008E1F780000057800B2
:10FCE0002A049000100020000A00E000AF03320058
:10FCF0009A007800B00A2000808F5000DA023A00A3
:10FD0000A1CAB3008047220001487800C840DE0045
:10FD10000000E800014878000000E800084878008A
:10FD20006A409000B2472200004978000086FB003C
:10FD3000AC0AB0000881FB0002064600010646003E
:10FD40008004EB000004E000BC023200CB4722003C
:10FD5000ED5F20007E71200050072000800F5400CE
:10FD6000DE013200A1003E0050052000800F54004B
:10FD70008301320049003E0030032000800F540010
:10FD8000520132001D003E00EF0F54003F013200CF
:10FD90000D003E00EC0F54003301320005003E0020
:10FDA000EA0F54002A013200EB0F540098023A0087
:10FDB0002A013700ED0F54002E013200EE0F5400DF
:10FDC00093023A002E013700F90F540007003E005D
:10FDD000F20F540036013100F00F54002E013200B2
:10FDE000F10F54008A023A002E0137002003200050
:10FDF000800F540086023A00310137008004200051
:10FE0000800F54004B01320012003E007100500080
:10FE1000800F54003D01320007003E006300500097
:10FE2000800F54002D0132000080E800800F540044
:10FE300077023A002D01370060042000800F540043
:10FE4000350132000000E800800F540070023A00D3
:10FE50003501370010052000800F54003E013200AC
:10FE600007003E0068005000800F5400340132004B
:10FE700067004000800F540065023A0033013700EC
:10FE800030052000800F5400360132000000E800E9
:10FE9000800F54005E023A003501370090062000C2
:10FEA000800F54006401320028003E006A005000B8
:10FEB000800F54004801320012003E0067005000DD
:10FEC000800F54003801320007003E000080E90036
:10FED000800F54002D0132000000E800800F540014
:10FEE0004B023A002D01370090052000800F54008E
:10FEF0003201320065004000800F540044023A0095
:10FF00003201370060062000800F54003B013200B0
:10FF100007003E000080E900800F540031013200EC
:10FF20000000E800800F540039023A003001370029
:10FF300070062000800F5400390132000000E800F4
:10FF4000800F540032023A0038013700F0062000DA
:10FF5000800F54004A01320012003E00630050003E
:10FF6000800F54003D01320007003E000080E90090
:10FF7000800F5400330132000000E800800F54006D
:10FF800023023A0032013700D0062000800F5400CF
:10FF9000350132000000E800800F54001C023A00D6
:10FFA0003401370020072000800F54003D0132004B
:10FFB00007003E000080E900800F5400330132004A
:10FFC0000000E800800F540011023A0032013700AF
:10FFD00030072000800F5400350132000000E80097
:10FFE000800F54000A023A00390137008D0F540087
:10FFF000AE01320049003E00E01C2000800F54009A
:020000040001F9
:100000007B01320020003E0090162000800F54003B
:1000100015003E006B005000800F54004701310076
:10002000E00B2000800F54003A01320007003E0030
:1000300060072000800F54002B0132000000E80010
:10004000800F5400F2013A002A013700001120000D
:10005000800F5400320132000000E800800F54008D
:10006000EB013A0032013700B0162000800F540037
:100070004901320042013900201C2000800F540049
:10008000E30139004901370030582000800F540047
:1000900015003E006B005000800F54006D013100D0
:1000A000700CB100800F54006001320007003E0068
:1000B000F01C2000800F540053013200102EB000BD
:1000C000800F5400D2013A0054013700204B200029
:1000D000800F5400580132000000E800800F5400E7
:1000E000CB013A0058013700B05F2000800F540068
:1000F0006201320005003E0040A22F0000004400D3
:10010000FD0F5000C2013E0057013700D05F2000B4
:10011000800F5400BE013A005E0137008E0F54007C
:100120002A003E00C0702000800F54009101310071
:10013000F00AB100800F540015003E007D00500011
:10014000800F540086013100F003B100800F54008D
:100150007001320007003E000080E900800F54006B
:100160005C0132000000E800800F5400A8013A0052
:100170006101370020602000800F54006C013200C4
:100180000000E800800F5400A1013A006D01370023
:1001900090702000800F54002401320004003E00C3
:1001A0000000E900800F540099013A001B0137005C
:1001B000A0702000800F54001F0132000000E800F2
:1001C000800F540092013A001F013700D0752000C3
:1001D000800F54000F003E007D005000800F54003F
:1001E0006E01310069005000800F5400230132007D
:1001F00004003E000080E900800F540084013E00AE
:100200006101370090732000800F540080013A0094
:1002100020013700713A2100810F54006A01320039
:1002200004003E00603A2100800F540078013A003B
:100230005F013700803A2100800F540066013200D0
:100240000000E800800F540071013A00650137009A
:1002500000C4B300804D78006E01370030C0B30099
:10026000804D78006B01370040C0B300804D7800AE
:1002700068013700F0C1B300804D78006501370098
:10028000D0CCB300804D780062013700A0C6B30027
:10029000804D78005F01370000CFB300804D7800BB
:1002A0005C01370000CFB300804D78005901370062
:1002B00072045400A0AA2200E04D7C0055013700D2
:1002C00040AB2200904D7800520137005E7E020064
:1002D00000000000804D78004E013700C676020015
:1002E00000000000804D78004A013700FCA90200A0
:1002F000000000008040EB000004E000010032003C
:1003000071C0B300814D780042013700C01A8100EE
:10031000804D78003F013700D01A81004800DE0090
:10032000804D78003B013700D01A8100804D780065
:100330003801370090C0B300804D78003501370098
:1003400040CCB300804D7800320137007047220066
:10035000904D78002F01370080572200904D780093
:100360002C01370060472200904D780029013700AA
:10037000F01A81004880DE00804D780025013700AA
:10038000F01A8100804D78002201370090558100DD
:100390004880DE00804D78001E01370090558100B6
:1003A000804D78001B013700108C02000000000017
:1003B0004800DE00804D780016013700108C0200E6
:1003C00000000000804D780012013700F0C1B3003A
:1003D000804D78000F013700F0C1B300804D7800E8
:1003E0000C01370070C0B300804D78000901370060
:1003F00080C0B300804D780006013700C01A81002C
:100400000000E00003003A0000C1B300804D780016
:100410000001370000C6B300804D7800FD003700B2
:1004200010C0B300804D7800FA00370040C0B30020
:10043000804D7800F700370000CBB300804D780086
:10044000F400370040C0B300804D7800F100370061
:1004500010C0B300804D7800EE00370050C0B300EC
:10046000804D7800EB00370080C7B300804D7800E6
:10047000E8003700C0C0B300804D7800E5003700C9
:1004800010C0B300804D7800E200370050C0B300C8
:10049000804D7800DF003700C0CDB300804D78007C
:1004A000DC00370080C2B300804D7800D9003700EF
:1004B000C01A81006A00680000F0A7000000EA008E
:1004C0000000E9004F00DE00804D7800D1003700C9
:1004D00060C0B300804D7800CE00370000C4B30088
:1004E000804D7800CB00370080C2B300804D78008B
:1004F000C8003700C01A81006A00680000F0A70039
:100500000000EA000000E9004F00DE00804D7800A6
:10051000C0003700001B8100804D7800BD0037000F
:10052000D02B81004800DE00804D7800B9003700F4
:10053000D02B8100804D7800B60037000808A3005A
:1005400008003A0020EA2F00080040000000D10017
:10055000CAA60200000000004880DE00804D78003E
:10056000AC00370020EA2F00080040000000D10056
:10057000CAA6020000000000804D7800A5003700E8
:1005800020C0B300DCA60200000000004880DE00AE
:10059000804D78009F00370020C0B300DCA6020029
:1005A00000000000804D78009A0037000808A30082
:1005B00008003A00E0E32F00080040000000D100EE
:1005C000A8A60200000000004880DE00804D7800F0
:1005D00090003700E0E32F00080040000000D10049
:1005E000A8A6020000000000804D780089003700B6
:1005F00020C0B300B8A60200000000004880DE0062
:10060000804D78008300370020C0B300B8A60200F8
:1006100000000000804D78007E003700E02B810054
:100620004800DE00804D78007A003700E02B810022
:10063000804D780077003700F02B81004800DE0005
:10064000804D780073003700F02B8100804D7800DA
:100650007000370080A82F000004440000582200DA
:10066000E04D7C006B00370040A22F0000044400E6
:10067000C0582200E04D7C0066003700E05C22009C
:10068000F677020000000000E05C2200904D780048
:1006900060003700E05C2200FE77020000000000EE
:1006A000E05C2200904D78005A003700C01A8100AB
:1006B000E10F500057003A00C05C220006780200AB
:1006C00000000000602E81004800DE00804D7800B0
:1006D00050003700C01A8100E10F50004D003A0071
:1006E000C05C22000678020000000000602E81003D
:1006F000804D780047003700C01A8100E10F50009C
:1007000044003A002878020000000000804DEB0011
:1007100040003700C01A8100E10F50003D003A0050
:100720002878020000000000804D78003900370072
:100730000E780200000000004800DE00804D7800C6
:1007400034003700C01A8100E10F500031003A0038
:100750000E78020000000000804D78002D00370068
:10076000009C2F0000044400A05A2200E04D7C00B1
:1007700028003700408F2F0000044400005822005A
:10078000E04D7C0023003700808E2F0000044400E1
:10079000C0582200E04D7C001E003700008C2F0066
:1007A00000044400A05A2200E04D7C0019003700EC
:1007B000805C2200F677020000000000805C2200CE
:1007C000904D780013003700E02B81004800DE00D8
:1007D000804D78000F003700E02B8100804D7800BD
:1007E0000C003700905C2200FE7702000000000041
:1007F000905C220031C0B30090CF100001003A009D
:100800000048EB00905C2200904D7800010037001A
:10081000804DEB003B80FB00000646008904E800A9
:100820002A0490006A4090000080FB00890F50006D
:10083000020036000884440047FD3700C860DE002F
:10084000C047220001F07C000000E8008C747800B2
:10085000E680440065005000D09E020000000000C9
:100860000000EB00D10037000000EB00A20A2000DE
:10087000828F5000CD003A00A1CAB3008047220009
:10088000014878000040EB00914722008048780042
:1008900002C5B3008100E8008248780012C0B300AE
:1008A0008100E800824878008100E80080487800F4
:1008B000A15C2200804878006A4090000004E000BB
:1008C000AC0032008004EB006E4722006B37220040
:1008D0000C6020002D60200030052000800F5400A7
:1008E0006000320015003E007F005000800F540071
:1008F0004300320007003E000080E900800F5400F2
:100900002F0032000000E800800F540092003A00EF
:100910003500370070032000800F5400480032007B
:1009200079004000800F54004A0032007A005000E5
:10093000800F540088003A003D0037008C0F5400AF
:100940005C0032000A003E00800A2000800F540044
:100950004A00320076004000800F54000B00320045
:1009600060052000800F54007B003A0040003700F3
:100970008D0F5400640032005700390030602000B1
:10098000800F540074003A006800370011C0B300B3
:10099000A05C220001487800648044006B4078002D
:1009A0000004E0000300320020002000001B89004A
:1009B0006900370010002000001B89006600370026
:1009C000648044006B40780041AB2200804878008E
:1009D0000004E0006000320081C0B30040AB2200A0
:1009E000014878005C003700648044006B40780068
:1009F0000080FB00E87D0200000000005600370088
:100A0000648044006B4078000004E00003003A007A
:100A1000B2760200000000004F003700E14F4000B6
:100A20004D003A0090760200000000004A003700B6
:100A3000E4804400C03522006BC8780046003700CF
:100A4000648044006B4078000080FB00C01A89007D
:100A500041003700E4804400704722006BC87800F2
:100A60003D003700648044006B4F78003A00370047
:100A7000F0FF27009055890037003700648044005C
:100A8000EB40780020C4B30080CF500004003A004F
:100A900010C0B3007CAA0200000000000300370071
:100AA0000040EB007CAA0200000000000000FE00F5
:100AB00029003700C01A8100E10F500026003A00DB
:100AC000648044006B4078004800DD00602E89009F
:100AD0008904E80018602000C01A8100E10F50006E
:100AE0001D003A0064804400EB4078008180FB00E8
:100AF000602E810001007000602E89003A780200AB
:100B00000000000014003700C01A8100E10F5000FF
:100B100011003A00648044006B4078004800DD001A
:100B2000602E89008904E80038602000C01A810026
:100B3000E10F500008003A0064804400EB40780068
:100B40008180FB00602E810001007000602E890012
:100B500030780200000000008904E8006A4090003C
:100B60000080FB00890F5000020036000804E800F6
:100B700059FF3700D04722000048EB00B1CFB30047
:100B80000000E800014878000000EB00A15C2200B2
:100B90001104E00005003A007100200080472200A7
:100BA000D09E0200000000000000EB004F0778001C
:100BB0004F06BE004F05BE004F04BE0000000600F9
:100BC000889FBE008A9FBE0080057800C058220022
:100BD0002C7B020000000000A05A2200AE7C020024
:100BE00000000000005822006E76020000000000A5
:100BF000D27602000000000080447800CC7602002B
:100C00000000000000457800108C02000000000089
:100C1000F12B2100810F500004003E0021C0B300E1
:100C200080572200014878000200370080572200D8
:100C30000048EB00805722001084FB000804EA0003
:100C40004F44DE00704722001004E0000100320033
:100C50000814A000208C020000000000CD40DD0040
:100C6000094475004444DD00083FB20001047400EB
:100C70004A00DD0001C0210001006000080470008E
:100C8000F82B89008984FB000A84FB00208C020079
:100C9000000000006701640002F0A0008103200052
:100CA00081816400C619DD000281710001046400C5
:100CB0004344DD0082007400E7846400C34CDD001F
:100CC000818474004C00DD000100270001006000F9
:100CD00089047000D92B8900E18F550014003E0073
:100CE000495D220080702000800C780064845400EC
:100CF000BA0A20000A0C7800E605440000C1B300DF
:100D0000804D780008007800F0FB0700603A210071
:100D1000800C78000A0C780080C0B300804D780009
:100D200008007800E9FB07000000EB000D00370029
:100D300010002000EA8F55000A003A008070200061
:100D4000A02E8900005D2200B10A20000108780071
:100D500002C6B300E600400082487800DBFB0700D3
:100D60000000EB004F05BE004F04BE00000006006F
:100D7000881F78000080FB00002F890010002000F1
:100D8000102F89000004EB00E82B890040002000B0
:100D9000201B89004106200020002000C48802009A
:100DA00000000000080078004F04780000000600F2
:100DB000889FBE008A9FBE008C9FBE00AA3622007C
:100DC0008B3722000B06E8008A86E800E404550011
:100DD000201B8100E20F50005600320005003E004B
:100DE0000000E00011003200E10F5000F8FF3A006F
:100DF0002A003700E30F500091003200E40F50004A
:100E0000F3FF3A006689020000000000801B8900A1
:100E1000911B89001100200020002000D0880200D2
:100E2000000000000000EB00201B890011002000E2
:100E3000603722003C9F02000000000000047800A0
:100E40000800E00010003A006037220061C5B300DE
:100E500010C04000E14F50000B003E009AA5020078
:100E6000000000008000EB00801B8900911B8900BE
:100E7000603722001080FB00800C780010002000FA
:100E8000201B890005003700668902000000000071
:100E90000800E000CEFF32006E0037003100200075
:100EA000703722003C9F0200000000000000E000BC
:100EB00013003A00703722009080FB00C808DD0064
:100EC0001B80FB00008D70001C407800804E780075
:100ED00021002000211B8900A10A2000998F100009
:100EE00004003A000080FB00413722008088E800BF
:100EF0001000370020002000A01B89000D003700E3
:100F000020002000F688020000000000E30F5000DF
:100F100050003A0040002000201B8900604722005A
:100F20001048E800A1CCB3007047220001487800C7
:100F300048003700A11B8100A03722003C9F02001F
:100F4000000000000000E00030003A00A11B81001A
:100F50008181E80060372200E0C27900C82ADD0004
:100F6000E380400060C078000080FB0085027000D4
:100F7000751B8900803622000008EB000300E000AA
:100F80000C0032008000EB000040EB0064372200D0
:100F90000081FB00644179000281FB0082804000F7
:100FA0000040E8000081FB00828F5100F8FF3E0006
:100FB000411B890080362200908F520003003A00C6
:100FC00030002000201B89001D00370060472200F0
:100FD0001048E800A0CAB30061372200914F10000A
:100FE00004003A0081CCB300704722000148780029
:100FF0000300370091CCB30070472200014878000D
:1010000040002000201B890071FF370020002000D5
:10101000F688020000000000E30F50000D003A00C7
:1010200040002000201B8900604722001048E80093
:10103000A1CCB300704722000148780005003700BA
:101040000900780021FB070040002000201B8900D8
:101050005FFF37000000EB004F06BE004F05BE00EB
:101060004F04BE000000060040AB22001004E00068
:1010700002003200C01A8100D1FE07004CFF0700B9
:10108000001B8100E20F500002003A001000200017
:10109000101B8900E02B810068004000E02B8900D4
:1010A0000000EB0000000600101B8100000006009D
:1010B000101B89000000EB0000000600001B8100EF
:1010C0000000E000020032008000EB00011B8900FC
:1010D00000000600F01A890091558100810F500030
:1010E00001003D009055890000000600C135220036
:1010F0008048780000000600D01A89000000060031
:101100008E9F02000000000000000600C01A81004F
:1011100000000600881F78006EA502000000000095
:1011200080A50200000000006000B8006011B80057
:10113000E4842200009ABE000292BE006085220074
:10114000C8082000000444006022B8006033B800E2
:101150008001EB0012002000210020000498BE0056
:101160000690BE004300980052009800610098006D
:101170006E004000880F5000F8FF3A000000EB00BE
:101180004F04780000000600810178006E00B9006D
:10119000E2852200033178000000EB000000060029
:1011A0006E01B9006085220002004000E584220043
:1011B0005503BE004502BE000498BE000690BE0066
:1011C0001200200062009800510098000000EB001F
:1011D000000006006E00B9002300200022862200D5
:1011E000033178000000EB0000000600889FBE007D
:1011F0008A9FBE00E18422003102BE002103BE00AE
:101200006E01B900EC00410062852200E2807800A6
:10121000E18F500025003A006E01B900820078008D
:10122000E881400062852200E2817900810041006E
:101230000001EB0031844100B1044900310549004F
:10124000910549006100B100120020000820E10072
:1012500009A8E1000AB0E1000BB8E100170039006D
:101260006E01B900EA00410062852200E280780048
:10127000E28F500008003A006E00B9000000410003
:1012800011002000610098000498BE000690BE0086
:1012900032002000090037006E00B9003200200043
:1012A00023862200823178000400370022002000CB
:1012B000E38F500001003A00320020000200780065
:1012C0004F05BE004F04BE000000060070428100C2
:1012D000814281000000060064A5020000000000B9
:1012E000A09F0200000000008041EB000001EB0025
:1012F000C1C0B3001000200048A0020000000000A0
:101300008041EB000001EB0041C0B3000000EB00A6
:1013100048A00200000000008041EB000001EB004B
:10132000D1C0B3001000200048A00200000000005F
:101330008041EB000001EB0051C0B3001000200021
:1013400048A00200000000008041EB0012002000D5
:1013500061C0B3001000200048A00200000000009F
:101360001200200061C0B300100020003AA2020069
:10137000000000008041EB000001EB00B1C0B300B1
:101380001000200048A0020000000000C201200060
:10139000B1C0B30010002000A2A0020000000000B5
:1013A0008041EB000001EB00834078000000EB007F
:1013B00048A0020000000000320020008040EB0046
:1013C0000000EB00A2A00200000000008041EB0042
:1013D0001200200011C0B3000000EB0048A0020082
:1013E000000000003201200011C0B3000000EB003B
:1013F0003AA20200000000008041EB000001EB0077
:1014000081C0B3001000200048A0020000000000CE
:10141000A200200081C0B30010002000A2A00200A2
:10142000000000008041EB001200200071C0B300FA
:101430001000200048A0020000000000A2012000CF
:1014400071C0B300100020003AA2020000000000AA
:101450008041EB000001EB0091C0B30010002000C0
:1014600048A0020000000000B200200091C0B300BC
:1014700010002000A2A00200000000008041EB004C
:101480000001EB00F1C0B3001000200048A00200F2
:10149000000000008041EB000001EB0021C0B30020
:1014A0000000EB0048A00200000000008041EB00BB
:1014B0000001EB00E1C0B3001000200048A00200D2
:1014C000000000008A88020000000000649E020004
:1014D00000000000409D020000000000B29C0200DD
:1014E0000000000000F02F00F10F20005C8D0200D2
:1014F0000000000010002000205289000000EB00D6
:1015000000000600889FBE00E0C0B300328F0200DA
:10151000000000004A09DD004600DE000000710006
:10152000C608DE001052890090C0B300328F02005E
:10153000000000004909DD004700DE0000007100E6
:10154000C708DE0020518900B0C0B300328F02000E
:10155000000000004909DD004700DE0000007100C6
:10156000C708DE0030518900A0C0B300328F0200EE
:10157000000000004909DD004700DE0000007100A6
:10158000C708DE0040518900C0C0B300328F02009E
:1015900000000000A8A222004909DD004700DE008B
:1015A00000007100C708DE00000C780019528100AD
:1015B00080C0B300328F0200000000004A09DD0045
:1015C0004600DE0000007100C608DE000080540006
:1015D0007400B800A2002000030020001051020097
:1015E000000000006051890050C1B300328F02003A
:1015F000000000004909DD004700DE000000710026
:10160000C708DE007051890070C1B300328F02003C
:10161000000000004909DD004700DE000000710005
:10162000C708DE008051890060C1B300328F02001C
:10163000000000004909DD004700DE0000007100E5
:10164000C708DE009051890030C1B300328F02001C
:10165000000000004909DD004700DE0000007100C5
:10166000C708DE00A05189001952810040C1B300B3
:10167000328F0200000000004A09DD004600DE0053
:1016800000007100C608DE00008054007400B8003D
:10169000A200200003002000105102000000000002
:1016A000B0518900F0C0B300328F0200000000008A
:1016B0004909DD004700DE0000007100C708DE00B8
:1016C000C051890020C1B300328F02000000000029
:1016D0004909DD004700DE0000007100C708DE0098
:1016E000D051890010C1B300328F02000000000009
:1016F0004909DD004700DE0000007100C708DE0078
:10170000E051890000C1B300328F020000000000E8
:101710004909DD004700DE0000007100C708DE0057
:10172000F051890019528100D0C0B300328F0200FD
:10173000000000004A09DD004600DE0000007100E4
:10174000C608DE00008054007400B800A20020002B
:101750000300200010510200000000000052890028
:1017600020A222000048EB008001EB008040EB004B
:1017700066035400F231200009003700D00F110039
:1017800001003E000114A000800F5400FBFF3A004E
:101790008301E8006A044400E38F51000400320032
:1017A0006A1AB9000480E90006004000F3FF370020
:1017B00020A22200014878004F04BE00000006006D
:1017C00012002000E24F500013003E000100E00034
:1017D00011003200A2C0B3000440BC0043A22200AA
:1017E000E30879000280E800630078009000980028
:1017F0006400410063007800A0009800660041008A
:1018000063007800B000980068014100630179002E
:10181000C20098000001EB00020078000000060002
:10182000E0C0B300328F020000000000023C200044
:10183000030020001051020000000000000006001C
:1018400020A22200104078000000060002E82300D9
:101850000000E00005003A00060037008100E900C2
:10186000FEFF3A000000E90002003200820078002A
:10187000FAFF3700208E220010C8EA0000000600A0
:10188000889FBE00608E22000048EB00204B810044
:10189000314B8100404B8900514B89006044B800B6
:1018A000084B8900194B890020002000709D020020
:1018B00000000000808E2200B29D020000000000A7
:1018C00040478100514781004847890059478900B6
:1018D000200020002047890012C0B30051C0B3008F
:1018E00010002000C89F0200000000008A80A900AC
:1018F0009A80A8004F04BE0000000600204789001F
:101900009A80A9001000200001002000004B8900EF
:10191000114B89000000060020478100E20F5000B3
:1019200011003A00708E2200618E220091407800F2
:1019300090CF50000A0031006686A9006000B80010
:101940004047890051478900808E2200D09D0200C7
:1019500000000000A09D020000000000020037000F
:1019600030002000E5FF07008A80A9000000060083
:10197000889FBE000004BE00100020000900E000A7
:101980001B003200E90F540019003E000000EB007C
:10199000DAFF070010002000709D02000000000028
:1019A0000041EB0041C0B3000000EB00C89F020003
:1019B000000000000864A0004840DD00549E0200C2
:1019C000000000000004780012C0B30041C0B30062
:1019D0000000EB00C89F0200000000002000200073
:1019E000709D020000000000884C78000000EB00B1
:1019F0004F04BE0000000600889FBE008A1F7800CA
:101A00000005780081047800180020000900E0003B
:101A100025003200E90F550023003E000000EB00D6
:101A2000B6FF07000A4478000846B3004844DD00CA
:101A30001980FB000804700010002000709D020057
:101A4000000000000041EB0041C0B3000000EB00CB
:101A5000C89F02000000000008007800549E0200A9
:101A60000000000012C0B30041C0B3000000EB0052
:101A7000C89F020000000000C19622000A00780002
:101A8000BBFF0700C09622009944780010C46C0088
:101A90000884FB000804EA004F44DE002000200018
:101AA000709D020000000000080078004F057800DB
:101AB0004F04BE0000000600889FBE008A9FBE0043
:101AC0008C9FBE008E1F78000005BE00204B890051
:101AD000314B8900708E22000048EB000000EB00C3
:101AE000748E2200010220000A01BE0080027800EC
:101AF0008502E900030033008301D1000281D30095
:101B0000FBFF37000208A30001003200144AE8007E
:101B10000000E800810F5000F3FF3A00629D0200D0
:101B200000000000000778009A80A900C1C82800C2
:101B30000040EB00D4A402000000000080EB28006D
:101B4000AE9D02000000000012C0B30051C0B300FF
:101B500010002000C89F02000000000012C0B30067
:101B6000C1C0B30010002000C89F020000000000A8
:101B700012C0B300D1C0B30010002000C89F020003
:101B8000000000004001200030FF070012C0B30039
:101B900041C0B3000000EB00C89F0200000000003D
:101BA0002000200029FF07000041EB0051C0B300D6
:101BB00010002000C89F020000000000100020005C
:101BC00022FF07000041EB00C1C0B300100020005D
:101BD000C89F020000000000200020001BFF07003B
:101BE00012C0B300C1C0B30010002000C89F0200A3
:101BF000000000000C0820000D00200008972200C3
:101C0000B9C8B300880078009000200058FF070092
:101C100098CF14000400320061065600E0865E0092
:101C2000F8FF3A004C003700E00F5600E08F5E00EE
:101C3000490032001197220020C0B300804878008C
:101C40000000EB006CFF070000077800E10F570071
:101C5000410032001197220020C2B3008048780072
:101C60001000200064FF070000077800E10F570014
:101C700039003200119722008048EB00200020003C
:101C80005DFF070000077800E10F570032003200C7
:101C9000119722008A4878003000200056FF070084
:101CA00000077800E10F57002B0032001197220047
:101CB0004858DD004851DE0002017000C859DE00BE
:101CC00082487800400020004BFF070000077800A2
:101CD000E10F570020003200119722004059DE002A
:101CE00003002000824878005000200042FF0700D7
:101CF00000077800E10F570017003200119722000B
:101D0000485DDE008A487800600020003AFF070046
:101D100000077800E10F57000F00320011972200F2
:101D200080C8EB007000200033FF07000007780038
:101D3000E10F57000800320010002000C3FE07002A
:101D400011C0B300D0962200014878001000200096
:101D5000704B89000007EB000E0078004F077800F9
:101D60004F06BE004F05BE004F04BE000000060037
:101D7000881F780020972200B29D0200000000001A
:101D8000A04B81004800DE007F406000FC4F500007
:101D90002A003E004097220090007800C608DE002E
:101DA000924B81009081FB00C107B200C48E2200DB
:101DB000810042008288BE0090007800C808DE00E2
:101DC000424B8100534B8100FF80600014002000D3
:101DD000050020000403BE00010478000804E900A7
:101DE000030033000603430087834B00FBFF3700EB
:101DF0000680EA008780EA0000026100018161003C
:101E00008001EB00C010DD00000020006121B8005F
:101E10000200700083807000404B8900514B8900A4
:101E2000404B8100514B8100E00F5000E08F580083
:101E300002003A000000EB00B0FE0700608E2200B6
:101E40001048E8004F047800000006002047810099
:101E500000F0A7000000EA000000E9004F00DE00EB
:101E600000000600004178006000B800FC4F5100FF
:101E70000C003E000281FB004211DD00C08E2200FA
:101E8000020140001202BE000581FB008001EB0050
:101E9000C010DD00000020006121B80002007000C9
:101EA00083807000000006000200FA00889FBE00D8
:101EB00000447800668157009110200008407800A7
:101EC000B29B020000000000000178000080EB00DF
:101ED0008080EB000200E0001D003A00AFFC97009C
:101EE00066815700A110200008407800B29B0200D4
:101EF00000000000000178000080EB008080EB0013
:101F00000200E00012003A0067C164000281FB0099
:101F10008001EB0061014100E08149002FFA970048
:101F20000480FB008000EB006A00B800E005B00010
:101F30000180B000009AB900028BB900040243008E
:101F40000010B80081004200800CB0000180B00099
:101F50004F04BE000080FA00000006001000FA00E6
:101F6000889FBE008A9FBE008C9FBE000044780000
:101F7000810678006000B800A0B79F00B1B79F004D
:101F8000C0B79F00D1B79F00E0B79F00F1B79F0097
:101F900080BF9F0091BF9F0078815700C10620003D
:101FA000084078001A9B020000000000000678003C
:101FB0000C00E00048003A004FB09700DFB09700F7
:101FC000E00F5000E08F580003003D006000B800B3
:101FD000C0B79F00D1B79F00748157004107200010
:101FE000084078001A9B02000000000000067800FC
:101FF0000C00E00038003A007C815700C107200047
:10200000084078001A9B02000000000000067800DB
:102010000C00E00030003A007081570001082000F9
:10202000084078001A9B02000000000000067800BB
:102030000C00E00028003A002FB09700BFB09700D6
:10204000A00E9800B10E98000FBC97009FBC97009F
:10205000C80E9800D90E9800800F5400818F5C0044
:10206000010031000004BE00E00F5400E08F5C006E
:1020700002003A0088612F0009002000007721004B
:102080007FB197000091B900EFB097000008B80049
:10209000810041000801BE00105102000000000054
:1020A0000005BE00803E20005FB197000091B9009E
:1020B000CFB097000008B800810041000801BE00C1
:1020C0001051020000000000800E9800910E980050
:1020D000EA069800FB0698000C0078004F06BE0048
:1020E0004F05BE004F04BE000080FA00000006004D
:1020F0000600FA00889FBE008A9FBE008C9FBE002B
:10210000004578007B5381008C5381006E8157001D
:10211000C10120000A407800B29B020000000000CC
:102120000000E00030003A00AFF697000A40780067
:102130005DFF07000004BE000080EB00E00F5400CC
:10214000E08F5C002800350072815700810B200071
:102150000A4078001A9B0200000000000000E00026
:1021600021003A007FB197008FB997004818DD0031
:10217000C810DE00810070004810DD00F0B79F003D
:1021800081BF9F006159B800028AB9000010B800F1
:1021900081004200421F2000028AB9000200B800FC
:1021A000810042000D82FB008002EB00823E200095
:1021B0000221B80008015100898159008006EB0016
:1021C0000C9AB9000C11B8008301420010510200B2
:1021D0000000000000017800210220000A40780081
:1021E000C49A0200000000004F06BE004F05BE006A
:1021F0004F04BE000080FA0000000600889FBE0069
:102200008A1F78008044780088AA22006A01200092
:10221000080178008A00780009407800B29B02002B
:102220000000000011C0B30098CF1000020032007F
:102230000000E000F6FF32004F0578004F04BE00BA
:102240000000060010A822001040780000000600E0
:1022500012A82200014978000141780041022000C3
:10226000E29A0200000000000000060050538100C6
:1022700061538100000006000181FB000201D100D2
:1022800021212000E29A0200000000000000060068
:10229000900B2000000006000101780002F0A7006A
:1022A0000201EA000201EA004F11DE007101200084
:1022B000E29A02000000000000000600D0FF2F009C
:1022C000000006000000EB00000006000200FA001B
:1022D000881F7800010478006481570021062000DF
:1022E000B29B0200000000000000E00004003A0081
:1022F000CFF897000181FB008001EB00028CBE004B
:102300004F0478000080FA0000000600889FBE009D
:102310000044780081447800910120000840780052
:10232000E29A0200000000000000E00005003A0010
:1023300009417800A101200008407800E29A0200DB
:10234000000000004F04BE0000000600889FBE0091
:102350008A9FBE00804578008104780002057800DD
:10236000E8FF2F00F00F2000808F540012003E0085
:10237000800F550010003E000300E000070032000F
:10238000110020000B407800C3FF07000004780014
:102390000800E0000C003200070037000A41780016
:1023A000894078000B407800D8FF070000047800CF
:1023B0000100370000047800080078004F05BE00D7
:1023C0004F04BE00000006000A41780089407800F2
:1023D0000B407800CDFF0700000478008000EB0080
:1023E0000B407800ACFF07000800E000F1FF32006E
:1023F000F1FF37000200FA00889FBE008A1F7800B4
:102400008044780001057800020478000800E000AC
:102410000A003200678157009101200009407800CE
:10242000B29B0200000000000000E00010003A0033
:102430001FF897000080FB00000C78000000EB0004
:102440000A00E0000A00320068815700A101200064
:1024500009407800B29B0200000000000000E0008C
:1024600003003A000FF997008280FB00010D78000D
:102470004F0578004F04BE000080FA0000000600FF
:102480000200FA00881F7800010478006481570078
:10249000F1042000B29B02000000000071CCB300E8
:1024A0004FF99700014C61004F0478000080FA005A
:1024B0000000060001017800F1042000B29B020038
:1024C0000000000000000600E3FF2F00E7CF5000EF
:1024D00005003E000141780051012000E29A02000F
:1024E0000000000080017800030078000000060072
:1024F0001000200000000600E3FF2F00E18F5000D5
:102500000D003E00140120000100E00001003A002F
:10251000040120008041EB000200E00001003200D5
:1025200003C2B300F2CDB30084007800E49B020044
:102530000000000080017800030078000000060021
:10254000E4FF2F00E18F50000E003E00E84F5100E5
:10255000020032000204E0000A003A0014012000E8
:102560000100E00001003A00040120008241410026
:1025700012CEB30084007800E49B0200000000004B
:10258000000278000400780000000600E4FF2F003D
:10259000E18F500012003E00E84F5100020032006F
:1025A0000204E0000E003A00140120000100E000E7
:1025B00001003A000401200001C2B3000300E00062
:1025C00001003A008040EB000241410001417100EE
:1025D00084007800E29A0200000000000002780007
:1025E00004007800000006000041EB00D4FF070063
:1025F00000000600820178000141780011002000EF
:10260000E2FF070000000600E2FF2F00E4CF5000C9
:1026100006003E008141780082CFB30041012000D6
:10262000E49B020000000000000178000200780036
:10263000000006008101780003F0A7008301EA0092
:102640008301EA00CF19DE00E2CFB300D1022000FF
:10265000E49B02000000000000000600881F7800D4
:1026600000447800E0FF2F00E1CF500010003A0056
:10267000D20F20006109200008407800C49A0200AF
:102680000000000010A82200104178004102200044
:1026900008407800E29A0200000000000000E0001C
:1026A00003003A001100200008407800E1FF070015
:1026B0004F04780000000600889FBE008A9FBE007D
:1026C000004578000200BE00E2FF2F00639F20005B
:1026D000830F5000E08F580018003E00E90F5000B3
:1026E000E08F580002003E00A00020000100200002
:1026F000A200200003002000105102000000000092
:102700000004BE0000417800B10120000A407800BA
:10271000E29A020000000000000178000200E000E0
:1027200006003A000880FB008000EB00800F540098
:10273000818F5C000100320022002000020078003E
:102740004F05BE004F04BE00000006000200FA0064
:10275000881F78000104780064815700D1042000AC
:10276000B29B0200000000000000E00003003A00FD
:102770004FF997008280FB00618C60004F04780065
:102780000080FA00000006000200FA00889FBE00E8
:102790008A9FBE000045780081047800E0FF2F008A
:1027A0000900E000110034000004EB00DB0420000D
:1027B0006A8157008B0078000A407800B29B0200C3
:1027C000000000000000E00008003A006FF19700F0
:1027D000E1406100E1F79F0004003A000804E800CE
:1027E000888F5400F2FF3C00B0FF2F004F05BE0061
:1027F0004F04BE000080FA0000000600E3FF2F0037
:10280000E3CF500005003E00014178008101200027
:10281000E29A0200000000008001780003007800C6
:102820000000060031C0B300F4FF070000000600FE
:1028300011C0B300F1FF07000000060000A822004D
:102840001080FB00000006000002BE000200200015
:1028500003002400F0FF2F00F1FF2300800F52003F
:10286000818F5A00020036006000B8000C0037006B
:102870004E18DD004211DE0002017000C219DE00B8
:10288000820F5200838F5A00F9FF39006000B800B0
:10289000E00F5100E08F5900F3FF3A0015003700B8
:1028A0000203400083834800840F5300858F5B0040
:1028B00007003E000602520087825A008100D100C4
:1028C0000080D300000041008180490002003700F1
:1028D0008100D1000080D3004E1BDD004211DE00DC
:1028E00002017300C219DE00E00F5100E08F5900B1
:1028F000EBFF3A0000000600889FBE008A9FBE00E2
:102900008C9FBE009C538100AD538100DA5381003F
:10291000EB538100B8538100C9538100F0FF2F00B1
:10292000F1FF2700E00F5100E08F59002300340031
:1029300000802600919820005E4C020000000000FC
:102940000002BE00441EB1000580B1006000B80066
:102950004240A90019003400F0FF2100800F52000E
:10296000E08F5A000A003C0008A8B90004CBB90067
:10297000000343000820B800810043000A0146001C
:102980008B814E0010510200000000000A00370049
:102990000A0146008B814E000400BE001051020067
:1029A000000000000889B90000CAB9000201420015
:1029B0000800B80081004100A3FF07004F06BE00D9
:1029C0004F05BE004F04BE00000006001000FA00D4
:1029D000889FBE008A9FBE008C9FBE008044780006
:1029E0007C815700A102200009407800B29B0200C0
:1029F00000000000000478000800E00089003A00B0
:102A00000005EB004FE097000004E00003003A00EF
:102A100080C2B300C0E79F001A002000CFE59700F6
:102A200073815700D102200009407800B29B020058
:102A300000000000000478000800E00079003A007F
:102A400074815700C101200009407800B29B020048
:102A500000000000000478000800E00071003A0067
:102A600078815700810B2000094078001A9B0200F2
:102A700000000000000478000800E00069003A004F
:102A800072815700C102200009407800B29B020009
:102A900000000000000478000800E00061003A0037
:102AA0000B81FB008001EB00803E20000010B8008D
:102AB000C709DE00490ADD004701DE00020172009D
:102AC00082BF9F0093BF9F006FE997000281FB00C8
:102AD0008001EB0000E82300010020005E4C0200B2
:102AE00000000000D0538900E15389005C5381004D
:102AF0006D5381000FB897009FB897008C0F50005E
:102B00008D8F58000600390060A722000FB997008A
:102B10009FB997000C1851000D9059000300370021
:102B20006000B800B0538900C15389006011B8003B
:102B300082BF9F0093BF9F005FE897000018A3002B
:102B4000110032007A8157006102200009407800AC
:102B5000789B020000000000000478000800E000FC
:102B600030003A00803E2000BFB097000008B80057
:102B7000C709DE00490ADD004701DE0002017200DC
:102B800082BF9F0093BF9F004FB19700DFB19700B6
:102B90004818DD00C810DE00810070004810DD001C
:102BA0004FE997000281FB008001EB0064015100B6
:102BB000E081590010510200000000000FB9970099
:102BC0009FB997000C0651008D8659008C0F50005C
:102BD0008D8F5800020036000001BE000100370052
:102BE0000C01BE006FEA97000482FB008002EB003C
:102BF0000498B9000411B800830140004C1ADD00AC
:102C00004411DE0002017200C419DE0009407800A0
:102C100039FF0700F05389000800E00001003A0086
:102C20000A047800080078004F06BE004F05BE0079
:102C30004F04BE000080FA000000060002A8220037
:102C4000014978000001EB000100E00002003200C1
:102C50005EFF070000017800020078000000060017
:102C6000881F78000044780001417800C1012000ED
:102C700008407800E29A0200000000000000E00036
:102C800006003A000840780019FD07000000E00047
:102C900002003A00084078004CFF07004F0478001B
:102CA000000006000200FA00881F78000044780047
:102CB000E0FF2F00828F50000E003E000200E00077
:102CC0000C003200715389008253890064815700DF
:102CD000C101200008407800B29B02000000000003
:102CE0000000E00003003A00CFF8970008407800A9
:102CF000DBFF07004F0478000080FA0000000600A8
:102D0000881F78000044780012C0B30071202000B2
:102D100008407800E29A02000000000012C0B300F0
:102D20008120200008407800E29A020000000000A4
:102D30000041EB006109200008407800E29A02009F
:102D400000000000D2CFB3007109200008407800D5
:102D5000E29A0200000000000041EB00310E20006A
:102D600008407800E29A02000000000042C0B30070
:102D7000410E200008407800E29A020000000000A6
:102D800022C0B300510E200008407800E29A0200F1
:102D90000000000012C0B300610E2000084078005F
:102DA000E29A02000000000032C0B300710E200061
:102DB00008407800E29A02000000000022C0B30040
:102DC000510F200008407800E29A02000000000045
:102DD00052C0B300910D200008407800E29A020032
:102DE00000000000E2CCB300B10D200008407800E4
:102DF000E29A02000000000032C0B300C10D2000C2
:102E000008407800E29A02000000000082CFB30080
:102E1000D10D200008407800E29A02000000000076
:102E20000041EB00F109200008407800E29A02001E
:102E300000000000C2C3B300310A2000084078003F
:102E4000E29A0200000000000041EB00710B20003C
:102E500008407800E29A020000000000C2C3B300FC
:102E6000B10B200008407800E29A02000000000048
:102E700092C0B300210B200008407800E29A0200C3
:102E80000000000092C0B300A10C200008407800B0
:102E9000E29A02000000000012C0B3008119200075
:102EA00008407800E29A02000000000072C1B300FE
:102EB000011B200008407800E29A02000000000098
:102EC0000041EB00D11A200008407800E29A02008D
:102ED0000000000052C0B300F10F2000084078004D
:102EE000E29A02000000000052C0B300011020006E
:102EF00008407800E29A02000000000052C0B300CF
:102F00009119200008407800E29A020000000000B9
:102F1000B2C1B300611A200008407800E29A0200B2
:102F200000000000E2C3B300C11A2000084078008E
:102F3000E29A020000000000F2C1B300711A200002
:102F400008407800E29A0200000000000041EB0017
:102F50000103200008407800E29A0200000000000F
:102F600002C1B3001101200008407800E29A02007B
:102F70000000000002C3B300A11020000840780048
:102F8000E29A02000000000062C4B300F1032000D6
:102F900008407800E29A02000000000000C1EB0047
:102FA0001103200008407800E29A020000000000AF
:102FB00032C6B3000104200008407800E29A020003
:102FC0000000000012C0B300E102200008407800B9
:102FD000E29A02000000000092C0B300B10120009C
:102FE00008407800E29A02000000000012C3B3001B
:102FF000E103200008407800E29A0200000000008F
:1030000042C2B3004101200008407800E29A020069
:103010000000000021C3B3000840780010FF070043
:103020004F0478000000060035FF07000000E000B4
:1030300001003D000000EB0000000600881F780042
:103040000044780008407800F7FF07000000E00027
:103050000E00350041C0B300084078006AFD07004B
:103060000000E00009003A0082CCB300A1C0B30028
:1030700008407800A5FC07000000E00003003A00CB
:1030800071C0B300084078000FFD07004F047800BE
:1030900000000600889FBE0080447800010478008C
:1030A00008017800E101200009407800C49A02007C
:1030B000000000000000E0000A003A00803E20000E
:1030C0000040B8004909DD004700DE000000710043
:1030D000C708DE0050538900615389000940780019
:1030E0003AFE07004F04BE0000000600881F78006B
:1030F0000104780068019000F8019000F49020002D
:1031000055002000840F5100858F590015003E00A6
:10311000F9FD0700F25381006112B800840F5000DE
:10312000858F580003003400640C9800750C9800DB
:103130000F003700920B2000820F5000E08F5800E4
:1031400005003400900B200001002000600C980066
:10315000710C980006003700600C9800710C980004
:10316000030037006000B800600C9800710C9800F4
:103170000000EB004F047800000006000400FA0095
:10318000889FBE008A1F780080447800010578007F
:103190008A007800094078004CFC070000047800A1
:1031A0000800E00026003A006A815700610620000E
:1031B00009407800789B02000000000000047800BD
:1031C0000800E0001E003A006A81570032007800D3
:1031D0008000EB002005980031059800D104200004
:1031E00009407800B29B0200000000000000E000EF
:1031F00007003A000FF897000080FB004400DE0053
:103200000080FB008000EB0040059800510598000D
:103210008A0078000940780050FB0700000478001D
:103220000800E00006003A0000A822001004E000B8
:10323000030032008A00780009407800ABFF0700E5
:10324000080078004F0578004F04BE000080FA00A7
:10325000000006000200FA00889FBE0000447800CB
:1032600081047800E68057000840780084FC07005D
:103270000000E00011003A00DFB89700010178007B
:10328000020CB200C0FF2F000C003A00E780600083
:1032900040002000808F500008003A00890078002C
:1032A00008407800B5FF07000000E00003003A0086
:1032B00011C0B3000840780083FC07004F04BE0033
:1032C0000080FA00000006000200FA00889FBE009D
:1032D0008A9FBE00804478008105780011C0B30049
:1032E0000940780045FD0700000478000800E00070
:1032F00017003A000A0C2000EA80570009407800C5
:103300005FFC0700000478000800E00008003A00B5
:103310003FB897008A00600004003A006700600030
:10332000E40F5000F4FF3A000E003700C8FF2F00F2
:1033300011C0B3000940780063FC07000000E00002
:10334000030032000800E00001003A0000047800A9
:10335000080078004F05BE004F04BE000080FA0050
:10336000000006008B0078000940780083FF07000A
:1033700000047800EEFF3700000520000100200067
:1033800090538900A153890000000600889FBE0069
:103390008A1F78008044780050052000705389000F
:1033A0006F0040008053890009407800F2FF070059
:1033B00072AA22004102200009407800B29B02005C
:1033C00000000000000478000800E0003F003A0020
:1033D00071AA220010A822001148780022AA220017
:1033E00061022000094078001A9B020000000000E2
:1033F000000478000800E00034003A002055810005
:103400000000E00004003A00803F2000E10C2000B2
:1034100010558900215589001055810021558100E2
:10342000305389004153890002AA2200E1012000A3
:1034300009407800789B020000000000000478003A
:103440000800E00021003A00803E20000155810084
:103450000008B8004909DD004700DE0000007100E7
:10346000C708DE00E0548900F154890050538900F8
:10347000615389000940780054FD07000005780079
:103480000A00E0001100350062AA2200610120005C
:1034900009407800B29B02000000000000047800A0
:1034A0000800E00009003A001800200060AA22008D
:1034B00011C0B30090CF100004003A000AF0A7003A
:1034C0000A05EA000A04EA004F44DE00080078001A
:1034D0004F0578004F04BE00000006000100780090
:1034E00082407800C3A8220092022000E29C0200E1
:1034F0000000000060548100E10F5000FDFF320029
:10350000605481000010A20000F0A7000000EA0053
:103510000000EA004F00DE00000006000202BE00CC
:1035200023A82200B35489004809DE0082497800AC
:103530000301E80001497800482BDE000700200065
:103540008200E80086487800402BDE00070020005B
:103550008100E80086487800C82BDE00C828DD001E
:103560004823DE0006837000E300410086487800AF
:103570008100E8008448780062C0B30083007800CE
:10358000D6FF0700000006008101780021A8220074
:10359000C1548900481ADE00844878000102E8001E
:1035A000034A78004812DE008181E80084497800EF
:1035B0008301E8008249780042C0B300C7FF0700DA
:1035C000000006008101780021A82200D154890062
:1035D000481ADE00844878000102E800034A7800B7
:1035E0008181E8008249780032C0B300BBFF070048
:1035F000000006000100780082407800A3A82200A5
:10360000920220000A9D0200000000005054810038
:10361000E10F5000FDFF3200505481000010A20065
:1036200000F0A7000000EA000000EA004F00DE0002
:1036300000000600889FBE0000447800010078006A
:103640008204780021A82200715489004801DE001C
:10365000824878000101E8000049780022C0B300E8
:10366000084078009DFF07000000E0001E003A00BF
:1036700042C0B3007154810008407800DDFF0700AC
:103680000000E00018003A007154810031419000C0
:103690000281FB008001EB001182FB008002EB0045
:1036A000C822DD0004002000040271008582710040
:1036B000114190008281FB00020020000202720092
:1036C00083827200214390000683FB008003EB009D
:1036D0004839DD00C831DE00830171004831DD006A
:1036E000821C7200839472004F04BE00000006002A
:1036F000889FBE00004478000100780082047800B2
:1037000021A82200815489004801DE008248780007
:103710000101E8000049780022C0B30008407800A9
:103720006EFF07000000E0000C003A0022C0B3006A
:103730008154810008407800AEFF07000000E000DF
:1037400006003A0081548100114190000281FB0083
:103750009180FB00C808DD00810C71004F04BE00A1
:1037600000000600889FBE00004478000100780039
:103770008204780021A82200915489004801DE00CB
:10378000824878000101E8000049780022C0B300B7
:103790000840780051FF07000000E00008003A00F0
:1037A00012C0B300915481000840780091FF0700D7
:1037B0000000E00002003A0091548100914C780032
:1037C0004F04BE0000000600889FBE008A1F7800DC
:1037D00000447800824478000345780020A8220045
:1037E000A05489004809DE00024878000001E80082
:1037F0000149780022C0B3008000780008407800BA
:1038000036FF07000000E0000E003A00A1548100DE
:103810008180E80012C0B3000840780075FF0700FF
:103820000000E00007003A00A15481000180E80098
:1038300090C464000948750032C0B30008407800A5
:1038400026FF07004F0578004F04BE000000060069
:1038500003A0220093017800E18161001B003A007F
:103860001300200003097800C49F2200940178000F
:103870009101980080497800A2019800E6814100FA
:10388000030A780000A12200808F510002003A0054
:1038900066005000E04F890000A022001010A10037
:1038A000F14F810064005000908F500002003A00F8
:1038B000640040001000A000C04F81000000E00044
:1038C00003003A008E40A800010037000009EB0019
:1038D0000000EB0000000600838141000300A0000F
:1038E0000308780022409800210098000000EB00B7
:1038F0000000060003884100224098002100980043
:103900000000EB000000060040508100660040000F
:103910004050890061A022001140E90080487800F1
:1039200003003A0040002000C04F89000200370029
:1039300010002000C04F89000000EB0000000600CE
:10394000AA44A800D14F8100A10090000100E0002E
:1039500001003200800878000000EB00C04F8900B1
:1039600000000600A0A02200F04F8900E04F89006F
:1039700000A02200900078000110A0000100A1002A
:1039800001087800640040000048EB00200120009E
:103990004025880000002800502588008000200075
:1039A00060258800AE24EF008E40A9009E40A8004C
:1039B0000000EB000000060040A02200104078004C
:1039C00000000600881F78000304780003A022008E
:1039D00093017800E18161000A003A0082017800D9
:1039E0000141780080007800C0A12200C1FF0700DB
:1039F00008017800C1A1220010C0B30094FF0700A5
:103A000001003700000CEB000000EB004F047800D1
:103A100000000600881F78000304780003A022003D
:103A200093017800E18161000A003A008201780088
:103A3000014178008000780060A12200A6FF070005
:103A40000801780061A1220010C0B30080FF0700C8
:103A500001003700000CEB000000EB004F04780081
:103A600000000600005081000000D10061006000ED
:103A700000000600005081006100600000000600A8
:103A80001024EF00E0208000F02080001224EF00DE
:103A90001424EF001824EF002024EF002424EF006A
:103AA0002624EF002824EF002A24EF0000862000BF
:103AB0008020880011E4A8001000200050568900E2
:103AC00000000600505681000000A20000F0A70090
:103AD0000000EA000000EA004F00DE0000000600DF
:103AE000210020001164AB0005003A00E13FB00066
:103AF00082208000828060008100EA00CF08DE0022
:103B0000810F50000D003200E10F5000070032001D
:103B1000E20F500009003A0011E4A9001144A90085
:103B20001164A80011E4A8000400370011E4A90002
:103B30001144A8001164A90011E4A80000000600C7
:103B40008F60A9002404A8009F60A8000000060060
:103B50009F60A9002404A90000000600F056890017
:103B600000000600110020000000E0000A00320002
:103B7000E22080008001EB000288BE00F42080007B
:103B80008002EB00C022DD00040020000218720059
:103B9000039072008000EB00010078000000060036
:103BA000110020000000E0000500320090007800C5
:103BB000E12088001000BE00F12088008000EB00AA
:103BC0000100780000000600889FBE008A1F780070
:103BD00001047800110020000000E0002400320001
:103BE0000800E00022003200892080001824AB0089
:103BF000FEFF3A000A8020000A85640002003200BD
:103C0000E7FF07000700370009A8A3000300320000
:103C100010007800E0208800020037001080FB00D0
:103C2000E020880001022000C220800002806000A5
:103C3000FDFF3A000A00E0000400320008007800AE
:103C4000C8FF07008000EB000900370009A8A300A7
:103C500004003200E0208000000C78008000EB00BF
:103C600003003700E0208000004C78008000EB006B
:103C7000010078004F0578004F04BE0000000600E8
:103C80000400FA00E0BF9F00F1BF9F0061AC22007A
:103C900064805700CCFF07003056810041568100F8
:103CA0000080FA00000006002056890021AC2200A6
:103CB00040AC2200C4FF070010568100000006003F
:103CC000C02080000000060099E3A9000210200037
:103CD000C104220000042200A2A50200000000008E
:103CE0000000E0002A003A0002202000C114220057
:103CF00040032200A2A50200000000000000E00036
:103D000023003A009823EF009A23EF00A223EF004C
:103D10009863A800F1002000011D88009BA3A90062
:103D20009BE3A9009AC3A9009AE3A900F2FF2E0021
:103D300081082000910861008960A900D1FF2F004F
:103D40000309200093896000A33920009389600053
:103D5000AE00A800E30A200093896000AE40A900ED
:103D60009980A800C10A200091086100ADA0A800B8
:103D7000ADC0A9009960A80099E3A8009B43A800E2
:103D80009B83A80011002000B11A890003003700AE
:103D900099E3A9008000EB00B11A89000000060039
:103DA000889FBE008A9FBE008C1F78008004780028
:103DB00001057800100020000900E0002A00320010
:103DC0009980A900213522000004220030A60200BB
:103DD00000000000800078009980A80010002000FA
:103DE0000100E00020003A00911A81008A8F500003
:103DF0001D0039000A00E0000D0032000004EB0055
:103E0000FBFF2E000C0422008009200010886500B2
:103E1000B94078000C007800C2A502000000000044
:103E20009980A8000804E800880F5500F6FF3E00BE
:103E30009980A9000000EB009B23AB0009003A0029
:103E4000413522000004220000A60200000000000C
:103E50000000E00003003A00413522009180FB00A1
:103E6000E11C88009980A8004F0678004F05BE002D
:103E70004F04BE0000000600889FBE008A9FBE005F
:103E80008C1F780000057800810478009960A900F3
:103E9000013522004003220030A60200000000008D
:103EA0009960A800801A81000120200080805000C5
:103EB000711A890020002000898F500013003900FA
:103EC0000000EB000900E000100032008000EB0071
:103ED0000044EB00FB7F2F004C03220080092000F0
:103EE00010886500810045000C00780000A60200E3
:103EF000000000009960A8000844E8008880FB00EA
:103F0000818F5400F5FF3E000000EB004F06780063
:103F10004F05BE004F04BE00000006009960A900D6
:103F20009980A9004003220062A602000000000060
:103F30009960A8009980A8000000EB00000006002E
:103F400060C12400A0568900100020003033880092
:103F500001012000D1338800A10020001133880026
:103F6000F14D2000B13388007426EF008826EF0061
:103F70007226EF008626EF006826EF007C26EF0011
:103F80006A26EF007E26EF00B0568900000006008A
:103F90000000E00003003200E10F50001D003A0075
:103FA0000E00370010002000E4CF50001A003E0041
:103FB0008180FB00000161000111DD008100DD0056
:103FC0008180EA00303380008100600082807000D0
:103FD000313388000000EB000F0037001000200094
:103FE000EFCF50000C003E008180FB00000161001B
:103FF0000111DD008100DD008180EA00D033800006
:104000008100600082807000D13388000000EB00E6
:1040100001003700100020000000060013002000FF
:104020000200E000180032000000E000030032004F
:10403000830F500013003A000900370013002000DE
:10404000E4CF500010003E00303380008180FB0040
:104050008100DE0061C960008001EB000A003700CA
:1040600013002000EFCF500007003E00D033800047
:104070008180FB008100DE0061C960008001EB00EF
:104080000100370013002000030078000000060044
:104090000000E00003003200E10F500027003A006A
:1040A0001300370010002000E4CF500024003E0031
:1040B0008180FB000100DD000080EA0015338000F4
:1040C00000826200610161000111DD0004017100E4
:1040D00012338800E18161008118DD006806B600B6
:1040E00001007000403388000000EB00140037002E
:1040F00010002000EFCF500011003E008180FB0037
:104100000100DD000080EA00B5338000008262001B
:10411000610161000111DD0004017100B23388000A
:10412000E18161008118DD007C06B60001007000AD
:10413000E03388000000EB00010037001000200091
:104140000000060013002000830F5000C7003E004F
:104150000000E00026003A00F40B20000008800078
:10416000000262007305200060042000051020009A
:10417000804A7800834A7800844A78000104E0008D
:104180000400320013002000E1CF50000F003A007D
:104190000700370000F82F00EE27B6000200780075
:1041A000F003B200EE27B7008001EB0007003700F4
:1041B000F00F2800EE27B6004811DD00F01FB10017
:1041C00000006100EE27B7008001EB0002088000CC
:1041D0000260A0007105200060042000041020008F
:1041E000004A7800014A7800024A78009F003700B0
:1041F000F40B20000008800000026200730520001C
:104200006004200005102000804A7800834A78006E
:10421000844A78000180FB008000EB00130020003E
:10422000EF0F5000E08F580088003E000060010052
:104230000F003700150037001C0037002200370040
:10424000290037002F003700360037003C003700C8
:104250004300370049003700500037005600370050
:104260005D003700630037006A00370070003700D8
:1042700000F82F00D427B60002007800F007B20043
:10428000D427B7008001EB0070003700F00F280042
:10429000D427B6004811DD00F01FB1000000610016
:1042A000D427B7008001EB006800370000F82F002A
:1042B000D627B60002007800F007B200D627B70074
:1042C0008001EB0061003700F00F2800D627B60010
:1042D0004811DD00F01FB10000006100D627B700D3
:1042E0008001EB005900370000F82F00D827B600F6
:1042F00002007800F007B200D827B7008001EB0079
:1043000052003700F00F2800D827B6004811DD0012
:10431000F01FB10000006100D827B7008001EB005A
:104320004A00370000F82F00DA27B60002007800B4
:10433000F007B200DA27B7008001EB004300370036
:10434000F00F2800DA27B6004811DD00F01FB10099
:1043500000006100DA27B7008001EB003B00370066
:1043600000F82F00DC27B60002007800F007B2004A
:10437000DC27B7008001EB0034003700F00F280085
:10438000DC27B6004811DD00F01FB100000061001D
:10439000DC27B7008001EB002C00370000F82F006D
:1043A000DE27B60002007800F007B200DE27B70073
:1043B0008001EB0025003700F00F2800DE27B60053
:1043C0004811DD00F01FB10000006100DE27B700DA
:1043D0008001EB001D00370000F82F00E027B60039
:1043E00002007800F007B200E027B7008001EB0080
:1043F00016003700F00F2800E027B6004811DD0056
:10440000F01FB10000006100E027B7008001EB0061
:104410000E00370000F82F00E227B60002007800F7
:10442000F007B200E227B7008001EB000700370079
:10443000F00F2800E227B6004811DD00F01FB100A0
:1044400000006100E227B7008001EB000208800055
:104450000260A0007105200060042000041020000C
:10446000004A7800014A7800024A78000300780088
:10447000000006000000E00004003A00E4CF500015
:1044800002003E00FAC24000060037001300200080
:10449000830F500042013A00EFCF500040013E0030
:1044A00081427800F40B20000008800000026200C6
:1044B000730520006004200001102000804878006F
:1044C00083487800844878006110B8001300200009
:1044D00022022000820F5000E08F580028013E0089
:1044E0000060010022003700280037002F0037004D
:1044F000350037003C0037004200370049003700E4
:104500004F003700560037005C003700630037006B
:104510006900370070003700760037007D003700F3
:10452000830037008900370090003700960037007D
:104530009D003700A3003700AA003700B000370005
:10454000B7003700BD003700C4003700CA0037008D
:10455000D0003700D7003700DD003700E400370017
:10456000EA003700F1003700F7003700FE0037009F
:1045700000FC2F009027B60005007800F003B20081
:104580009027B7008001EB00FD003700F00F2C00F2
:104590009027B600C82ADD0000F0230000806200EA
:1045A0009027B7008001EB00F500370000FC2F00DA
:1045B0009227B60005007800F003B2009227B700FA
:1045C0008001EB00EE003700F00F2C009227B600C0
:1045D000C82ADD0000F02300008062009227B700A7
:1045E0008001EB00E600370000FC2F009427B600A6
:1045F00005007800F003B2009427B7008001EB00BB
:10460000DF003700F00F2C009427B600C82ADD0029
:1046100000F02300008062009427B7008001EB00C7
:10462000D700370000FC2F009627B6000500780061
:10463000F003B2009627B7008001EB00D0003700EE
:10464000F00F2C009627B600C82ADD0000F02300EA
:10465000008062009627B7008001EB00C800370099
:1046600000FC2F009A27B60005007800F003B20086
:104670009A27B7008001EB00C1003700F00F2C0033
:104680009A27B600C82ADD0000F0230000806200EF
:104690009A27B7008001EB00B900370000FC2F001B
:1046A0009C27B60005007800F003B2009C27B700F5
:1046B0008001EB00B2003700F00F2C009C27B60001
:1046C000C82ADD0000F02300008062009C27B700AC
:1046D0008001EB00AA00370000FC2F009E27B600E7
:1046E00005007800F003B2009E27B7008001EB00C0
:1046F000A3003700F00F2C009E27B600C82ADD006B
:1047000000F02300008062009E27B7008001EB00CC
:104710009B00370000FC2F00A027B60005007800A2
:10472000F003B200A027B7008001EB00940037002F
:1047300000FC2F00A627B60005007800F003B200A9
:10474000A627B7008001EB008D003700F00F2C008A
:10475000A627B600C82ADD0000F023000080620012
:10476000A627B7008001EB008500370000FC2F0072
:10477000A827B60005007800F003B200A827B7000C
:104780008001EB007E003700F00F2C00A827B60058
:10479000C82ADD0000F0230000806200A827B700CF
:1047A0008001EB007600370000FC2F00B427B60034
:1047B00005007800F003B200B427B7008001EB00D9
:1047C0006F003700F00F2C00B427B600C82ADD00B8
:1047D00000F0230000806200B427B7008001EB00E6
:1047E0006700370000FC2F00B627B60005007800F0
:1047F000F003B200B627B7008001EB00600037007D
:10480000F00F2C00B627B600C82ADD0000F0230008
:1048100000806200B627B7008001EB005800370027
:1048200000FC2F00B827B60005007800F003B200A6
:10483000B827B7008001EB0051003700F00F2C00C3
:10484000B827B600C82ADD0000F02300008062000F
:10485000B827B7008001EB004900370000FC2F00AB
:10486000BA27B60005007800F003B200BA27B700F7
:104870008001EB004200370000FC2F00BC27B6008F
:1048800005007800F003B200BC27B7008001EB0000
:104890003B003700F00F2C00BC27B600C82ADD0013
:1048A00000F0230000806200BC27B7008001EB000D
:1048B0003300370000FC2F00BE27B600050078004B
:1048C000F003B200BE27B7008001EB002C003700D8
:1048D000F00F2C00BE27B600C82ADD0000F0230030
:1048E00000806200BE27B7008001EB002400370083
:1048F00000FC2F00C227B60005007800F003B200CC
:10490000C227B7008001EB001D003700F00F2C001C
:10491000C227B600C82ADD0000F023000080620034
:10492000C227B7008001EB001500370000FC2F0004
:10493000C827B60005007800F003B200C827B7000A
:104940008001EB000E003700F00F2C00C827B600E6
:10495000C82ADD0000F0230000806200C827B700ED
:104960008001EB000600370000FC2F00CA27B600CC
:1049700005007800F003B200CA27B7008001EB0001
:10498000020880000260A000710520006004200081
:1049900004102000004A7800014A7800024A78009A
:1049A0000300780000000600120020000004E00070
:1049B00005003A000100E000030032008220A80058
:1049C000A15689000001EB000200780000000600FB
:1049D00060A4220080077800780040000001880071
:1049E0000000060000578900FFFF370081FF2F00FD
:1049F000200B20001088600030002000B220B7009B
:104A0000F08F2F00C020B600C100A800F3FF2800DF
:104A1000820A200012896100A9A0A800E00A2000F3
:104A200010886000AE20A800C20A20001289610030
:104A3000ADA0A800800B200010886000300020008E
:104A4000B820B700F1F82F00820B20001289600017
:104A500000032000B820B700420C2000128961003A
:104A600000002300C420B70081E0A90081E0A80075
:104A700000000600710520000001EB00600420002A
:104A8000031020008049780081497800824978002D
:104A900000122300100888000621EF0010002900F2
:104AA000400B88006A21EF006C21EF000821EF0025
:104AB00000702000500888000C21EF000E21EF004C
:104AC0001021EF00000006008300A9008300A80069
:104AD000E8FF0700C5FF0700000006009021EF0077
:104AE00000E82300900C88009421EF008860A90062
:104AF0009860A80095E1A8000000EB000000060007
:104B00009A21EF00E0012000F00C88009621EF00D0
:104B100000482800E00C8800A021EF00A061A80058
:104B2000A081A800A0A1A900A1E1A8000000EB00BD
:104B3000000006009601D500000006009621EF0057
:104B400000000600130020000000E0000B0032000F
:104B50000100E000090032002100980032009800B6
:104B60008000EB000108780011009800120020007E
:104B700042009800510098008001EB00030078008B
:104B800000000600A00190001001780081717900FA
:104B9000300190000201E9009000E800810061000E
:104BA00001087800C0019000E38F510006003A0030
:104BB00011009800D00090008100E800510098009A
:104BC000100020000D00370090019000838F5000EE
:104BD00007003A0033002000430098008100E800FD
:104BE00002816000120098001000200003003700CE
:104BF00021002000410098000000EB0000000600AA
:104C0000C001900022002000E18F5100120032000C
:104C1000A001900010019000E3487900300190005D
:104C20000201E900900090008100E800810061002D
:104C300011009800908F500004003A0011002000ED
:104C4000410098000001EB00030037002100200024
:104C5000410098000001EB0002007800000006000F
:104C6000120020000000E000140032000100E0000B
:104C70001200320040019000E30F510004003A009E
:104C800030009000800878000001EB000B00370036
:104C90001001780090019000830F51000500390049
:104CA0003000900080814100828851000001EB00BB
:104CB00002003700828851000001EB0002007800FA
:104CC00000000600110020000000E0000600320095
:104CD0008000EB000108780011009800110020000E
:104CE000410098008000EB00010078000000060001
:104CF0001000200000000600100020000000060048
:104D00001000200000000600100020000000060037
:104D10001000200000000600100020000000060027
:104D20001000200000000600100020000000060017
:104D30001000200000000600100020000000060007
:104D400010002000000006001000200000000600F7
:104D50000080FB0000004000819C22006100780080
:104D60000000E00001003A001000200000000600F2
:104D70000080FB006600400000004000819C220093
:104D8000610078000000E00001003A000080EB00C4
:104D9000000006000080FB006C00400000004000A6
:104DA000819C2200610078000000E00001003A00D0
:104DB00010002000000006000080FB007200400090
:104DC00000004000819C2200610078000000E000AB
:104DD00001003A001000200000000600CF3FB000A4
:104DE000CF3FB000CF3FB000EF2EB000889FBE0095
:104DF0008A9FBE008C9FBE008E1F780080067800C0
:104E000020112F000F00400002AA02000000000045
:104E10000004E000D4003A00C20D20000D01410062
:104E20000000EB00849C2200F10420008080400000
:104E30008180400023112F008F814100E3807800A2
:104E4000012978008001400001B279000000E800EB
:104E5000E60F5000F4FF3A008A0E20000D054500D1
:104E60000004EB008B9C220050052000080040004D
:104E70000000400021112F008F804000E1047800E5
:104E80006148B900544D020000000000844C02004B
:104E900000000000002D7800660044000000400083
:104EA000893578000804E800E60F5400EEFF3A0068
:104EB0004A0F20000D0545000004EB008B9C2200EA
:104EC000B0052000080040000000400022112F0023
:104ED0000F014100E20478006148B900544D02001E
:104EE00000000000844C020000000000002D78004B
:104EF0006C00440000004000893578000804E80098
:104F0000E60F5400EEFF3A000A1020000D054500A0
:104F10000004EB008B9C22001006200008004000DB
:104F20000000400023112F008F814100E30478002E
:104F30006148B900544D020000000000844C02009A
:104F400000000000002D78007200440000004000C6
:104F5000893578000804E800E60F5400EEFF3A00B7
:104F60008005EB000E0320002E0037007848B900C2
:104F700000054600E40C20000A02420020112F0028
:104F80000F004000040240001400780094009000DC
:104F900024019000B4019000D24D020000000000F6
:104FA000008CBE00640D20000A02420021112F0077
:104FB0008F8040000482400014007800940090002C
:104FC00024019000B4019000D24D020000000000C6
:104FD0002004980031049800EA0DB00022112F003F
:104FE0000F0141000A0541001A0078009A00900064
:104FF0002A019000BA019000D24D0200000000008A
:1050000040049800510498008904E8006C044400AE
:10501000E48F5400D5FF3A008B05E800E38F55007C
:10502000490032000EDCB900E804B00008844600F4
:105030008004EB000306200003D8B90000067800C6
:10504000CAFF370008824500640242004322DD00A7
:1050500020112F000F0040000402400014007800CF
:105060009400900024019000B4019000D24D020001
:105070000000000080ACBE000804E800E40F54000B
:10508000F0FF3A000A05E800E30F550030003A004F
:1050900021192F00EF817800830E780040192F002E
:1050A0006F0178009206980063192F00EF80790055
:1050B000A106980082192F006F007900B0069800B1
:1050C000A1192F00EF817800C3069800C0192F00A6
:1050D0006F017800D2069800E3192F00EF80790065
:1050E000E1069800021A2F006F007900F006980080
:1050F000211A2F00EF817800830E9800401A2F00AC
:105100006F017800920E9800631A2F00EF807900EB
:10511000A10E9800821A2F006F007900B00E98003F
:10512000A11A2F00EF817800C30E9800C01A2F003B
:105130006F017800D20E9800E31A2F00EF807900FB
:10514000E10E9800080037000005EB000006EB00B8
:10515000C454DD00FA844400898446000C047800BD
:10516000C255DD00B7FF37000000EB004F077800A5
:105170004F06BE004F05BE004F04BE00EF1FB1003A
:10518000EF1FB100EF1FB100EF1FB100EF1FB10023
:10519000EF1FB100EF1FB1000F0FB10000000600BC
:1051A000CF3FB000CF3FB000CF3FB0000F2FB000D7
:1051B000889FBE008A9FBE008C9FBE008E1F780015
:1051C00080BF9F0000112F000F00400002AA0200C4
:1051D000000000000007EB000004E0001E003200A9
:1051E00049003700090246004322DD00E41EB000FA
:1051F00000112F000F00400004024000140078004E
:105200009400900024019000B4019000009DBE0025
:105210000295BE00120020000A00BE00F2AE02009D
:10522000000000003B1C78002B1478009D007800E3
:10523000210498008904E80066044400E68F5400C5
:10524000E8FF3A000E07E80030042000800F570006
:1052500004003A000B0037000A9C2200AB9B22009E
:10526000E48645004102200001F4B9000FB8970020
:10527000080440008004EB006670B9000006780066
:10528000D8FF3700C89620008FB8970008844000E8
:105290008004EB000A9C2200EB9B220024192000D2
:1052A000090242004322DD00E41EB00000112F007D
:1052B0000F004000040240001400780094009000A9
:1052C00024019000B4019000009DBE000295BE0034
:1052D00012002000A19B22000A007800F2AE02001A
:1052E00000000000D04D8100E14D8100008CBE0027
:1052F0009B007800210498008904E80066044400BB
:10530000EC8F5400E5FF3A000000EB004F077800F7
:105310004F06BE004F05BE004F04BE00EF1FB10098
:10532000EF1FB100EF1FB100EF1FB100EF1FB10081
:10533000EF1FB100EF1FB1002F0FB10000000600FA
:10534000E20EFA00E0112F000F00400002AA020056
:10535000000000000004E00010003A00D1122F000D
:105360000180470091AA220053132F0003814700B8
:10537000D0687800820F5000FDFF3A00809B220029
:1053800001122F00EFC17800034878008100E80087
:105390006FC0780044780200000000000002EB00BB
:1053A000230020000F81E9000000230021002000DD
:1053B000C6AB020000000000FFB897000100E80043
:1053C000F0BF9F007C880200000000000002EB009C
:1053D000230020000F81E9000000230021002000AD
:1053E000BEAC0200000000006EAC02000000000035
:1053F0000080FA0000000600809B22001040780028
:1054000000000600881F7800000478000002EB000E
:1054100003EE200008017800000020002100200099
:10542000C6AB0200000000008000EB00E2ED2000AF
:105430000300200008007800BCAE0200000000005D
:1054400080007800E0ED2000000044001080FB00A8
:10545000F2ED2000020144001281FB004811DD0042
:105460000201700010C0B300810F510008003A0023
:105470001880FB0098409000C808DD008100700093
:1054800020C0B300E18F500001003A000040EB0063
:105490004F04780000000600881F780000047800A0
:1054A0008000EB00E2ED20000300200008007800FF
:1054B000BCAE020000000000E1ED200000F4780026
:1054C0004800DE008100E80000F478000002EB00F4
:1054D00003EE2000080178000000200021002000D9
:1054E000BEAC0200000000006EAC02000000000034
:1054F0004F047800000006000400FA006011B800B4
:105500000004E00002003200120620000300200028
:10551000E2BF9F00F3BF9F000002EB0033002000BA
:105520006481570000002A0021002000BEAC020068
:10553000000000006EAC0200000000000080FA00D5
:10554000000006000400FA00F00F20000100200017
:10555000E0BF9F00F1BF9F000002EB00330020007E
:105560006481570000002A0021002000C6AB020021
:10557000000000000040EB006FB99700FFB99700F2
:1055800011062000810F5100E08F590002003A00FF
:10559000D9FF070010C0B3000080FA000000060029
:1055A0000C00FA00889FBE00F8FF2F00F90F2000C2
:1055B00088BF9F0099BF9F000002EB0033002000CE
:1055C000708157000080290021002000C6AB020036
:1055D000000000000FB997009FB997000040EB0052
:1055E000880F5100898F590029003200E00F5100C7
:1055F000E08F5900260032006000B800A0BF9F0075
:10560000B1BF9F00C0BF9F00D1BF9F000002EB0051
:1056100033002000688157004080290021002000CD
:10562000C6AB0200000000000002EB0033002000C7
:105630006C8157008080290021002000C6AB020049
:1056400000000000008024002FB9970000014100F5
:10565000008024000100200016AD020000000000C0
:105660006102B8000040EB004FB99700DFB9970026
:10567000820F5200838F5A0005003A000FB897003E
:105680009FB89700F05589000156890010C0B300FB
:105690004F04BE000080FA0000000600F0558100B3
:1056A0000156810000400100000006000002EB00EE
:1056B0008300200062AB220000802900210020002E
:1056C000BEAC0200000000006EAC02000000000052
:1056D0000000060061AB2200B0187800A01078002E
:1056E00020019000B0019000A2009800B300980043
:1056F00000000600889FBE008A1F78008C9FBE00B5
:105700000205780002802F00000161006108B800E6
:10571000C004DD00080020006110B800000474001F
:10572000818474000800BE0088AD02000000000003
:105730006066B8008D00D1000C80D30000004400EA
:1057400081804C000A01780016AE020000000000C3
:105750000C20B0000D80B0000A18B000000021003D
:1057600001002000800F5600818F5E00F1FF3A009B
:10577000200322000048EB000000EB004F06BE00B3
:105780004F0578004F04BE0000000600889FBE0051
:105790008A9FBE008C9FBE000004BE0003057800F7
:1057A000040678000A00E0001A0032008205780042
:1057B000EDFF2F000C00E00002003A008A017800A3
:1057C000010037008C0178000B0178000800BE0052
:1057D000B2AD0200000000008A0F50000D003E0034
:1057E000000555000B0032008085450008816600E9
:1057F0006148B800C004DD00080020006110B80056
:10580000000474008184740062044400E0844C004D
:10581000E8FF37000000EB004F06BE004F05BE005A
:105820004F04BE0000000600889FBE0004802F00C9
:10583000000262006108B800C004DD00080020001A
:105840006120B80000047400818474000002EB0041
:105850000800BE00CDFF0700C8568900D956890050
:10586000200322000048EB000000EB004F04BE00C4
:1058700000000600881F780002047800C4568100EA
:10588000D556810006802F00000363006109B8002F
:10589000C010DD00000020006131B800020070007F
:1058A00083807000840F5000858F58000400320000
:1058B00003C02000224321000400BE00DAFF0700DD
:1058C00002C020002143210008007800805B020014
:1058D000000000004F04780000000600000CFA00F1
:1058E0000041EB002003220011C0B30090CF100054
:1058F0001F003A00C0568100D1568100E10F4000E0
:10590000E08F48001A00320003C02000224321002B
:1059100078FF07000041EB00004321001004E00085
:105920001300320002402F0002804700FF050900EB
:105930000018EB0003C020000F014100C056810099
:10594000D1568100B8FF070002402F000F0141002F
:10595000C0568100D1568100C6FF070000017800C3
:1059600002F0A7000201EA000201EA004F11DE0086
:105970000200FB000080FA0000000600889FBE00C5
:105980008A9FBE008C9FBE000004BE008206780085
:105990000306780002802F00000161006148B80012
:1059A000C005DD000A0020006110B8000005750088
:1059B00081857500C0568100D1568100800F550049
:1059C000818F5D0009003200C4FF0700800078006D
:1059D000100020000100E00010003A0003C0200089
:1059E000224321000A00BE008FFF0700F07F200045
:1059F0000004640021432100010044000C017800F0
:105A00008D0078009C5B02000000000011C0B30014
:105A100020032200014878000000EB004F06BE0082
:105A20004F05BE004F04BE0000000600E887470097
:105A3000889FBE008A9FBE008C9FBE008E1F78008C
:105A40000005BE0082BF9F008006EB0002007800C8
:105A50000000E000270032008FB99700E38F51006B
:105A60000100360033002000748157000A00BE0098
:105A7000B2AD020000000000000778000E00E00058
:105A80000B0034000006EB006174B9008D00780053
:105A90000801BE0074805700BCAE02000000000088
:105AA000800678000C06E8008C0F5700F7FF3C00DA
:105AB0000FB89700800F57000E003E000E005000F8
:105AC00080BF9F000B003200E0FF2F000A01600042
:105AD0006158B800C005DD000A0020006110B80060
:105AE000000575008185750062054500E0854D0063
:105AF000D9FF37000D0078004F0778004F06BE0031
:105B00004F05BE004F04BE008F00B100000006002C
:105B1000213B8800103B880030002400003B8800B7
:105B200050052000303B8800A00A2000303B880050
:105B30000500FC0050052000303B8800A00A200032
:105B4000303B880061E7A800000000000000000072
:105B50006007E200FEFF3500000022006007B6008B
:105B6000000006000400FA00889FBE0000047800D0
:105B70000800A100610BB800C032DD000400200065
:105B80006143B8000602720087827200040450006C
:105B9000858458000580FB00A00288001403BA0029
:105BA0008003EB001482BA008002EB00688057008B
:105BB000000009000018EB000058EB0031C0B300F2
:105BC00088C050000180FB00830F500001003400AA
:105BD0008340780086FF9F004838DD004833DE00B0
:105BE00006037000C83BDE0096FF9F00A4FF9F00E5
:105BF0008181FB004240A900080034000800E90050
:105C0000E8805700008040008000EB005059780089
:105C10008100E800838F5000FCFF3500030078000E
:105C20004F04BE000080FA0000000600230024009C
:105C3000033B8800A30F2000A3028800213B8800BB
:105C4000103B88000000EB00041020009240900000
:105C5000C808DD009281FB00818071000108BB0053
:105C6000A24090008180FB000188BB0063014100DD
:105C70000080E800840F5000F4FF3A000500FC00AB
:105C800050052000303B8800A00A2000303B8800EF
:105C900061E7A80000000000000000006007E200CB
:105CA000FEFF3500000022006007B600000006007D
:105CB000071820008283430000C3EB00400ADE0087
:105CC000050020008441780000027800834F5300D3
:105CD000030032008382FB00A502880003437800A2
:105CE0009401BA001482BA0003497800C819DE0092
:105CF000134198002441980063014100870F51002F
:105D00000300320062004000E0804800EBFF3700F3
:105D10000000EB0000000600889FBE008A9FBE00C6
:105D20008C9FBE000205BE000001EB008A0F5000F0
:105D30008B8F58000B0031000004BE000C002100C6
:105D40000D0020000800BE0071FF07000001780070
:105D50000804460089844E00880F5500898F5D0035
:105D6000F8FF3E00020078004F06BE004F05BE005F
:105D70004F04BE0000000600E00F5100E08F590004
:105D8000160032000003780001007800A5192B00EE
:105D9000CC03DE003682FB00C420DE0081806B0075
:105DA00081804000E58078004400DD00808068004C
:105DB0004C08DE00040268006F0262000402420028
:105DC00065007A00C408DD0001006800610151002F
:105DD000E0815900EEFF3A00010037000100780031
:105DE00000000600E6874700889FBE008A9FBE002D
:105DF0008C9FBE008E1F7800F2B79F000200E0006B
:105E0000D000320000077800810678000000EB0027
:105E100080BF9F003E04BE002E05BE006022B80079
:105E20006033B8000800BE000A01BE004A4C020000
:105E3000000000000000E00056003D0004002000CB
:105E40000508200006002000071B2C000800BE00EB
:105E50000A01BE004A4C0200000000000006EB00F0
:105E60000000E0001C003D006022B8000600200099
:105E700007FE23000800BE000A01BE001A560200F9
:105E8000000000000004BE000205BE000C06E80091
:105E9000040020000508200006002000071B2C003D
:105EA0004A4C0200000000000000E000EEFF350058
:105EB0006022B8000600200007FE23000800BE0094
:105EC0000A01BE007855020000000000844C020068
:105ED00000000000910037006022B800060020009A
:105EE000071A2C000800BE000A01BE00544C020034
:105EF000000000000006EB000000E0001A00340083
:105F00000802BE000A03BE000800BE000A01BE006F
:105F100084550200000000000004BE000205BE001F
:105F20000C06E9006022B80006002000071A2C00C9
:105F3000544C0200000000000000E000F0FF3C00B4
:105F40006022B8000600200007FE23000800BE0003
:105F50000A01BE007855020000000000844C0200D7
:105F6000000000006D0037006022B800060020002D
:105F700007FE23000800BE000A01BE00785502009B
:105F800000000000844C0200000000000006EB004E
:105F9000620037006022B8006033B8000800BE001D
:105FA0000A01BE00544C0200000000000000E000A6
:105FB000580034000400200005F02F00F6FF2F00E9
:105FC000F71A24000800BE000A01BE00544C02006B
:105FD000000000000006EB000000E0001C003400A0
:105FE0006022B8000600200007FE23000800BE0063
:105FF0000A01BE001A560200000000000004BE00A4
:106000000205BE000C06E8000400200005F02F0089
:10601000F6FF2F00F71A2400544C02000000000085
:106020000000E000EEFF3C006022B8000600200007
:1060300007FE23000800BE000A01BE0084550200CE
:1060400000000000844C0200000000003300370014
:106050000400200005E02F00F6FF2F00F7192400B0
:106060000800BE000A01BE004A4C02000000000009
:106070000006EB000000E0001B003D000802BE002F
:106080000A03BE000800BE000A01BE0084550200DB
:10609000000000000004BE000205BE000C06E9007E
:1060A0000400200005E02F00F6FF2F00F719240060
:1060B0004A4C0200000000000000E000EFFF350045
:1060C0006022B8000600200007FE23000800BE0082
:1060D0000A01BE008455020000000000844C02004A
:1060E000000000000D0037006022B800060020000C
:1060F00007FE23000800BE000A01BE00845502000E
:1061000000000000844C0200000000000006EB00CC
:10611000020037000006EB006000B800808EBE0071
:10612000AC0698008FB897008100E80081BF9F00FF
:1061300068074700E68646007FB19700810F51004F
:1061400034FF3E000000EB004F0778004F06BE0012
:106150004F05BE004F04BE006F00B10000000600F6
:10616000889FBE000200E000100032006044B800CA
:1061700007802F00300278008002EB008901780050
:106180000402420085824A008301E900058363001E
:10619000FBFF32008488BE00A30098000804E800DA
:1061A000E6804000880F5100F2FF3E000000EB0047
:1061B0004F04BE0000000600DC2A000002000000C0
:1061C0008200000001000000CC2A0000080000004E
:1061D00080000000020800002E0C0000800000007B
:1061E000762900004200000080000000E425000045
:1061F0006A02000080000000AA2A00000C000000D3
:106200008200000048455800424C41004E4BFF00C0
:106210007F080000582300008C020000800000006E
:106220004E2800009400000080000000222A000098
:106230002400000080000000E2280000940000001C
:1062400080000000662A00001C00000082000000A0
:106250000000000000000000000055000064000085
:10626000000000000000000000000000000000002E
:1062700000000100000000009C2A00000E00000049
:1062800080000000822A00001A0000008000000048
:10629000F82900002A00000080000000DE2A00002B
:1062A0000200000082000000164C0000C22A00001C
:1062B0000A000000800000003420000024030000D9
:1062C00080000000D42A00000400000080000000CC
:1062D000E02A00000200000082000000FFFF000032
:1062E000462A00002000000080000000B8290000BD
:1062F0004000000080000000B62A00000C000000F2
:1063000080000000D82A0000040000008200000085
:10631000FFFFFF00FF00000030140000040C00002D
:106320008000000000080000020000008000000063
:1063300000000000000000002110000042200000CA
:106340006330000084400000A5500000C6600000DB
:10635000E770000008810000299100004AA10000B8
:106360006BB100008CC10000ADD10000CEE1000097
:04637000EFF1000049
:020000040005F5
:10200000164C040000000000164C04000000000004
:10201000164C040000000000164C040000000000F4
:10202000164C040000000000164C040000000000E4
:10203000164C040000000000164C040000000000D4
:10204000164C040000000000164C040000000000C4
:10205000164C040000000000184C040000000000B2
:10206000164C040000000000164C040000000000A4
:10207000164C040000000000164C04000000000094
:10208000164C040000000000164C04000000000084
:10209000164C0400000000003A4B04000000000051
:1020A0000A4B040000000000164C04000000000071
:1020B000164C040000000000164C04000000000054
:1020C000164C040000000000164C04000000000044
:1020D000164C040000000000164C04000000000034
:1020E000B64B040000000000164C04000000000085
:1020F000164C040000000000164C04000000000014
:10210000164C040000000000164C04000000000003
:10211000164C040000000000164C040000000000F3
:10212000164C040000000000164C040000000000E3
:10213000164C040000000000164C040000000000D3
:10214000164C040000000000164C040000000000C3
:10215000164C040000000000164C040000000000B3
:10216000164C040000000000164C040000000000A3
:10217000164C040000000000164C04000000000093
:10218000164C040000000000164C04000000000083
:10219000164C040000000000164C04000000000073
:1021A000164C040000000000164C04000000000063
:1021B000164C040000000000164C04000000000053
:1021C000164C040000000000164C04000000000043
:1021D0002049040000000000164C0400000000002C
:1021E000164C040000000000164C04000000000023
:1021F000164C040000000000164C04000000000013
:10220000164C040000000000164C04000000000002
:10221000164C040000000000E44A04000000000026
:10222000164C040000000000164C040000000000E2
:10223000164C040000000000164C040000000000D2
:10224000164C0400000000008C4B0400000000004D
:10225000164C040000000000164C040000000000B2
:10226000164C040000000000164C040000000000A2
:10227000164C040000000000164C04000000000092
:10228000164C040000000000164C04000000000082
:10229000164C040000000000164C04000000000072
:1022A000164C040000000000164C04000000000062
:1022B000164C040000000000164C04000000000052
:1022C000164C040000000000164C04000000000042
:1022D000164C040000000000164C04000000000032
:1022E000164C040000000000164C04000000000022
:1022F000164C040000000000164C04000000000012
:10230000164C040000000000164C04000000000001
:10231000164C040000000000164C040000000000F1
:10232000164C040000000000164C040000000000E1
:10233000164C040000000000164C040000000000D1
:10234000164C040000000000164C040000000000C1
:10235000164C040000000000164C040000000000B1
:10236000164C040000000000164C040000000000A1
:10237000164C040000000000164C04000000000091
:10238000164C040000000000164C04000000000081
:10239000164C040000000000164C04000000000071
:1023A000164C040000000000164C04000000000061
:1023B000164C040000000000164C04000000000051
:1023C000164C040000000000164C04000000000041
:1023D000164C040000000000164C04000000000031
:1023E000164C040000000000164C04000000000021
:043000001048000074
:045E0000F77F000028
:045E2000F6FFFF008A
:045E300089FFFF00E7
:045E3800A3FFFF00C5
:045E40009FFFFF00C1
:045E4800FFFFFF0059
:045E5000DFFFFF0071
:045E5800FFFFFF0049
:00000001FF
