:020000040000fa
:080000000001040000000000f3
:020000040000fa
:100200004f8920000e7f24000e01880000000000ae
:10021000000020000000e000020032000001200089
:100220002002880014000700f20007000000e00030
:1002300003003a0040752000010020000200370052
:100240000000200001002000810f7000010032003a
:1002500014000700000020000000e000020032004f
:100260000000020000000000da07020000000000a9
:100270000040da000000fe004440a900c000200059
:100280000000e00003003200002020009001880000
:100290004440a800000006008a1f78008b1f7800e9
:1002a00000000600a1028800800478000000eb0036
:1002b0001f003700e284440054a0b4009905ba003e
:1002c000e284440054a0b4009906ba00e2844400d9
:1002d00054a0b4000006eb00476fde00fd07b2003b
:1002e000ae018800636ce10003003a00eaff0700fa
:1002f0000000eb000e003700606ce10008003a00df
:10030000004deb000a05e800020039003420ec0043
:100310000af0a0008b05e900f9ff3e000400370059
:100320006168e100010032000086eb000b0007006d
:1003300019c7ba001905ba000e04e00003003a001c
:100340000a00e000dbff3a0000000600fe07b200f2
:10035000ae0288008a047800f5ff37000cd0a300b5
:10036000e20f4d001c00390089027800354dba00bb
:100370000a05e800020039003420ec000af0a00071
:100380008b05e9000f003200254dba000a05e80090
:10039000020039003420ec000af0a0008b05e900cf
:1003a000080032000c00e0000600320015cdba0053
:1003b0000a05e800020039003420ec000af0a00031
:1003c0008b05e9008984e80054a0b4000b00e0002c
:1003d000e2ff3a00000006009902ba00055d7800cd
:1003e0008b05e900f7ff3200c82ade00055d7800c2
:1003f0008b05e900f3ff32000c00e000f1ff320052
:1004000019ddba00eeff3700c60504000000000049
:1004100000000400000000000040da000000fe00c0
:100420000a00fa0011002000b1bf9f00c0bf9f006a
:100430006a8057008a0207004fb897000080fa00d0
:10044000000006000a00fa00e20f500034003e00ef
:1004500080448000e10f500003003200e20f5000a2
:1004600011003a000c003700833920000300e0003f
:1004700001003a000040da009803e2000200350073
:10048000a023ef0099e3a8009b43ab000d003a00c6
:100490009b43a8000b003700e33a20000300e00074
:1004a00001003a000040da00ae03e200020035002d
:1004b000b623ef00afe3a800b143ab0001003a0060
:1004c000b143a800820178000b0037003102fb0025
:1004d000e10f500004003a009b23ab00feff3a00fe
:1004e000e41c880003003700b123ab00feff3a0094
:1004f000941d88008301e9000300e000f3ff3a0047
:10050000e10f500003003a009b03ab00feff3200f6
:100510000b003700b103ab00feff320008003700cc
:1005200033002000b3bf9f00c0bf9f00d1bf9f001a
:10053000e2bf9f006a8057004b0207006fb9970027
:10054000020078000080fa00000006000a00fa00ad
:1005500051002000b1bf9f00c0bf9f006a805700bc
:10056000430207005fb897000080fa000000060011
:10057000889fbe0080047800904480000000e00066
:1005800004003a000e0007000084eb000000e000c9
:1005900008003500984480000900e00005003200a2
:1005a00009004400060007000000e00001003d00d3
:1005b0000084eb00080078004f04be000000060035
:1005c000800078000100e00003003a0000002000f5
:1005d00090448800000005000080eb00020020002d
:1005e000828f500002003e00914488000000eb0022
:1005f0000000060000000500889fbe008a1f7800ea
:10060000000478000800e0000d003a006887200030
:10061000700544008004eb00580078000000e00002
:1006200004003200f4ff07000000e00001003d007c
:100630008084eb008a0f5400f7ff3a002500370052
:1006400000002200180060008004eb00210032004e
:10065000a80490000f0037000901510038409000b5
:100660000000fb008900780076ff07000000e00032
:1006700007003c00280090004004980060049800a7
:10068000500c98001890a0008084eb0011003700f7
:100690008084440048019000828f5400eeff3900ae
:1006a00028009000400498009800780002c02000c4
:1006b0000281600001003a003800900001e8a300c8
:1006c000020032006004980001003700500c9800ce
:1006d0008004eb00090078004f0578004f04be004d
:1006e00000000600818220002f00070080007800b3
:1006f0000080eb000100e000040035008182200052
:10070000a0002000020007004f80de00000006006d
:10071000889fbe008a1f78000004be00c9009000b8
:1007200069009000808f50000500390009007800b2
:100730007c0007008080eb000000e0001600350020
:10074000084578004900900008587800c0049800d7
:100750001900780000b8a30004003a0000a8a30024
:1007600007003200ea4f540005003a000900780003
:10077000a1ff07008080eb000000e00006003a00c7
:1007800000c0200019006000020032004900900003
:10079000e00498008a80fb00010078004f05780093
:1007a0004f04be0000000600889fbe008a9fbe0066
:1007b00080047800010478002c003700c800900005
:1007c00068009000808f5000040039000800780015
:1007d000540007000000e000370035000040200012
:1007e0001800600009003200a10020000900780014
:1007f00042000700800578000b00e0000300320093
:10080000618514000a85450004003700090078005e
:1008100034000700000578008005eb0048009000d8
:10082000e8009000808050008a8f50000200310064
:10083000010578008005eb000a0178008900780046
:1008400021000700480090000a0040004004980082
:100850000b00e000040032000800780066ff07008b
:100860000000e00014003a008a8444001904e0000b
:10087000d2ff3a000080200018006000060032001d
:10088000080078005cff0700800078000080eb0023
:100890000100e00009003a0001c0200098806000db
:1008a0000000eb0005003200480090006004980052
:1008b0000000eb00010037000080eb004f05be0098
:1008c0004f04be00000006008001780002003700df
:1008d000b15978000201e9000200e000fcff3a0093
:1008e0000000060080007800010178003104e0007b
:1008f000fdff3a0000005100000006000001eb007f
:1009000000027800b041780081cf510001003a0028
:10091000040178000304e000f9ff3a0002007800c7
:1009200000000600889fbe008a1f7800000478003f
:10093000c8009000680190000000eb00828f50001a
:100940003c003900180078002200290002016000f4
:10095000e20f510007003200012024000000e000f7
:1009600001003d0001202000008c70000080eb00a1
:10097000300037000200260002006000820f5000a5
:1009800009003a0038009000808f500006003900be
:100990000800780018ff0700800078000080eb0056
:1009a0000100e00023003a001805780000c0200094
:1009b0000000650018003a00a804900060022000c2
:1009c00008004000808f540013003a0000202000ef
:1009d000ef000700200498000000e00005003a0046
:1009e00029049800490498008904e8003904980013
:1009f000080037000a60a0000a0c78004004980044
:100a0000012020008080400031049800400c9800b4
:100a1000500c98000c00070028009000500498002b
:100a2000380090006004980000002600180c700048
:100a30000000eb004f0578004f04be0000000600e8
:100a4000605c200061003700881f7800c8882000a3
:100a50001804e00003003a00f9ff070020c0b300cb
:100a6000004c78004f04780000000600889fbe000c
:100a70000004780008007800dffe0700800478009a
:100a800000042000180060000200320028009000de
:100a90005a0007000000eb00200498003840900046
:100aa0000004e000050035000000fb005cfe0700cc
:100ab0000000e000010032008084eb00181090007c
:100ac0000000e00008003200a0fe07000000e00087
:100ad000010032008084eb001810900047000700ee
:100ae0000000eb00101498000008200018006000bf
:100af000150032000001eb006000b8008387200081
:100b00000202d00063027a00880f520005003a000a
:100b10000000400081804800008041000008eb0098
:100b20000600370061004000e08048000201e80054
:100b3000e80f5000e08f5800f0ff3a0008007800fe
:100b40002e0007000e003700000c780000c0eb00fc
:100b50003044980060022000080040002004980003
:100b60004004980050049800400c980060049800dd
:100b7000500c98007004980076004400000c980017
:100b8000090078004f04be0000000600881f7800ae
:100b90000004eb006140b800e2ff2f00f3ff2f00dc
:100ba000b500070062882000620078000000e000c5
:100bb00001003200adff07000804e800e80f540010
:100bc000f4ff3a004f047800000006000100200006
:100bd0000100e00008003200010080000100e00098
:100be000050032008100e900010088008100d0008a
:100bf0000200800000b17800000006000000e00064
:100c00002f003200c0017800e38f51002c00360025
:100c10000308a3002a003a00514480000100e000cc
:100c200002003200810f50000400310011009800d2
:100c300050448800160037008200780011019000af
:100c40000200e00002003200800f5100faff39007c
:100c50001102780084824000850f5000180039008e
:100c6000808f520003003a008308420001007800a0
:100c7000070037000200e00003003200830140005b
:100c8000830f51000e003900120098009000980068
:100c9000900090000100e0000900320010014000c7
:100ca000828f500006003a00828820000009eb0085
:100cb0001001780011084100910090001100980087
:100cc00000000600889fbe000004780041448000b8
:100cd0000100e00002003200010078000d00370042
:100ce00051448000a088200004003700910f540078
:100cf000250036000180e800910090000100e0002e
:100d0000faff3a0010003700920f54001e00360020
:100d10000280e800100178000200e000faff3a00cb
:100d20001101780051448000a088200004003700a1
:100d3000910f5400140036000180e80091009000eb
:100d4000828f5000faff3a0079448000888f540067
:100d5000010031008804780009007800360007009f
:100d60000000e00004003a00888f540005003200c3
:100d70008904d100f5ff3700091878009fff0700ac
:100d8000d2ff37000000eb004f04be000000060059
:100d9000881f7800630440000800a1008000eb0079
:100da000800f540021003600e30f540001003e0084
:100db0004800200008007800c2ff07008000eb0018
:100dc0000000e000190032009000780091017800e6
:100dd00064815100880f510003003100110190001f
:100de00002087800070037000881400002087800f8
:100df000910190001301980010017800110914006e
:100e000088087800100178000000eb000200e00084
:100e100004003200920190000300e0000100320063
:100e20000280e800404488008180e80001007800ea
:100e30004f04780000000600800078000000eb00fe
:100e40000100e0000500340001007800c8fd070043
:100e5000e10f400001003a000000eb000000060036
:100e600000c0da000000060000c0da000000060042
:100e700000c0da0000000600020ab900001bb90039
:100e80000200b8008100420081004300000006001b
:020000040000fa
:100e9000486500006c6c00006f2000007348000083
:080ea00065780000210000004c
:020000040000fa
:100ea8000008000088000000820000000100000027
:100eb800002608002708260008260800260826001d
:100ec80008160800000000000000000000000000f4
:100ed800000000000000000000000000000000000a
:100ee8000002080001014e00084f08004e084e009d
:100ef800084e08004e083e000800000000000000f0
:100f080000000000000000000000000000000000d9
:100f180000000000000002000802020076087700c6
:100f2800087608007608760008760800660800004b
:100f380000000000000000000000000000000000a9
:100f48000000000000000000000000000008280069
:100f58000850080000000000000000000000000029
:100f6800000000008c080000020000008000000063
:100f78008e0800000200000082000000040000004b
:100f880088080000040000008000000090080000ad
:100f9800020000008200000001000000920800002a
:0c0fa800020000008000000000000000bb
:020000040000fa
:100fb4008074280072030200000000008082200078
:0c0fc400fc02020000000000ffff3700ec
:00000001FF
